{
  "contractName": "Swap",
  "abi": [
    {
      "inputs": [],
      "stateMutability": "nonpayable",
      "type": "constructor"
    },
    {
      "anonymous": false,
      "inputs": [
        {
          "indexed": true,
          "internalType": "address",
          "name": "previousOwner",
          "type": "address"
        },
        {
          "indexed": true,
          "internalType": "address",
          "name": "newOwner",
          "type": "address"
        }
      ],
      "name": "OwnershipTransferred",
      "type": "event"
    },
    {
      "inputs": [
        {
          "internalType": "string",
          "name": "",
          "type": "string"
        }
      ],
      "name": "contractABIMap",
      "outputs": [
        {
          "internalType": "string",
          "name": "",
          "type": "string"
        }
      ],
      "stateMutability": "view",
      "type": "function"
    },
    {
      "inputs": [],
      "name": "crossChainContract",
      "outputs": [
        {
          "internalType": "contract ICrossChain",
          "name": "",
          "type": "address"
        }
      ],
      "stateMutability": "view",
      "type": "function"
    },
    {
      "inputs": [
        {
          "internalType": "string",
          "name": "",
          "type": "string"
        },
        {
          "internalType": "string",
          "name": "",
          "type": "string"
        }
      ],
      "name": "destnContractMap",
      "outputs": [
        {
          "internalType": "string",
          "name": "contractAddress",
          "type": "string"
        },
        {
          "internalType": "string",
          "name": "funcName",
          "type": "string"
        },
        {
          "internalType": "bool",
          "name": "used",
          "type": "bool"
        }
      ],
      "stateMutability": "view",
      "type": "function"
    },
    {
      "inputs": [],
      "name": "getContext",
      "outputs": [
        {
          "components": [
            {
              "internalType": "uint256",
              "name": "id",
              "type": "uint256"
            },
            {
              "internalType": "string",
              "name": "fromChain",
              "type": "string"
            },
            {
              "internalType": "string",
              "name": "sender",
              "type": "string"
            },
            {
              "internalType": "string",
              "name": "signer",
              "type": "string"
            },
            {
              "components": [
                {
                  "internalType": "uint8",
                  "name": "reveal",
                  "type": "uint8"
                }
              ],
              "internalType": "struct SQOS",
              "name": "sqos",
              "type": "tuple"
            },
            {
              "internalType": "address",
              "name": "contractAddress",
              "type": "address"
            },
            {
              "internalType": "string",
              "name": "action",
              "type": "string"
            }
          ],
          "internalType": "struct SimplifiedMessage",
          "name": "",
          "type": "tuple"
        }
      ],
      "stateMutability": "view",
      "type": "function"
    },
    {
      "inputs": [
        {
          "internalType": "string",
          "name": "_destnChainName",
          "type": "string"
        },
        {
          "internalType": "string",
          "name": "_destnContractName",
          "type": "string"
        },
        {
          "internalType": "string",
          "name": "_funcName",
          "type": "string"
        }
      ],
      "name": "getMessageABI",
      "outputs": [
        {
          "components": [
            {
              "internalType": "string",
              "name": "parametertypes",
              "type": "string"
            },
            {
              "internalType": "string",
              "name": "parameterNames",
              "type": "string"
            }
          ],
          "internalType": "struct ContractBase.MessageABI",
          "name": "",
          "type": "tuple"
        }
      ],
      "stateMutability": "view",
      "type": "function"
    },
    {
      "inputs": [
        {
          "internalType": "uint256",
          "name": "",
          "type": "uint256"
        }
      ],
      "name": "idToFillOrder",
      "outputs": [
        {
          "internalType": "uint256",
          "name": "orderId",
          "type": "uint256"
        },
        {
          "internalType": "string",
          "name": "fromChainId",
          "type": "string"
        },
        {
          "internalType": "address",
          "name": "sender",
          "type": "address"
        },
        {
          "internalType": "address",
          "name": "tokenContract",
          "type": "address"
        },
        {
          "internalType": "uint256",
          "name": "amount",
          "type": "uint256"
        },
        {
          "internalType": "bytes32",
          "name": "hashlock",
          "type": "bytes32"
        },
        {
          "internalType": "uint256",
          "name": "createTime",
          "type": "uint256"
        },
        {
          "internalType": "uint256",
          "name": "timelock",
          "type": "uint256"
        },
        {
          "internalType": "address",
          "name": "payee",
          "type": "address"
        },
        {
          "internalType": "string",
          "name": "status",
          "type": "string"
        },
        {
          "internalType": "bool",
          "name": "transfer",
          "type": "bool"
        }
      ],
      "stateMutability": "view",
      "type": "function"
    },
    {
      "inputs": [
        {
          "internalType": "uint256",
          "name": "",
          "type": "uint256"
        }
      ],
      "name": "idToOrder",
      "outputs": [
        {
          "internalType": "uint256",
          "name": "orderId",
          "type": "uint256"
        },
        {
          "internalType": "address",
          "name": "sender",
          "type": "address"
        },
        {
          "internalType": "address",
          "name": "tokenContract",
          "type": "address"
        },
        {
          "internalType": "address",
          "name": "toTokenContract",
          "type": "address"
        },
        {
          "internalType": "uint256",
          "name": "amount",
          "type": "uint256"
        },
        {
          "internalType": "uint256",
          "name": "toAmount",
          "type": "uint256"
        },
        {
          "internalType": "bytes32",
          "name": "hashlock",
          "type": "bytes32"
        },
        {
          "internalType": "uint256",
          "name": "createTime",
          "type": "uint256"
        },
        {
          "internalType": "string",
          "name": "fromChainId",
          "type": "string"
        },
        {
          "internalType": "string",
          "name": "toChainId",
          "type": "string"
        },
        {
          "internalType": "string",
          "name": "status",
          "type": "string"
        },
        {
          "internalType": "address",
          "name": "payee",
          "type": "address"
        }
      ],
      "stateMutability": "view",
      "type": "function"
    },
    {
      "inputs": [
        {
          "internalType": "bytes",
          "name": "",
          "type": "bytes"
        }
      ],
      "name": "messageABIMap",
      "outputs": [
        {
          "internalType": "string",
          "name": "parametertypes",
          "type": "string"
        },
        {
          "internalType": "string",
          "name": "parameterNames",
          "type": "string"
        }
      ],
      "stateMutability": "view",
      "type": "function"
    },
    {
      "inputs": [],
      "name": "owner",
      "outputs": [
        {
          "internalType": "address",
          "name": "",
          "type": "address"
        }
      ],
      "stateMutability": "view",
      "type": "function"
    },
    {
      "inputs": [
        {
          "internalType": "string",
          "name": "",
          "type": "string"
        },
        {
          "internalType": "string",
          "name": "",
          "type": "string"
        }
      ],
      "name": "permittedContractMap",
      "outputs": [
        {
          "internalType": "string",
          "name": "",
          "type": "string"
        }
      ],
      "stateMutability": "view",
      "type": "function"
    },
    {
      "inputs": [
        {
          "internalType": "string",
          "name": "_funcName",
          "type": "string"
        },
        {
          "internalType": "string",
          "name": "_contractABI",
          "type": "string"
        }
      ],
      "name": "registerContractABI",
      "outputs": [],
      "stateMutability": "nonpayable",
      "type": "function"
    },
    {
      "inputs": [
        {
          "internalType": "string",
          "name": "_destnChainName",
          "type": "string"
        },
        {
          "internalType": "string",
          "name": "_destnContractName",
          "type": "string"
        },
        {
          "internalType": "string",
          "name": "_funcName",
          "type": "string"
        },
        {
          "internalType": "string",
          "name": "_paramType",
          "type": "string"
        },
        {
          "internalType": "string",
          "name": "_paramName",
          "type": "string"
        }
      ],
      "name": "registerMessageABI",
      "outputs": [],
      "stateMutability": "nonpayable",
      "type": "function"
    },
    {
      "inputs": [],
      "name": "renounceOwnership",
      "outputs": [],
      "stateMutability": "nonpayable",
      "type": "function"
    },
    {
      "inputs": [
        {
          "internalType": "address",
          "name": "_address",
          "type": "address"
        }
      ],
      "name": "setCrossChainContract",
      "outputs": [],
      "stateMutability": "nonpayable",
      "type": "function"
    },
    {
      "inputs": [
        {
          "internalType": "address",
          "name": "newOwner",
          "type": "address"
        }
      ],
      "name": "transferOwnership",
      "outputs": [],
      "stateMutability": "nonpayable",
      "type": "function"
    },
    {
      "inputs": [
        {
          "internalType": "string",
          "name": "chain_from",
          "type": "string"
        },
        {
          "internalType": "address",
          "name": "asset_from",
          "type": "address"
        },
        {
          "internalType": "uint256",
          "name": "amount_from",
          "type": "uint256"
        },
        {
          "internalType": "string",
          "name": "chain_to",
          "type": "string"
        },
        {
          "internalType": "address",
          "name": "asset_to",
          "type": "address"
        },
        {
          "internalType": "uint256",
          "name": "amount_to",
          "type": "uint256"
        }
      ],
      "name": "create_order",
      "outputs": [
        {
          "internalType": "bool",
          "name": "",
          "type": "bool"
        }
      ],
      "stateMutability": "nonpayable",
      "type": "function"
    },
    {
      "inputs": [
        {
          "internalType": "uint256",
          "name": "order_id",
          "type": "uint256"
        }
      ],
      "name": "query_order",
      "outputs": [],
      "stateMutability": "nonpayable",
      "type": "function"
    },
    {
      "inputs": [],
      "name": "query_all_orders",
      "outputs": [
        {
          "components": [
            {
              "internalType": "uint256",
              "name": "orderId",
              "type": "uint256"
            },
            {
              "internalType": "address",
              "name": "sender",
              "type": "address"
            },
            {
              "internalType": "address",
              "name": "tokenContract",
              "type": "address"
            },
            {
              "internalType": "address",
              "name": "toTokenContract",
              "type": "address"
            },
            {
              "internalType": "uint256",
              "name": "amount",
              "type": "uint256"
            },
            {
              "internalType": "uint256",
              "name": "toAmount",
              "type": "uint256"
            },
            {
              "internalType": "bytes32",
              "name": "hashlock",
              "type": "bytes32"
            },
            {
              "internalType": "uint256",
              "name": "createTime",
              "type": "uint256"
            },
            {
              "internalType": "string",
              "name": "fromChainId",
              "type": "string"
            },
            {
              "internalType": "string",
              "name": "toChainId",
              "type": "string"
            },
            {
              "internalType": "string",
              "name": "status",
              "type": "string"
            },
            {
              "internalType": "address",
              "name": "payee",
              "type": "address"
            }
          ],
          "internalType": "struct Swap.Order[]",
          "name": "",
          "type": "tuple[]"
        }
      ],
      "stateMutability": "view",
      "type": "function"
    },
    {
      "inputs": [
        {
          "internalType": "string",
          "name": "chain_id",
          "type": "string"
        },
        {
          "internalType": "uint256",
          "name": "order_id",
          "type": "uint256"
        },
        {
          "internalType": "address",
          "name": "asset",
          "type": "address"
        },
        {
          "internalType": "uint256",
          "name": "amount",
          "type": "uint256"
        },
        {
          "internalType": "address",
          "name": "payee",
          "type": "address"
        },
        {
          "internalType": "string",
          "name": "hashkey",
          "type": "string"
        }
      ],
      "name": "match_order",
      "outputs": [],
      "stateMutability": "nonpayable",
      "type": "function"
    },
    {
      "inputs": [
        {
          "internalType": "uint256",
          "name": "order_id",
          "type": "uint256"
        },
        {
          "internalType": "address",
          "name": "payee_address",
          "type": "address"
        },
        {
          "internalType": "address",
          "name": "from_chain_payee",
          "type": "address"
        },
        {
          "internalType": "address",
          "name": "from_chain_asset",
          "type": "address"
        },
        {
          "internalType": "uint256",
          "name": "amount",
          "type": "uint256"
        },
        {
          "internalType": "bytes32",
          "name": "hash",
          "type": "bytes32"
        }
      ],
      "name": "receive_match_order",
      "outputs": [],
      "stateMutability": "nonpayable",
      "type": "function"
    },
    {
      "inputs": [
        {
          "internalType": "string",
          "name": "chain_id",
          "type": "string"
        },
        {
          "internalType": "uint256",
          "name": "order_id",
          "type": "uint256"
        },
        {
          "internalType": "string",
          "name": "hashkey",
          "type": "string"
        },
        {
          "internalType": "address",
          "name": "payee_address",
          "type": "address"
        }
      ],
      "name": "unlock_asset",
      "outputs": [],
      "stateMutability": "nonpayable",
      "type": "function"
    },
    {
      "inputs": [
        {
          "internalType": "uint256",
          "name": "order_id",
          "type": "uint256"
        },
        {
          "internalType": "string",
          "name": "hashkey",
          "type": "string"
        },
        {
          "internalType": "address",
          "name": "payee_address",
          "type": "address"
        }
      ],
      "name": "recv_unlock_asset",
      "outputs": [],
      "stateMutability": "nonpayable",
      "type": "function"
    },
    {
      "inputs": [
        {
          "internalType": "uint256",
          "name": "order_id",
          "type": "uint256"
        },
        {
          "internalType": "bytes32",
          "name": "hash",
          "type": "bytes32"
        }
      ],
      "name": "receive_transfer_asset",
      "outputs": [],
      "stateMutability": "nonpayable",
      "type": "function"
    },
    {
      "inputs": [
        {
          "internalType": "string",
          "name": "_funcName",
          "type": "string"
        },
        {
          "internalType": "string",
          "name": "_toChain",
          "type": "string"
        },
        {
          "internalType": "string",
          "name": "_contractAddress",
          "type": "string"
        },
        {
          "internalType": "string",
          "name": "_contractFuncName",
          "type": "string"
        }
      ],
      "name": "registerDestnContract",
      "outputs": [],
      "stateMutability": "nonpayable",
      "type": "function"
    },
    {
      "inputs": [
        {
          "internalType": "string",
          "name": "_chainName",
          "type": "string"
        },
        {
          "internalType": "string",
          "name": "_sender",
          "type": "string"
        },
        {
          "internalType": "string",
          "name": "_funcName",
          "type": "string"
        }
      ],
      "name": "registerPermittedContract",
      "outputs": [],
      "stateMutability": "nonpayable",
      "type": "function"
    },
    {
      "inputs": [
        {
          "internalType": "string",
          "name": "_chainName",
          "type": "string"
        },
        {
          "internalType": "string",
          "name": "_funcName",
          "type": "string"
        },
        {
          "internalType": "string",
          "name": "_sender",
          "type": "string"
        }
      ],
      "name": "verify",
      "outputs": [
        {
          "internalType": "bool",
          "name": "",
          "type": "bool"
        }
      ],
      "stateMutability": "view",
      "type": "function"
    }
  ],
  "bytecode": "0x60806040523480156200001157600080fd5b5062000026620000206200002c565b62000030565b62000080565b3390565b600080546001600160a01b038381166001600160a01b0319831681178455604051919092169283917f8be0079c531659141344cd1fd0a4f28419497f9722a3daafe3b4186f6b6457e09190a35050565b61378080620000906000396000f3fe608060405234801561001057600080fd5b506004361061018e5760003560e01c806379f6793c116100de578063babe5dd611610097578063d975a60811610071578063d975a608146103ae578063dbc90de1146103c1578063f2fde38b146103c9578063ff96254b146103dc5761018e565b8063babe5dd614610375578063bb45acd914610388578063d46927031461039b5761018e565b806379f6793c146102cd57806380899bba146102e05780638da5cb5b146103025780638f1ec88f14610317578063a5c0621014610342578063ac95d830146103555761018e565b80632639c4231161014b5780635d45397d116101255780635d45397d1461027f5780635fe78c6c1461029257806366e1f820146102b2578063715018a6146102c55761018e565b80632639c423146102145780633ad16b7a146102355780633b6c9e26146102555761018e565b80630bec7e7c14610193578063127f0f07146101a857806318d72b54146101c65780631ff05bcd146101d9578063246da888146101ec57806325a435de14610201575b600080fd5b6101a66101a1366004612c1c565b6103ef565b005b6101b06103f2565b6040516101bd91906133e4565b60405180910390f35b6101a66101d43660046125a2565b610489565b6101a66101e7366004612c34565b6104f3565b6101f461061c565b6040516101bd9190612f77565b6101a661020f366004612c98565b610930565b6102276102223660046125f6565b610a52565b6040516101bd929190613154565b6102486102433660046126a3565b610b89565b6040516101bd91906133ab565b610268610263366004612c1c565b610d11565b6040516101bd9b9a99989796959493929190613598565b6101a661028d366004612cb9565b610e8d565b6102a56102a03660046129ef565b61115f565b6040516101bd9190613141565b6101a66102c036600461263b565b611204565b6101a66112b1565b6101a66102db3660046126a3565b6112fc565b6102f36102ee366004612abc565b61138c565b6040516101bd93929190613182565b61030a6114e9565b6040516101bd9190612f26565b61032a610325366004612c1c565b6114f8565b6040516101bd9c9b9a999897969594939291906134bd565b6101a66103503660046128e0565b611708565b610368610363366004612a21565b611b82565b6040516101bd919061309f565b6101a6610383366004612738565b611e30565b6102a5610396366004612abc565b611eeb565b6101a66103a93660046127f6565b611f2c565b6101a66103bc366004612967565b612074565b61030a61215c565b6101a66103d73660046125a2565b61216b565b6103686103ea3660046126a3565b6121d9565b50565b6103fa61224a565b600360009054906101000a90046001600160a01b03166001600160a01b0316639af7a48c6040518163ffffffff1660e01b815260040160006040518083038186803b15801561044857600080fd5b505afa15801561045c573d6000803e3d6000fd5b505050506040513d6000823e601f3d908101601f191682016040526104849190810190612b1c565b905090565b6104916121e5565b6001600160a01b03166104a26114e9565b6001600160a01b0316146104d15760405162461bcd60e51b81526004016104c890613263565b60405180910390fd5b600380546001600160a01b0319166001600160a01b0392909216919091179055565b6003546001600160a01b0316331461051d5760405162461bcd60e51b81526004016104c89061333f565b60006105276103f2565b905060006005826020015160405161053f9190612e5e565b90815260200160405180910390209050816040015180519060200120818360c0015160405161056e9190612e5e565b90815260405190819003602001812061058691612e7a565b6040518091039020146105ab5760405162461bcd60e51b81526004016104c890613298565b6000888152600660208181526040928390208351808501909452828452651b1bd8dad95960d21b93909101928352916105e991600a8401919061228d565b5060068101939093555050600b0180546001600160a01b0319166001600160a01b03959095169490941790935550505050565b6060600061062a60076121e9565b90506000816001600160401b0381111561065457634e487b7160e01b600052604160045260246000fd5b60405190808252806020026020018201604052801561068d57816020015b61067a612311565b8152602001906001900390816106725790505b50905060005b82811015610929576000818152600660208181526040928390208351610180810185528154815260018201546001600160a01b039081169382019390935260028201548316948101949094526003810154909116606084015260048101546080840152600581015460a08401529081015460c0830152600781015460e0830152600881018054919291839161010084019161072d906136b3565b80601f0160208091040260200160405190810160405280929190818152602001828054610759906136b3565b80156107a65780601f1061077b576101008083540402835291602001916107a6565b820191906000526020600020905b81548152906001019060200180831161078957829003601f168201915b505050505081526020016009820180546107bf906136b3565b80601f01602080910402602001604051908101604052809291908181526020018280546107eb906136b3565b80156108385780601f1061080d57610100808354040283529160200191610838565b820191906000526020600020905b81548152906001019060200180831161081b57829003601f168201915b50505050508152602001600a82018054610851906136b3565b80601f016020809104026020016040519081016040528092919081815260200182805461087d906136b3565b80156108ca5780601f1061089f576101008083540402835291602001916108ca565b820191906000526020600020905b8154815290600101906020018083116108ad57829003601f168201915b5050509183525050600b91909101546001600160a01b0316602090910152835184908490811061090a57634e487b7160e01b600052603260045260246000fd5b6020026020010181905250508080610921906136ee565b915050610693565b5091505090565b600061093c60096121e9565b905060005b81811015610a4c5760008181526008602052604090208054851415610a39576003810154600882015460048084015460405163a9059cbb60e01b81526000946001600160a01b039081169463a9059cbb946109a194929091169201612f5e565b602060405180830381600087803b1580156109bb57600080fd5b505af11580156109cf573d6000803e3d6000fd5b505050506040513d601f19601f820116820180604052508101906109f391906125be565b60408051808201909152600480825263646f6e6560e01b6020909201918252919250610a249160098501919061228d565b50600a8201805460ff19169115159190911790555b5080610a44816136ee565b915050610941565b50505050565b8051602081830181018051600182529282019190930120915280548190610a78906136b3565b80601f0160208091040260200160405190810160405280929190818152602001828054610aa4906136b3565b8015610af15780601f10610ac657610100808354040283529160200191610af1565b820191906000526020600020905b815481529060010190602001808311610ad457829003601f168201915b505050505090806001018054610b06906136b3565b80601f0160208091040260200160405190810160405280929190818152602001828054610b32906136b3565b8015610b7f5780601f10610b5457610100808354040283529160200191610b7f565b820191906000526020600020905b815481529060010190602001808311610b6257829003601f168201915b5050505050905082565b610b91612399565b6001878787878787604051602001610bae96959493929190612e96565b60408051601f1981840301815290829052610bc891612e5e565b9081526020016040518091039020604051806040016040529081600082018054610bf1906136b3565b80601f0160208091040260200160405190810160405280929190818152602001828054610c1d906136b3565b8015610c6a5780601f10610c3f57610100808354040283529160200191610c6a565b820191906000526020600020905b815481529060010190602001808311610c4d57829003601f168201915b50505050508152602001600182018054610c83906136b3565b80601f0160208091040260200160405190810160405280929190818152602001828054610caf906136b3565b8015610cfc5780601f10610cd157610100808354040283529160200191610cfc565b820191906000526020600020905b815481529060010190602001808311610cdf57829003601f168201915b50505050508152505090509695505050505050565b60086020526000908152604090208054600182018054919291610d33906136b3565b80601f0160208091040260200160405190810160405280929190818152602001828054610d5f906136b3565b8015610dac5780601f10610d8157610100808354040283529160200191610dac565b820191906000526020600020905b815481529060010190602001808311610d8f57829003601f168201915b50505060028401546003850154600486015460058701546006880154600789015460088a015460098b0180549a9b6001600160a01b039889169b9789169a5095985093969295919492169290610e01906136b3565b80601f0160208091040260200160405190810160405280929190818152602001828054610e2d906136b3565b8015610e7a5780601f10610e4f57610100808354040283529160200191610e7a565b820191906000526020600020905b815481529060010190602001808311610e5d57829003601f168201915b505050600a909301549192505060ff168b565b600060028484604051602001610ea4929190612e86565b60408051601f1981840301815290829052610ebe91612e5e565b602060405180830381855afa158015610edb573d6000803e3d6000fd5b5050506040513d601f19601f82011682018060405250810190610efe91906125de565b600086815260066020819052604090912090810154919250908214610f2257600080fd5b60408051808201909152600680825265199a5b1b195960d21b6020909201918252610f5191600a84019161228d565b50600281015460048083015460405163a9059cbb60e01b81526000936001600160a01b03169263a9059cbb92610f8992899201612f5e565b602060405180830381600087803b158015610fa357600080fd5b505af1158015610fb7573d6000803e3d6000fd5b505050506040513d601f19601f82011682018060405250810190610fdb91906125be565b90506000600483600901604051610ff29190612e7a565b9081526020016040518091039020905060008160405161101190612efb565b908152604051908190036020019020600281015490915060ff166110475760405162461bcd60e51b81526004016104c890613308565b6000896002600060405160200161105e9190612f1d565b60408051601f198184030181529082905261107891612e5e565b602060405180830381855afa158015611095573d6000803e3d6000fd5b5050506040513d601f19601f820116820180604052508101906110b891906125de565b6040516020016110c9929190613557565b60408051601f1981840301815260208301825260008352600354915163ef565bbf60e01b81529093506001600160a01b039091169063ef565bbf906111209060098a019087906001820190879089906004016131ba565b600060405180830381600087803b15801561113a57600080fd5b505af115801561114e573d6000803e3d6000fd5b505050505050505050505050505050565b805160208183018101805160028252928201919093012091528054611183906136b3565b80601f01602080910402602001604051908101604052809291908181526020018280546111af906136b3565b80156111fc5780601f106111d1576101008083540402835291602001916111fc565b820191906000526020600020905b8154815290600101906020018083116111df57829003601f168201915b505050505081565b61120c6121e5565b6001600160a01b031661121d6114e9565b6001600160a01b0316146112435760405162461bcd60e51b81526004016104c890613263565b6003546040516321c0551d60e11b81526001600160a01b0390911690634380aa3a906112799087908790879087906004016130aa565b600060405180830381600087803b15801561129357600080fd5b505af11580156112a7573d6000803e3d6000fd5b5050505050505050565b6112b96121e5565b6001600160a01b03166112ca6114e9565b6001600160a01b0316146112f05760405162461bcd60e51b81526004016104c890613263565b6112fa60006121f1565b565b6113046121e5565b6001600160a01b03166113156114e9565b6001600160a01b03161461133b5760405162461bcd60e51b81526004016104c890613263565b60006005878760405161134f929190612e86565b908152602001604051809103902090508484828585604051611372929190612e86565b9081526040519081900360200190206112a79290916123b3565b815160208184018101805160048252928201948201949094209190935281518083018401805192815290840192909301919091209152805481906113cf906136b3565b80601f01602080910402602001604051908101604052809291908181526020018280546113fb906136b3565b80156114485780601f1061141d57610100808354040283529160200191611448565b820191906000526020600020905b81548152906001019060200180831161142b57829003601f168201915b50505050509080600101805461145d906136b3565b80601f0160208091040260200160405190810160405280929190818152602001828054611489906136b3565b80156114d65780601f106114ab576101008083540402835291602001916114d6565b820191906000526020600020905b8154815290600101906020018083116114b957829003601f168201915b5050506002909301549192505060ff1683565b6000546001600160a01b031690565b600660208190526000918252604090912080546001820154600283015460038401546004850154600586015496860154600787015460088801805497996001600160a01b03978816999688169897909516969395929391929161155a906136b3565b80601f0160208091040260200160405190810160405280929190818152602001828054611586906136b3565b80156115d35780601f106115a8576101008083540402835291602001916115d3565b820191906000526020600020905b8154815290600101906020018083116115b657829003601f168201915b5050505050908060090180546115e8906136b3565b80601f0160208091040260200160405190810160405280929190818152602001828054611614906136b3565b80156116615780601f1061163657610100808354040283529160200191611661565b820191906000526020600020905b81548152906001019060200180831161164457829003601f168201915b50505050509080600a018054611676906136b3565b80601f01602080910402602001604051908101604052809291908181526020018280546116a2906136b3565b80156116ef5780601f106116c4576101008083540402835291602001916116ef565b820191906000526020600020905b8154815290600101906020018083116116d257829003601f168201915b505050600b90930154919250506001600160a01b03168c565b6040516323b872dd60e01b81526001600160a01b038616906323b872dd9061173890339030908990600401612f3a565b602060405180830381600087803b15801561175257600080fd5b505af1158015611766573d6000803e3d6000fd5b505050506040513d601f19601f8201168201806040525081019061178a91906125be565b6117a65760405162461bcd60e51b81526004016104c890613374565b60006117b260096121e9565b90506040518061016001604052808881526020018a8a8080601f016020809104026020016040519081016040528093929190818152602001838380828437600092019190915250505090825250336020808301919091526001600160a01b038916604080840191909152606083018990525160809092019160029161183b918891889101612e86565b60408051601f198184030181529082905261185591612e5e565b602060405180830381855afa158015611872573d6000803e3d6000fd5b5050506040513d601f19601f8201168201806040525081019061189591906125de565b815260200142815260200142610e106118ae919061366f565b81526001600160a01b038616602080830191909152604080518082018252600781526618dc99585d195960ca1b818401528184015260006060909301839052848352600882529091208251815582820151805191926119159260018501929091019061228d565b5060408201516002820180546001600160a01b039283166001600160a01b03199182161790915560608401516003840180549184169183169190911790556080840151600484015560a0840151600584015560c0840151600684015560e0840151600784015561010084015160088401805491909316911617905561012082015180516119ac91600984019160209091019061228d565b506101409190910151600a909101805460ff19169115159190911790556119d36009612241565b600060048a8a6040516119e7929190612e86565b90815260200160405180910390209050600081604051611a0690612ebf565b908152604051908190036020019020600281015490915060ff16611a3c5760405162461bcd60e51b81526004016104c8906132d9565b600089338a33600160028b8b604051602001611a59929190612e86565b60408051601f1981840301815290829052611a7391612e5e565b602060405180830381855afa158015611a90573d6000803e3d6000fd5b5050506040513d601f19601f82011682018060405250810190611ab391906125de565b604051602001611ac896959493929190613486565b604051602081830303815290604052905060006040518060200160405280600060ff168152509050600360009054906101000a90046001600160a01b03166001600160a01b031663ef565bbf8e8e866000018760010186886040518763ffffffff1660e01b8152600401611b41969594939291906130dc565b600060405180830381600087803b158015611b5b57600080fd5b505af1158015611b6f573d6000803e3d6000fd5b5050505050505050505050505050505050565b6040516323b872dd60e01b81526000906001600160a01b038716906323b872dd90611bb590339030908a90600401612f3a565b602060405180830381600087803b158015611bcf57600080fd5b505af1158015611be3573d6000803e3d6000fd5b505050506040513d601f19601f82011682018060405250810190611c0791906125be565b611c235760405162461bcd60e51b81526004016104c890613374565b6000611c2f60076121e9565b9050604051806101800160405280828152602001336001600160a01b03168152602001886001600160a01b03168152602001856001600160a01b031681526020018781526020018481526020016000801b81526020014281526020018981526020018681526020016040518060400160405280600781526020016618dc99585d195960ca1b815250815260200160006001600160a01b0316815250600660008381526020019081526020016000206000820151816000015560208201518160010160006101000a8154816001600160a01b0302191690836001600160a01b0316021790555060408201518160020160006101000a8154816001600160a01b0302191690836001600160a01b0316021790555060608201518160030160006101000a8154816001600160a01b0302191690836001600160a01b031602179055506080820151816004015560a0820151816005015560c0820151816006015560e08201518160070155610100820151816008019080519060200190611db392919061228d565b506101208201518051611dd091600984019160209091019061228d565b506101408201518051611ded91600a84019160209091019061228d565b506101609190910151600b90910180546001600160a01b0319166001600160a01b03909216919091179055611e226007612241565b506001979650505050505050565b611e386121e5565b6001600160a01b0316611e496114e9565b6001600160a01b031614611e6f5760405162461bcd60e51b81526004016104c890613263565b600060048787604051611e83929190612e86565b908152602001604051809103902090506000818a8a604051611ea6929190612e86565b9081526040519081900360200190209050611ec28187876123b3565b50611ed16001820185856123b3565b50600201805460ff19166001179055505050505050505050565b8151602081840181018051600582529282019482019490942091909352815180830184018051928152908401929093019190912091528054611183906136b3565b611f346121e5565b6001600160a01b0316611f456114e9565b6001600160a01b031614611f6b5760405162461bcd60e51b81526004016104c890613263565b6040805160606020601f8701819004028201810183529181018581526000928291908890889081908501838280828437600092019190915250505090825250604080516020601f87018190048102820181019092528581529181019190869086908190840183828082843760009201919091525050509152506040519091508190600190612007908e908e908e908e908e908e90602001612e96565b60408051601f198184030181529082905261202191612e5e565b9081526020016040518091039020600082015181600001908051906020019061204b92919061228d565b506020828101518051612064926001850192019061228d565b5050505050505050505050505050565b6000848152600660205260408082209051909190600490612098908a908a90612e86565b908152602001604051809103902090506000816040516120b790612ede565b908152604051908190036020019020600281015490915060ff166120ed5760405162461bcd60e51b81526004016104c8906132d9565b6000878787876040516020016121069493929190613565565b60408051601f1981840301815260208301825260008352600354915163ef565bbf60e01b81529093506001600160a01b039091169063ef565bbf90611120908e908e908890600182019088908a906004016130dc565b6003546001600160a01b031681565b6121736121e5565b6001600160a01b03166121846114e9565b6001600160a01b0316146121aa5760405162461bcd60e51b81526004016104c890613263565b6001600160a01b0381166121d05760405162461bcd60e51b81526004016104c89061321d565b6103ef816121f1565b60019695505050505050565b3390565b80545b919050565b600080546001600160a01b038381166001600160a01b0319831681178455604051919092169283917f8be0079c531659141344cd1fd0a4f28419497f9722a3daafe3b4186f6b6457e09190a35050565b80546001019055565b6040518060e0016040528060008152602001606081526020016060815260200160608152602001612279612427565b815260006020820152606060409091015290565b828054612299906136b3565b90600052602060002090601f0160209004810192826122bb5760008555612301565b82601f106122d457805160ff1916838001178555612301565b82800160010185558215612301579182015b828111156123015782518255916020019190600101906122e6565b5061230d929150612439565b5090565b6040518061018001604052806000815260200160006001600160a01b0316815260200160006001600160a01b0316815260200160006001600160a01b031681526020016000815260200160008152602001600080191681526020016000815260200160608152602001606081526020016060815260200160006001600160a01b031681525090565b604051806040016040528060608152602001606081525090565b8280546123bf906136b3565b90600052602060002090601f0160209004810192826123e15760008555612301565b82601f106123fa5782800160ff19823516178555612301565b82800160010185558215612301579182015b8281111561230157823582559160200191906001019061240c565b60408051602081019091526000815290565b5b8082111561230d576000815560010161243a565b600061246161245c84613648565b61361f565b905082815283838301111561247557600080fd5b828260208301376000602084830101529392505050565b80516121ec81613735565b60008083601f8401126124a8578182fd5b5081356001600160401b038111156124be578182fd5b6020830191508360208285010111156124d657600080fd5b9250929050565b600082601f8301126124ed578081fd5b6124fc8383356020850161244e565b9392505050565b600082601f830112612513578081fd5b815161252161245c82613648565b818152846020838601011115612535578283fd5b612546826020830160208701613687565b949350505050565b60006020828403121561255f578081fd5b604051602081018181106001600160401b03821117156125815761258161371f565b8060405250809150825160ff8116811461259a57600080fd5b905292915050565b6000602082840312156125b3578081fd5b81356124fc81613735565b6000602082840312156125cf578081fd5b815180151581146124fc578182fd5b6000602082840312156125ef578081fd5b5051919050565b600060208284031215612607578081fd5b81356001600160401b0381111561261c578182fd5b8201601f8101841361262c578182fd5b6125468482356020840161244e565b60008060008060408587031215612650578283fd5b84356001600160401b0380821115612666578485fd5b61267288838901612497565b9096509450602087013591508082111561268a578384fd5b5061269787828801612497565b95989497509550505050565b600080600080600080606087890312156126bb578182fd5b86356001600160401b03808211156126d1578384fd5b6126dd8a838b01612497565b909850965060208901359150808211156126f5578384fd5b6127018a838b01612497565b90965094506040890135915080821115612719578384fd5b5061272689828a01612497565b979a9699509497509295939492505050565b6000806000806000806000806080898b031215612753578182fd5b88356001600160401b0380821115612769578384fd5b6127758c838d01612497565b909a50985060208b013591508082111561278d578384fd5b6127998c838d01612497565b909850965060408b01359150808211156127b1578384fd5b6127bd8c838d01612497565b909650945060608b01359150808211156127d5578384fd5b506127e28b828c01612497565b999c989b5096995094979396929594505050565b60008060008060008060008060008060a08b8d031215612814578384fd5b8a356001600160401b038082111561282a578586fd5b6128368e838f01612497565b909c509a5060208d013591508082111561284e578586fd5b61285a8e838f01612497565b909a50985060408d0135915080821115612872578586fd5b61287e8e838f01612497565b909850965060608d0135915080821115612896578586fd5b6128a28e838f01612497565b909650945060808d01359150808211156128ba578384fd5b506128c78d828e01612497565b915080935050809150509295989b9194979a5092959850565b60008060008060008060008060c0898b0312156128fb578182fd5b88356001600160401b0380821115612911578384fd5b61291d8c838d01612497565b909a50985060208b0135975060408b0135915061293982613735565b90955060608a0135945060808a01359061295282613735565b90935060a08a013590808211156127d5578384fd5b6000806000806000806080878903121561297f578384fd5b86356001600160401b0380821115612995578586fd5b6129a18a838b01612497565b90985096506020890135955060408901359150808211156129c0578384fd5b506129cd89828a01612497565b90945092505060608701356129e181613735565b809150509295509295509295565b600060208284031215612a00578081fd5b81356001600160401b03811115612a15578182fd5b612546848285016124dd565b60008060008060008060c08789031215612a39578384fd5b86356001600160401b0380821115612a4f578586fd5b612a5b8a838b016124dd565b975060208901359150612a6d82613735565b9095506040880135945060608801359080821115612a89578384fd5b50612a9689828a016124dd565b9350506080870135612aa781613735565b8092505060a087013590509295509295509295565b60008060408385031215612ace578182fd5b82356001600160401b0380821115612ae4578384fd5b612af0868387016124dd565b93506020850135915080821115612b05578283fd5b50612b12858286016124dd565b9150509250929050565b600060208284031215612b2d578081fd5b81516001600160401b0380821115612b43578283fd5b9083019060e08286031215612b56578283fd5b612b6060e061361f565b82518152602083015182811115612b75578485fd5b612b8187828601612503565b602083015250604083015182811115612b98578485fd5b612ba487828601612503565b604083015250606083015182811115612bbb578485fd5b612bc787828601612503565b606083015250612bda866080850161254e565b6080820152612beb60a0840161248c565b60a082015260c083015182811115612c01578485fd5b612c0d87828601612503565b60c08301525095945050505050565b600060208284031215612c2d578081fd5b5035919050565b60008060008060008060c08789031215612c4c578384fd5b863595506020870135612c5e81613735565b94506040870135612c6e81613735565b93506060870135612c7e81613735565b9598949750929560808101359460a0909101359350915050565b60008060408385031215612caa578182fd5b50508035926020909101359150565b60008060008060608587031215612cce578182fd5b8435935060208501356001600160401b03811115612cea578283fd5b612cf687828801612497565b9094509250506040850135612d0a81613735565b939692955090935050565b6001600160a01b03169052565b60008151808452612d3a816020860160208601613687565b601f01601f19169290920160200192915050565b60008154612d5b816136b3565b60018281168015612d735760018114612d8457612db3565b60ff19841687528287019450612db3565b8560005260208060002060005b85811015612daa5781548a820152908401908201612d91565b50505082870194505b5050505092915050565b60008284528282602086013780602084860101526020601f19601f85011685010190509392505050565b60008154612df4816136b3565b808552602060018381168015612e115760018114612e2557612e53565b60ff19851688840152604088019550612e53565b866000528260002060005b85811015612e4b5781548a8201860152908301908401612e30565b890184019650505b505050505092915050565b60008251612e70818460208701613687565b9190910192915050565b60006124fc8284612d4e565b6000828483379101908152919050565b600086888337868201818152858782378501818152838582379092019182525095945050505050565b723932b1b2b4bb32afb6b0ba31b42fb7b93232b960691b815260130190565b701c9958dd97dd5b9b1bd8dad7d85cdcd95d607a1b815260110190565b751c9958d95a5d9957dd1c985b9cd9995c97d85cdcd95d60521b815260160190565b90815260200190565b6001600160a01b0391909116815260200190565b6001600160a01b039384168152919092166020820152604081019190915260600190565b6001600160a01b03929092168252602082015260400190565b60208082528251828201819052600091906040908185019080840286018301878501865b8381101561309157603f1989840301855281516101808151855288820151612fc58a870182612d15565b5087820151612fd689870182612d15565b50606080830151612fe982880182612d15565b50506080828101519086015260a0808301519086015260c0808301519086015260e080830151908601526101008083015181870183905261302c83880182612d22565b9250505061012080830151868303828801526130488382612d22565b9250505061014080830151868303828801526130648382612d22565b9250505061016080830151925061307d81870184612d15565b509588019593505090860190600101612f9b565b509098975050505050505050565b901515815260200190565b6000604082526130be604083018688612dbd565b82810360208401526130d1818587612dbd565b979650505050505050565b600060a082526130f060a08301888a612dbd565b82810360208401526131028188612de7565b905082810360408401526131168187612de7565b905060ff855116606084015282810360808401526131348185612d22565b9998505050505050505050565b6000602082526124fc6020830184612d22565b6000604082526131676040830185612d22565b82810360208401526131798185612d22565b95945050505050565b6000606082526131956060830186612d22565b82810360208401526131a78186612d22565b9150508215156040830152949350505050565b600060a082526131cd60a0830188612de7565b82810360208401526131df8188612de7565b905082810360408401526131f38187612de7565b905060ff855116606084015282810360808401526132118185612d22565b98975050505050505050565b60208082526026908201527f4f776e61626c653a206e6577206f776e657220697320746865207a65726f206160408201526564647265737360d01b606082015260800190565b6020808252818101527f4f776e61626c653a2063616c6c6572206973206e6f7420746865206f776e6572604082015260600190565b60208082526021908201527f6d6573736167652073656e646572206973206e6f7420726567697374657265646040820152602160f81b606082015260800190565b6020808252601590820152741858dd1a5bdb881b9bdd081c9959da5cdd195c9959605a1b604082015260600190565b6020808252601d908201527f7472616e736665725f6173736574206e6f742072656769737465726564000000604082015260600190565b6020808252818101527f4c6f636b65723a2063616c6c6572206973206e6f742043726f7373436861696e604082015260600190565b60208082526017908201527f7472616e7366657220746f2073776170206661696c6564000000000000000000604082015260600190565b6000602082528251604060208401526133c76060840182612d22565b90506020840151601f198483030160408501526131798282612d22565b60006020825282516020830152602083015160e0604084015261340b610100840182612d22565b90506040840151601f19808584030160608601526134298383612d22565b925060608601519150808584030160808601526134468383612d22565b925060ff6080870151511660a086015260a0860151915061346a60c0860183612d15565b60c08601519150808584030160e0860152506131798282612d22565b9586526001600160a01b03948516602087015292841660408601529216606084015260ff909116608083015260a082015260c00190565b60006101808e835260018060a01b03808f166020850152808e166040850152808d1660608501528b60808501528a60a08501528960c08501528860e08501528161010085015261350f82850189612d22565b91508382036101208501526135248288612d22565b91508382036101408501526135398287612d22565b925080851661016085015250509d9c50505050505050505050505050565b918252602082015260400190565b60008582526060602083015261357f606083018587612dbd565b905060018060a01b038316604083015295945050505050565b60006101608d83528060208401526135b28184018e612d22565b6001600160a01b038d811660408601528c81166060860152608085018c905260a085018b905260c085018a905260e08501899052871661010085015283810361012085015290506136038186612d22565b9150508215156101408301529c9b505050505050505050505050565b6040518181016001600160401b03811182821017156136405761364061371f565b604052919050565b60006001600160401b038211156136615761366161371f565b50601f01601f191660200190565b6000821982111561368257613682613709565b500190565b60005b838110156136a257818101518382015260200161368a565b83811115610a4c5750506000910152565b6002810460018216806136c757607f821691505b602082108114156136e857634e487b7160e01b600052602260045260246000fd5b50919050565b600060001982141561370257613702613709565b5060010190565b634e487b7160e01b600052601160045260246000fd5b634e487b7160e01b600052604160045260246000fd5b6001600160a01b03811681146103ef57600080fdfea26469706673582212204038eebf505f3b59f6b660e5f8770a8fd0db85269f9797bd484498670f81494d64736f6c63430008000033",
  "immutableReferences": {},
  "source": "// SPDX-License-Identifier: MIT\npragma solidity 0.8.0;\n\nimport \"@openzeppelin/contracts/token/ERC20/IERC20.sol\";\nimport \"./CrossChain/ContractBase.sol\";\nimport '@openzeppelin/contracts/utils/Counters.sol';\n\ncontract Swap is ContractBase {\n    using Counters for Counters.Counter;\n\n    // Destination contract info\n    struct DestnContract {\n        string contractAddress; // destination contract address\n        string funcName; // destination contract action name\n        bool used;\n    }\n\n    struct Order {\n        uint256 orderId;\n        address sender;\n        address tokenContract;\n        address toTokenContract;\n        uint256 amount;\n        uint256 toAmount;\n        bytes32 hashlock;\n        uint256 createTime;\n        string fromChainId;\n        string toChainId;\n        string status;\n        address payee;\n    }\n\n    struct OrderFill {\n        uint256 orderId;\n        string fromChainId;\n        address sender;\n        address tokenContract;\n        uint256 amount;\n        bytes32 hashlock;\n        uint256 createTime;\n        uint256 timelock; // locked UNTIL this time.\n        address payee;\n        string status;\n        bool transfer;\n    }\n\n    // Cross-chain destination contract map\n    mapping(string => mapping(string => DestnContract)) public destnContractMap;\n\n    // Cross-chain permitted contract map\n    mapping(string => mapping(string => string)) public permittedContractMap;\n\n    mapping(uint256 => Order) public idToOrder;\n    Counters.Counter _orderIds;\n\n    mapping(uint256 => OrderFill) public idToFillOrder;\n    Counters.Counter _fillOrderIds;\n\n    constructor() public {}\n\n    function create_order(\n        string memory chain_from,\n        address asset_from,\n        uint256 amount_from,\n        string memory chain_to,\n        address asset_to,\n        uint256 amount_to\n    ) public returns (bool) {\n        require(IERC20(asset_from).transferFrom(msg.sender,\n            address(this),\n            amount_from\n        ), \"transfer to swap failed\");\n        uint256 orderId = _orderIds.current();\n        idToOrder[orderId] = Order(\n            orderId,\n            msg.sender,\n            asset_from,\n            asset_to,\n            amount_from,\n            amount_to,\n            bytes32(0),\n            block.timestamp,\n            chain_from,\n            chain_to,\n            \"created\",\n            address(0)\n        );\n        _orderIds.increment();\n        return true;\n    }\n\n    function query_order(uint256 order_id) public {}\n\n    function query_all_orders() public view returns (Order[] memory) {\n        uint256 orderCount = _orderIds.current();\n        Order[] memory orders = new Order[](orderCount);\n        for (uint256 i = 0; i < orderCount; i++) {\n            Order storage order = idToOrder[i];\n            orders[i] = order;\n        }\n        return orders;\n    }\n\n    function match_order(\n        string calldata chain_id,\n        uint256 order_id,\n        address asset,\n        uint256 amount, \n        address payee,\n        string calldata hashkey\n    ) public {\n        require(IERC20(asset).transferFrom(msg.sender, address(this), amount), \"transfer to swap failed\");\n        uint256 _fillOrderId = _fillOrderIds.current();\n        idToFillOrder[_fillOrderId] = OrderFill(\n            order_id,\n            chain_id,\n            msg.sender,\n            asset,\n            amount,\n            sha256(abi.encodePacked(hashkey)),\n            block.timestamp,\n            block.timestamp + 3600,\n            payee,\n            \"created\",\n            false\n        );\n        _fillOrderIds.increment();\n\n        mapping(string => DestnContract) storage map = destnContractMap[\n            chain_id\n        ];\n        DestnContract storage destnContract = map[\"receive_match_order\"];\n        require(destnContract.used, \"action not registered\");\n\n        bytes memory data = abi.encode(order_id, msg.sender, asset, msg.sender, 1, sha256(abi.encodePacked(hashkey)));\n        SQOS memory sqos = SQOS(0);\n        crossChainContract.sendMessage(\n            chain_id,\n            destnContract.contractAddress,\n            destnContract.funcName,\n            sqos,\n            data\n        );\n    }\n\n    function receive_match_order(\n        uint256 order_id,\n        address payee_address,\n        address from_chain_payee,\n        address from_chain_asset,\n        uint256 amount,\n        bytes32 hash\n    ) public {\n        require(\n            msg.sender == address(crossChainContract),\n            \"Locker: caller is not CrossChain\"\n        );\n\n        // `context` used for verify the operation authority\n        SimplifiedMessage memory context = getContext();\n        // verify sqos\n        // require(context.sqos.reveal == 1, \"SQoS invalid!\");\n\n        // verify the sender from the registered chain\n        mapping(string => string)\n            storage permittedContract = permittedContractMap[context.fromChain];\n\n        require(\n            keccak256(bytes(permittedContract[context.action])) ==\n                keccak256(bytes(context.sender)),\n            \"message sender is not registered!\"\n        );\n\n        Order storage order = idToOrder[order_id];\n        order.status = \"locked\";\n        order.hashlock = hash;\n        order.payee = payee_address;\n    }\n\n    function unlock_asset(string calldata chain_id, uint256 order_id, string calldata hashkey, address payee_address) public {\n        // bytes32 hash = sha256(abi.encodePacked(hashkey));\n        Order storage order = idToOrder[order_id];\n        mapping(string => DestnContract) storage map = destnContractMap[\n            chain_id\n        ];\n        DestnContract storage destnContract = map[\"recv_unlock_asset\"];\n        require(destnContract.used, \"action not registered\");\n\n        bytes memory data = abi.encode(order_id, hashkey, payee_address);\n        SQOS memory sqos = SQOS(0);\n        crossChainContract.sendMessage(\n            chain_id,\n            destnContract.contractAddress,\n            destnContract.funcName,\n            sqos,\n            data\n        );\n    }\n\n    function recv_unlock_asset(uint256 order_id, string calldata hashkey, address payee_address) public {\n        bytes32 hash = sha256(abi.encodePacked(hashkey));\n        Order storage order = idToOrder[order_id];\n        require(order.hashlock == hash);\n        order.status = \"filled\";\n        bool ret = IERC20(order.tokenContract).transfer(\n            payee_address,\n            order.amount\n        );\n\n        // send receive_transfer_asset\n        mapping(string => DestnContract) storage map = destnContractMap[\n            order.toChainId\n        ];\n        DestnContract storage destnContract = map[\"receive_transfer_asset\"];\n        require(destnContract.used, \"transfer_asset not registered\");\n\n        bytes memory data = abi.encode(order_id, sha256(abi.encodePacked(uint(0))));\n        SQOS memory sqos = SQOS(0);\n        crossChainContract.sendMessage(\n            order.toChainId,\n            destnContract.contractAddress,\n            destnContract.funcName,\n            sqos,\n            data\n        );\n    }\n\n    function receive_transfer_asset(uint256 order_id, bytes32 hash) public {\n        uint256 orderCount = _fillOrderIds.current();\n        for (uint256 i = 0; i < orderCount; i++) {\n            OrderFill storage order = idToFillOrder[i];\n            if (order.orderId == order_id){\n                bool ret = IERC20(order.tokenContract).transfer(order.payee, order.amount);\n                order.status = \"done\";\n                order.transfer = ret;\n            }\n        }\n    }\n\n    function registerDestnContract(\n        string calldata _funcName,\n        string calldata _toChain,\n        string calldata _contractAddress,\n        string calldata _contractFuncName\n    ) external onlyOwner {\n        mapping(string => DestnContract) storage map = destnContractMap[\n            _toChain\n        ];\n        DestnContract storage destnContract = map[_funcName];\n        destnContract.contractAddress = _contractAddress;\n        destnContract.funcName = _contractFuncName;\n        destnContract.used = true;\n    }\n\n    function registerPermittedContract(\n        string calldata _chainName,\n        string calldata _sender,\n        string calldata _funcName\n    ) external onlyOwner {\n        mapping(string => string) storage map = permittedContractMap[\n            _chainName\n        ];\n        map[_funcName] = _sender;\n    }\n\n    function verify(\n        string calldata _chainName,\n        string calldata _funcName,\n        string calldata _sender\n    ) public view virtual returns (bool) {\n        return true;\n    }\n}",
  "sourcePath": "/Users/fsy412/code/Demo-Swap/contracts/Swap.sol",
  "compiler": {
    "name": "solc",
    "version": "0.8.0+commit.c7dfd78e.Emscripten.clang"
  },
  "schemaVersion": "3.4.6",
  "updatedAt": "2022-04-27T07:02:59.059Z",
  "devdoc": {
    "kind": "dev",
    "methods": {
      "getMessageABI(string,string,string)": {
        "params": {
          "_destnChainName": "- destination chain name",
          "_destnContractName": "- destination contract name",
          "_funcName": "- destination contract function name"
        }
      },
      "owner()": {
        "details": "Returns the address of the current owner."
      },
      "registerContractABI(string,string)": {
        "params": {
          "_contractABI": "- contract action abi",
          "_funcName": "- contract action name"
        }
      },
      "registerMessageABI(string,string,string,string,string)": {
        "params": {
          "_destnChainName": "- destination chain name",
          "_destnContractName": "- destination contract name",
          "_funcName": "- destination contract function name",
          "_paramName": "- action param name",
          "_paramType": "- action param types"
        }
      },
      "renounceOwnership()": {
        "details": "Leaves the contract without owner. It will not be possible to call `onlyOwner` functions anymore. Can only be called by the current owner. NOTE: Renouncing ownership will leave the contract without an owner, thereby removing any functionality that is only available to the owner."
      },
      "setCrossChainContract(address)": {
        "params": {
          "_address": "- cross chain contract address"
        }
      },
      "transferOwnership(address)": {
        "details": "Transfers ownership of the contract to a new account (`newOwner`). Can only be called by the current owner."
      }
    },
    "version": 1
  },
  "userdoc": {
    "kind": "user",
    "methods": {
      "getMessageABI(string,string,string)": {
        "notice": "Get Registered message ABI to encode/decode message"
      },
      "registerContractABI(string,string)": {
        "notice": "contract ABI used to encode/decode messages sent to this contract"
      },
      "registerMessageABI(string,string,string,string,string)": {
        "notice": "message ABI used to encode/decode messages sent from this contract"
      },
      "setCrossChainContract(address)": {
        "notice": "Set cross chain contract"
      }
    },
    "version": 1
  }
}