{
  "contractName": "Swap",
  "abi": [
    {
      "inputs": [],
      "stateMutability": "nonpayable",
      "type": "constructor"
    },
    {
      "anonymous": false,
      "inputs": [
        {
          "indexed": true,
          "internalType": "address",
          "name": "previousOwner",
          "type": "address"
        },
        {
          "indexed": true,
          "internalType": "address",
          "name": "newOwner",
          "type": "address"
        }
      ],
      "name": "OwnershipTransferred",
      "type": "event"
    },
    {
      "inputs": [
        {
          "internalType": "string",
          "name": "",
          "type": "string"
        }
      ],
      "name": "contractABIMap",
      "outputs": [
        {
          "internalType": "string",
          "name": "",
          "type": "string"
        }
      ],
      "stateMutability": "view",
      "type": "function"
    },
    {
      "inputs": [],
      "name": "crossChainContract",
      "outputs": [
        {
          "internalType": "contract ICrossChain",
          "name": "",
          "type": "address"
        }
      ],
      "stateMutability": "view",
      "type": "function"
    },
    {
      "inputs": [
        {
          "internalType": "string",
          "name": "",
          "type": "string"
        },
        {
          "internalType": "string",
          "name": "",
          "type": "string"
        }
      ],
      "name": "destnContractMap",
      "outputs": [
        {
          "internalType": "string",
          "name": "contractAddress",
          "type": "string"
        },
        {
          "internalType": "string",
          "name": "funcName",
          "type": "string"
        },
        {
          "internalType": "bool",
          "name": "used",
          "type": "bool"
        }
      ],
      "stateMutability": "view",
      "type": "function"
    },
    {
      "inputs": [],
      "name": "getContext",
      "outputs": [
        {
          "components": [
            {
              "internalType": "uint256",
              "name": "id",
              "type": "uint256"
            },
            {
              "internalType": "string",
              "name": "fromChain",
              "type": "string"
            },
            {
              "internalType": "string",
              "name": "sender",
              "type": "string"
            },
            {
              "internalType": "string",
              "name": "signer",
              "type": "string"
            },
            {
              "components": [
                {
                  "internalType": "uint8",
                  "name": "reveal",
                  "type": "uint8"
                }
              ],
              "internalType": "struct SQOS",
              "name": "sqos",
              "type": "tuple"
            },
            {
              "internalType": "address",
              "name": "contractAddress",
              "type": "address"
            },
            {
              "internalType": "string",
              "name": "action",
              "type": "string"
            }
          ],
          "internalType": "struct SimplifiedMessage",
          "name": "",
          "type": "tuple"
        }
      ],
      "stateMutability": "view",
      "type": "function"
    },
    {
      "inputs": [
        {
          "internalType": "string",
          "name": "_destnChainName",
          "type": "string"
        },
        {
          "internalType": "string",
          "name": "_destnContractName",
          "type": "string"
        },
        {
          "internalType": "string",
          "name": "_funcName",
          "type": "string"
        }
      ],
      "name": "getMessageABI",
      "outputs": [
        {
          "components": [
            {
              "internalType": "string",
              "name": "parametertypes",
              "type": "string"
            },
            {
              "internalType": "string",
              "name": "parameterNames",
              "type": "string"
            }
          ],
          "internalType": "struct ContractBase.MessageABI",
          "name": "",
          "type": "tuple"
        }
      ],
      "stateMutability": "view",
      "type": "function"
    },
    {
      "inputs": [
        {
          "internalType": "bytes",
          "name": "",
          "type": "bytes"
        }
      ],
      "name": "messageABIMap",
      "outputs": [
        {
          "internalType": "string",
          "name": "parametertypes",
          "type": "string"
        },
        {
          "internalType": "string",
          "name": "parameterNames",
          "type": "string"
        }
      ],
      "stateMutability": "view",
      "type": "function"
    },
    {
      "inputs": [],
      "name": "owner",
      "outputs": [
        {
          "internalType": "address",
          "name": "",
          "type": "address"
        }
      ],
      "stateMutability": "view",
      "type": "function"
    },
    {
      "inputs": [
        {
          "internalType": "string",
          "name": "",
          "type": "string"
        },
        {
          "internalType": "string",
          "name": "",
          "type": "string"
        }
      ],
      "name": "permittedContractMap",
      "outputs": [
        {
          "internalType": "string",
          "name": "",
          "type": "string"
        }
      ],
      "stateMutability": "view",
      "type": "function"
    },
    {
      "inputs": [
        {
          "internalType": "string",
          "name": "_funcName",
          "type": "string"
        },
        {
          "internalType": "string",
          "name": "_contractABI",
          "type": "string"
        }
      ],
      "name": "registerContractABI",
      "outputs": [],
      "stateMutability": "nonpayable",
      "type": "function"
    },
    {
      "inputs": [
        {
          "internalType": "string",
          "name": "_destnChainName",
          "type": "string"
        },
        {
          "internalType": "string",
          "name": "_destnContractName",
          "type": "string"
        },
        {
          "internalType": "string",
          "name": "_funcName",
          "type": "string"
        },
        {
          "internalType": "string",
          "name": "_paramType",
          "type": "string"
        },
        {
          "internalType": "string",
          "name": "_paramName",
          "type": "string"
        }
      ],
      "name": "registerMessageABI",
      "outputs": [],
      "stateMutability": "nonpayable",
      "type": "function"
    },
    {
      "inputs": [],
      "name": "renounceOwnership",
      "outputs": [],
      "stateMutability": "nonpayable",
      "type": "function"
    },
    {
      "inputs": [
        {
          "internalType": "address",
          "name": "_address",
          "type": "address"
        }
      ],
      "name": "setCrossChainContract",
      "outputs": [],
      "stateMutability": "nonpayable",
      "type": "function"
    },
    {
      "inputs": [
        {
          "internalType": "address",
          "name": "newOwner",
          "type": "address"
        }
      ],
      "name": "transferOwnership",
      "outputs": [],
      "stateMutability": "nonpayable",
      "type": "function"
    },
    {
      "inputs": [
        {
          "internalType": "string",
          "name": "chain_from",
          "type": "string"
        },
        {
          "internalType": "address",
          "name": "asset_from",
          "type": "address"
        },
        {
          "internalType": "uint256",
          "name": "amount_from",
          "type": "uint256"
        },
        {
          "internalType": "string",
          "name": "chain_to",
          "type": "string"
        },
        {
          "internalType": "address",
          "name": "asset_to",
          "type": "address"
        },
        {
          "internalType": "uint256",
          "name": "amount_to",
          "type": "uint256"
        }
      ],
      "name": "create_order",
      "outputs": [
        {
          "internalType": "bool",
          "name": "",
          "type": "bool"
        }
      ],
      "stateMutability": "nonpayable",
      "type": "function"
    },
    {
      "inputs": [
        {
          "internalType": "uint256",
          "name": "order_id",
          "type": "uint256"
        }
      ],
      "name": "query_order",
      "outputs": [],
      "stateMutability": "nonpayable",
      "type": "function"
    },
    {
      "inputs": [],
      "name": "query_all_orders",
      "outputs": [
        {
          "components": [
            {
              "internalType": "address",
              "name": "sender",
              "type": "address"
            },
            {
              "internalType": "address",
              "name": "tokenContract",
              "type": "address"
            },
            {
              "internalType": "uint256",
              "name": "amount",
              "type": "uint256"
            },
            {
              "internalType": "bytes32",
              "name": "hashlock",
              "type": "bytes32"
            },
            {
              "internalType": "uint256",
              "name": "createTime",
              "type": "uint256"
            },
            {
              "internalType": "uint256",
              "name": "timelock",
              "type": "uint256"
            },
            {
              "internalType": "bool",
              "name": "withdrawn",
              "type": "bool"
            },
            {
              "internalType": "bool",
              "name": "refunded",
              "type": "bool"
            },
            {
              "internalType": "string",
              "name": "fromChainId",
              "type": "string"
            },
            {
              "internalType": "string",
              "name": "toChainId",
              "type": "string"
            }
          ],
          "internalType": "struct Swap.Order[]",
          "name": "",
          "type": "tuple[]"
        }
      ],
      "stateMutability": "view",
      "type": "function"
    },
    {
      "inputs": [
        {
          "internalType": "string",
          "name": "chain_id",
          "type": "string"
        },
        {
          "internalType": "uint256",
          "name": "order_id",
          "type": "uint256"
        },
        {
          "internalType": "address",
          "name": "payee_address",
          "type": "address"
        },
        {
          "internalType": "address",
          "name": "asset",
          "type": "address"
        },
        {
          "internalType": "uint256",
          "name": "amount",
          "type": "uint256"
        }
      ],
      "name": "match_order",
      "outputs": [],
      "stateMutability": "nonpayable",
      "type": "function"
    },
    {
      "inputs": [
        {
          "internalType": "uint256",
          "name": "order_id",
          "type": "uint256"
        },
        {
          "internalType": "address",
          "name": "payee_address",
          "type": "address"
        },
        {
          "internalType": "address",
          "name": "from_chain_payee",
          "type": "address"
        },
        {
          "internalType": "address",
          "name": "from_chain_asset",
          "type": "address"
        },
        {
          "internalType": "uint256",
          "name": "amount",
          "type": "uint256"
        },
        {
          "internalType": "bytes32",
          "name": "hash",
          "type": "bytes32"
        }
      ],
      "name": "receive_match_order",
      "outputs": [],
      "stateMutability": "nonpayable",
      "type": "function"
    },
    {
      "inputs": [
        {
          "internalType": "uint256",
          "name": "order_id",
          "type": "uint256"
        },
        {
          "internalType": "string",
          "name": "key",
          "type": "string"
        }
      ],
      "name": "unlock_asset",
      "outputs": [],
      "stateMutability": "nonpayable",
      "type": "function"
    }
  ],
  "bytecode": "0x608060405234801561001057600080fd5b5061002161001c610026565b61002a565b61007a565b3390565b600080546001600160a01b038381166001600160a01b0319831681178455604051919092169283917f8be0079c531659141344cd1fd0a4f28419497f9722a3daafe3b4186f6b6457e09190a35050565b61212e806200008a6000396000f3fe608060405234801561001057600080fd5b50600436106101215760003560e01c806366e1f820116100ad578063bb45acd911610071578063bb45acd91461027a578063ce2312cd1461028d578063d4692703146102a0578063dbc90de1146102b3578063f2fde38b146102bb57610121565b806366e1f82014610208578063715018a61461021b57806380899bba146102235780638da5cb5b14610245578063ac95d8301461025a57610121565b8063246da888116100f4578063246da8881461017f5780632639c423146101945780632fec8099146101b55780633ad16b7a146101c85780635fe78c6c146101e857610121565b80630bec7e7c14610126578063127f0f071461013b57806318d72b54146101595780631ff05bcd1461016c575b600080fd5b610139610134366004611ae4565b6102ce565b005b6101436102d1565b6040516101509190611f27565b60405180910390f35b6101396101673660046115be565b610368565b61013961017a366004611afc565b6103d2565b6101876103da565b6040516101509190611c89565b6101a76101a2366004611612565b61063e565b604051610150929190611dd6565b6101396101c3366004611b60565b610775565b6101db6101d63660046116bf565b610779565b6040516101509190611eee565b6101fb6101f63660046118b7565b610901565b6040516101509190611dc3565b610139610216366004611657565b6109a6565b610139610a53565b610236610231366004611984565b610a9e565b60405161015093929190611e04565b61024d610bfb565b6040516101509190611c51565b61026d6102683660046118e9565b610c0a565b6040516101509190611d86565b6101fb610288366004611984565b610e75565b61013961029b36600461183e565b610eb6565b6101396102ae366004611754565b6110d8565b61024d611220565b6101396102c93660046115be565b61122f565b50565b6102d96112f1565b600360009054906101000a90046001600160a01b03166001600160a01b0316639af7a48c6040518163ffffffff1660e01b815260040160006040518083038186803b15801561032757600080fd5b505afa15801561033b573d6000803e3d6000fd5b505050506040513d6000823e601f3d908101601f1916820160405261036391908101906119e4565b905090565b61037061129d565b6001600160a01b0316610381610bfb565b6001600160a01b0316146103b05760405162461bcd60e51b81526004016103a790611eb9565b60405180910390fd5b600380546001600160a01b0319166001600160a01b0392909216919091179055565b505050505050565b6007546060906000816001600160401b0381111561040857634e487b7160e01b600052604160045260246000fd5b60405190808252806020026020018201604052801561044157816020015b61042e611334565b8152602001906001900390816104265790505b50905060005b828110156106375760008181526006602081815260409283902083516101408101855281546001600160a01b039081168252600183015416928101929092526002810154938201939093526003830154606082015260048301546080820152600583015460a08201529082015460ff808216151560c08401526101009182900416151560e08301526007830180548492840191906104e490612061565b80601f016020809104026020016040519081016040528092919081815260200182805461051090612061565b801561055d5780601f106105325761010080835404028352916020019161055d565b820191906000526020600020905b81548152906001019060200180831161054057829003601f168201915b5050505050815260200160088201805461057690612061565b80601f01602080910402602001604051908101604052809291908181526020018280546105a290612061565b80156105ef5780601f106105c4576101008083540402835291602001916105ef565b820191906000526020600020905b8154815290600101906020018083116105d257829003601f168201915b50505050508152505083838151811061061857634e487b7160e01b600052603260045260246000fd5b602002602001018190525050808061062f9061209c565b915050610447565b5091505090565b805160208183018101805160018252928201919093012091528054819061066490612061565b80601f016020809104026020016040519081016040528092919081815260200182805461069090612061565b80156106dd5780601f106106b2576101008083540402835291602001916106dd565b820191906000526020600020905b8154815290600101906020018083116106c057829003601f168201915b5050505050908060010180546106f290612061565b80601f016020809104026020016040519081016040528092919081815260200182805461071e90612061565b801561076b5780601f106107405761010080835404028352916020019161076b565b820191906000526020600020905b81548152906001019060200180831161074e57829003601f168201915b5050505050905082565b5050565b6107816113a0565b600187878787878760405160200161079e96959493929190611c1f565b60408051601f19818403018152908290526107b891611c03565b90815260200160405180910390206040518060400160405290816000820180546107e190612061565b80601f016020809104026020016040519081016040528092919081815260200182805461080d90612061565b801561085a5780601f1061082f5761010080835404028352916020019161085a565b820191906000526020600020905b81548152906001019060200180831161083d57829003601f168201915b5050505050815260200160018201805461087390612061565b80601f016020809104026020016040519081016040528092919081815260200182805461089f90612061565b80156108ec5780601f106108c1576101008083540402835291602001916108ec565b820191906000526020600020905b8154815290600101906020018083116108cf57829003601f168201915b50505050508152505090509695505050505050565b80516020818301810180516002825292820191909301209152805461092590612061565b80601f016020809104026020016040519081016040528092919081815260200182805461095190612061565b801561099e5780601f106109735761010080835404028352916020019161099e565b820191906000526020600020905b81548152906001019060200180831161098157829003601f168201915b505050505081565b6109ae61129d565b6001600160a01b03166109bf610bfb565b6001600160a01b0316146109e55760405162461bcd60e51b81526004016103a790611eb9565b6003546040516321c0551d60e11b81526001600160a01b0390911690634380aa3a90610a1b908790879087908790600401611d91565b600060405180830381600087803b158015610a3557600080fd5b505af1158015610a49573d6000803e3d6000fd5b5050505050505050565b610a5b61129d565b6001600160a01b0316610a6c610bfb565b6001600160a01b031614610a925760405162461bcd60e51b81526004016103a790611eb9565b610a9c60006112a1565b565b81516020818401810180516004825292820194820194909420919093528151808301840180519281529084019290930191909120915280548190610ae190612061565b80601f0160208091040260200160405190810160405280929190818152602001828054610b0d90612061565b8015610b5a5780601f10610b2f57610100808354040283529160200191610b5a565b820191906000526020600020905b815481529060010190602001808311610b3d57829003601f168201915b505050505090806001018054610b6f90612061565b80601f0160208091040260200160405190810160405280929190818152602001828054610b9b90612061565b8015610be85780601f10610bbd57610100808354040283529160200191610be8565b820191906000526020600020905b815481529060010190602001808311610bcb57829003601f168201915b5050506002909301549192505060ff1683565b6000546001600160a01b031690565b600080866001600160a01b03166323b872dd3330896040518463ffffffff1660e01b8152600401610c3d93929190611c65565b602060405180830381600087803b158015610c5757600080fd5b505af1158015610c6b573d6000803e3d6000fd5b505050506040513d601f19601f82011682018060405250810190610c8f91906115da565b905080610cae5760405162461bcd60e51b81526004016103a790611e82565b604051806101400160405280336001600160a01b03168152602001886001600160a01b0316815260200187815260200160026000604051602001610cf29190611c48565b60408051601f1981840301815290829052610d0c91611c03565b602060405180830381855afa158015610d29573d6000803e3d6000fd5b5050506040513d601f19601f82011682018060405250810190610d4c91906115fa565b815260200142815260200142610e10610d659190612019565b815260006020808301829052604080840183905260608085018e905260809485018b9052600780548552600680855294839020875181546001600160a01b03199081166001600160a01b0392831617835589870151600184018054909216921691909117905592870151600284015590860151600383015593850151600482015560a0850151600582015560c0850151928101805460e087015160ff199091169415159490941761ff00191661010094151585021790559184015180519293610e36939085019291909101906113ba565b506101208201518051610e539160088401916020909101906113ba565b5050600754610e6491506001612019565b600755506001979650505050505050565b815160208184018101805160058252928201948201949094209190935281518083018401805192815290840192909301919091209152805461092590612061565b6040516323b872dd60e01b81526000906001600160a01b038416906323b872dd90610ee990339030908790600401611c65565b602060405180830381600087803b158015610f0357600080fd5b505af1158015610f17573d6000803e3d6000fd5b505050506040513d601f19601f82011682018060405250810190610f3b91906115da565b905080610f5a5760405162461bcd60e51b81526004016103a790611e82565b604051806101000160405280336001600160a01b03168152602001846001600160a01b0316815260200183815260200160026000604051602001610f9e9190611c48565b60408051601f1981840301815290829052610fb891611c03565b602060405180830381855afa158015610fd5573d6000803e3d6000fd5b5050506040513d601f19601f82011682018060405250810190610ff891906115fa565b815260200142815260200142610e106110119190612019565b815260006020808301829052604092830182905260075482526008815290829020835181546001600160a01b039182166001600160a01b031991821617835592850151600183810180549290931691909416179055918301516002830155606083015160038301556080830151600483015560a0830151600583015560c08301516006909201805460e09094015115156101000261ff001993151560ff1990951694909417929092169290921790556009546110cc91612019565b60095550505050505050565b6110e061129d565b6001600160a01b03166110f1610bfb565b6001600160a01b0316146111175760405162461bcd60e51b81526004016103a790611eb9565b6040805160606020601f8701819004028201810183529181018581526000928291908890889081908501838280828437600092019190915250505090825250604080516020601f870181900481028201810190925285815291810191908690869081908401838280828437600092019190915250505091525060405190915081906001906111b3908e908e908e908e908e908e90602001611c1f565b60408051601f19818403018152908290526111cd91611c03565b908152602001604051809103902060008201518160000190805190602001906111f79291906113ba565b50602082810151805161121092600185019201906113ba565b5050505050505050505050505050565b6003546001600160a01b031681565b61123761129d565b6001600160a01b0316611248610bfb565b6001600160a01b03161461126e5760405162461bcd60e51b81526004016103a790611eb9565b6001600160a01b0381166112945760405162461bcd60e51b81526004016103a790611e3c565b6102ce816112a1565b3390565b600080546001600160a01b038381166001600160a01b0319831681178455604051919092169283917f8be0079c531659141344cd1fd0a4f28419497f9722a3daafe3b4186f6b6457e09190a35050565b6040518060e001604052806000815260200160608152602001606081526020016060815260200161132061143e565b815260006020820152606060409091015290565b60405180610140016040528060006001600160a01b0316815260200160006001600160a01b031681526020016000815260200160008019168152602001600081526020016000815260200160001515815260200160001515815260200160608152602001606081525090565b604051806040016040528060608152602001606081525090565b8280546113c690612061565b90600052602060002090601f0160209004810192826113e8576000855561142e565b82601f1061140157805160ff191683800117855561142e565b8280016001018555821561142e579182015b8281111561142e578251825591602001919060010190611413565b5061143a929150611450565b5090565b60408051602081019091526000815290565b5b8082111561143a5760008155600101611451565b600061147861147384611ff2565b611fc9565b905082815283838301111561148c57600080fd5b828260208301376000602084830101529392505050565b80516114ae816120e3565b919050565b60008083601f8401126114c4578182fd5b5081356001600160401b038111156114da578182fd5b6020830191508360208285010111156114f257600080fd5b9250929050565b600082601f830112611509578081fd5b61151883833560208501611465565b9392505050565b600082601f83011261152f578081fd5b815161153d61147382611ff2565b818152846020838601011115611551578283fd5b611562826020830160208701612031565b949350505050565b60006020828403121561157b578081fd5b604051602081018181106001600160401b038211171561159d5761159d6120cd565b8060405250809150825160ff811681146115b657600080fd5b905292915050565b6000602082840312156115cf578081fd5b8135611518816120e3565b6000602082840312156115eb578081fd5b81518015158114611518578182fd5b60006020828403121561160b578081fd5b5051919050565b600060208284031215611623578081fd5b81356001600160401b03811115611638578182fd5b8201601f81018413611648578182fd5b61156284823560208401611465565b6000806000806040858703121561166c578283fd5b84356001600160401b0380821115611682578485fd5b61168e888389016114b3565b909650945060208701359150808211156116a6578384fd5b506116b3878288016114b3565b95989497509550505050565b600080600080600080606087890312156116d7578182fd5b86356001600160401b03808211156116ed578384fd5b6116f98a838b016114b3565b90985096506020890135915080821115611711578384fd5b61171d8a838b016114b3565b90965094506040890135915080821115611735578384fd5b5061174289828a016114b3565b979a9699509497509295939492505050565b60008060008060008060008060008060a08b8d031215611772578384fd5b8a356001600160401b0380821115611788578586fd5b6117948e838f016114b3565b909c509a5060208d01359150808211156117ac578586fd5b6117b88e838f016114b3565b909a50985060408d01359150808211156117d0578586fd5b6117dc8e838f016114b3565b909850965060608d01359150808211156117f4578586fd5b6118008e838f016114b3565b909650945060808d0135915080821115611818578384fd5b506118258d828e016114b3565b915080935050809150509295989b9194979a5092959850565b60008060008060008060a08789031215611856578384fd5b86356001600160401b0381111561186b578485fd5b61187789828a016114b3565b909750955050602087013593506040870135611892816120e3565b925060608701356118a2816120e3565b80925050608087013590509295509295509295565b6000602082840312156118c8578081fd5b81356001600160401b038111156118dd578182fd5b611562848285016114f9565b60008060008060008060c08789031215611901578384fd5b86356001600160401b0380821115611917578586fd5b6119238a838b016114f9565b975060208901359150611935826120e3565b9095506040880135945060608801359080821115611951578384fd5b5061195e89828a016114f9565b935050608087013561196f816120e3565b8092505060a087013590509295509295509295565b60008060408385031215611996578182fd5b82356001600160401b03808211156119ac578384fd5b6119b8868387016114f9565b935060208501359150808211156119cd578283fd5b506119da858286016114f9565b9150509250929050565b6000602082840312156119f5578081fd5b81516001600160401b0380821115611a0b578283fd5b9083019060e08286031215611a1e578283fd5b611a2860e0611fc9565b82518152602083015182811115611a3d578485fd5b611a498782860161151f565b602083015250604083015182811115611a60578485fd5b611a6c8782860161151f565b604083015250606083015182811115611a83578485fd5b611a8f8782860161151f565b606083015250611aa2866080850161156a565b6080820152611ab360a084016114a3565b60a082015260c083015182811115611ac9578485fd5b611ad58782860161151f565b60c08301525095945050505050565b600060208284031215611af5578081fd5b5035919050565b60008060008060008060c08789031215611b14578384fd5b863595506020870135611b26816120e3565b94506040870135611b36816120e3565b93506060870135611b46816120e3565b9598949750929560808101359460a0909101359350915050565b60008060408385031215611b72578182fd5b8235915060208301356001600160401b03811115611b8e578182fd5b6119da858286016114f9565b6001600160a01b03169052565b15159052565b60008284528282602086013780602084860101526020601f19601f85011685010190509392505050565b60008151808452611bef816020860160208601612031565b601f01601f19169290920160200192915050565b60008251611c15818460208701612031565b9190910192915050565b600086888337868201818152858782378501818152838582379092019182525095945050505050565b90815260200190565b6001600160a01b0391909116815260200190565b6001600160a01b039384168152919092166020820152604081019190915260600190565b60208082528251828201819052600091906040908185019080840286018301878501865b83811015611d7857603f198984030185528151610140611cce858351611b9a565b88820151611cde8a870182611b9a565b508188015185890152606080830151908601526080808301519086015260a0808301519086015260c080830151611d1782880182611ba7565b505060e080830151611d2b82880182611ba7565b5050610100808301518282880152611d4583880182611bd7565b925050506101208083015192508582038187015250611d648183611bd7565b968901969450505090860190600101611cad565b509098975050505050505050565b901515815260200190565b600060408252611da5604083018688611bad565b8281036020840152611db8818587611bad565b979650505050505050565b6000602082526115186020830184611bd7565b600060408252611de96040830185611bd7565b8281036020840152611dfb8185611bd7565b95945050505050565b600060608252611e176060830186611bd7565b8281036020840152611e298186611bd7565b9150508215156040830152949350505050565b60208082526026908201527f4f776e61626c653a206e6577206f776e657220697320746865207a65726f206160408201526564647265737360d01b606082015260800190565b60208082526017908201527f74726e617366657220746f2073776170206661696c6564000000000000000000604082015260600190565b6020808252818101527f4f776e61626c653a2063616c6c6572206973206e6f7420746865206f776e6572604082015260600190565b600060208252825160406020840152611f0a6060840182611bd7565b90506020840151601f19848303016040850152611dfb8282611bd7565b60006020825282516020830152602083015160e06040840152611f4e610100840182611bd7565b90506040840151601f1980858403016060860152611f6c8383611bd7565b92506060860151915080858403016080860152611f898383611bd7565b925060ff6080870151511660a086015260a08601519150611fad60c0860183611b9a565b60c08601519150808584030160e086015250611dfb8282611bd7565b6040518181016001600160401b0381118282101715611fea57611fea6120cd565b604052919050565b60006001600160401b0382111561200b5761200b6120cd565b50601f01601f191660200190565b6000821982111561202c5761202c6120b7565b500190565b60005b8381101561204c578181015183820152602001612034565b8381111561205b576000848401525b50505050565b60028104600182168061207557607f821691505b6020821081141561209657634e487b7160e01b600052602260045260246000fd5b50919050565b60006000198214156120b0576120b06120b7565b5060010190565b634e487b7160e01b600052601160045260246000fd5b634e487b7160e01b600052604160045260246000fd5b6001600160a01b03811681146102ce57600080fdfea264697066735822122082b649647a00b718810781b8a032496a8b200d630ed54d8c5bfb3bd0494c344964736f6c63430008000033",
  "immutableReferences": {},
  "source": "// SPDX-License-Identifier: MIT\npragma solidity 0.8.0;\n\nimport \"@openzeppelin/contracts/token/ERC20/IERC20.sol\";\nimport \"./CrossChain/ContractBase.sol\";\n\n contract Swap is ContractBase {\n    // Destination contract info\n    struct DestnContract {\n        string contractAddress; // destination contract address\n        string funcName; // destination contract action name\n        bool used;\n    }\n\n    struct Order {\n        address sender;\n        address tokenContract;\n        uint256 amount;\n        bytes32 hashlock;\n        uint256 createTime;\n        uint256 timelock; // locked UNTIL this time.\n        bool withdrawn;\n        bool refunded;\n        string fromChainId;\n        string toChainId;\n    }\n\n    struct OrderFill {\n        address sender;\n        address tokenContract;\n        uint256 amount;\n        bytes32 hashlock;\n        uint256 createTime;\n        uint256 timelock; // locked UNTIL this time.\n        bool withdrawn;\n        bool refunded;\n    }\n\n    // Cross-chain destination contract map\n    mapping(string => mapping(string => DestnContract)) public destnContractMap;\n\n    // Cross-chain permitted contract map\n    mapping(string => mapping(string => string)) public permittedContractMap;\n\n    mapping(uint256 => Order) private idToOrder;\n    uint256 _orderIds;\n\n    mapping(uint256 => OrderFill) private idToFillOrder;\n    uint256 _fillOrderIds;\n\n    constructor() public{\n        \n    }\n\n    function create_order(string memory chain_from, address asset_from, uint256 amount_from, string memory chain_to, address asset_to, uint amount_to) public returns (bool) {\n        bool ret =  IERC20(asset_from).transferFrom(msg.sender, address(this), amount_from);\n        require(ret, \"trnasfer to swap failed\");\n        idToOrder[_orderIds] = Order(msg.sender, asset_from, amount_from, sha256(abi.encodePacked(uint(0))), block.timestamp, block.timestamp+ 3600, false, false, chain_from, chain_to);\n        _orderIds = _orderIds + 1;\n        return true;\n    }\n\n    function query_order(uint order_id) public{\n\n    }\n     \n    function query_all_orders() public view returns(Order[] memory){\n        uint256 orderCount = _orderIds;\n        Order[] memory orders = new Order[](orderCount);\n        for (uint256 i = 0;i < orderCount; i++){\n            Order storage order = idToOrder[i];\n            orders[i] = order;\n        }\n        return orders;\n    }\n\n    function match_order(string calldata chain_id, uint256 order_id, address payee_address, address asset, uint amount) public{\n        bool ret = IERC20(asset).transferFrom(msg.sender, address(this), amount);\n        require(ret, \"trnasfer to swap failed\");\n        idToFillOrder[_orderIds] = OrderFill(msg.sender, asset, amount,  sha256(abi.encodePacked(uint(0))), block.timestamp, block.timestamp+ 3600, false, false);\n        _fillOrderIds = _fillOrderIds + 1;\n\n       \n        // mapping(string => DestnContract) storage map = destnContractMap[chain_id];\n        // DestnContract storage destnContract = map[\"receive_match_order\"];\n        // require(destnContract.used, \"action not registered\");\n\n        // bytes memory data = abi.encode(chain_id, order_id);\n        // SQOS memory sqos = SQOS(1);\n        // crossChainContract.sendMessage(\n        //     chain_id,\n        //     destnContract.contractAddress,\n        //     destnContract.funcName,\n        //     sqos,\n        //     data\n        // );\n    }\n\n    function receive_match_order(uint order_id, address payee_address, address from_chain_payee, address from_chain_asset, uint amount, bytes32 hash) public {\n    }\n\n    function unlock_asset(uint order_id, string memory key) public{\n    }\n}",
  "sourcePath": "/Users/fsy412/code/Demo-Swap/contracts/Swap.sol",
  "compiler": {
    "name": "solc",
    "version": "0.8.0+commit.c7dfd78e.Emscripten.clang"
  },
  "schemaVersion": "3.4.6",
  "updatedAt": "2022-04-08T02:43:25.062Z",
  "devdoc": {
    "kind": "dev",
    "methods": {
      "getMessageABI(string,string,string)": {
        "params": {
          "_destnChainName": "- destination chain name",
          "_destnContractName": "- destination contract name",
          "_funcName": "- destination contract function name"
        }
      },
      "owner()": {
        "details": "Returns the address of the current owner."
      },
      "registerContractABI(string,string)": {
        "params": {
          "_contractABI": "- contract action abi",
          "_funcName": "- contract action name"
        }
      },
      "registerMessageABI(string,string,string,string,string)": {
        "params": {
          "_destnChainName": "- destination chain name",
          "_destnContractName": "- destination contract name",
          "_funcName": "- destination contract function name",
          "_paramName": "- action param name",
          "_paramType": "- action param types"
        }
      },
      "renounceOwnership()": {
        "details": "Leaves the contract without owner. It will not be possible to call `onlyOwner` functions anymore. Can only be called by the current owner. NOTE: Renouncing ownership will leave the contract without an owner, thereby removing any functionality that is only available to the owner."
      },
      "setCrossChainContract(address)": {
        "params": {
          "_address": "- cross chain contract address"
        }
      },
      "transferOwnership(address)": {
        "details": "Transfers ownership of the contract to a new account (`newOwner`). Can only be called by the current owner."
      }
    },
    "version": 1
  },
  "userdoc": {
    "kind": "user",
    "methods": {
      "getMessageABI(string,string,string)": {
        "notice": "Get Registered message ABI to encode/decode message"
      },
      "registerContractABI(string,string)": {
        "notice": "contract ABI used to encode/decode messages sent to this contract"
      },
      "registerMessageABI(string,string,string,string,string)": {
        "notice": "message ABI used to encode/decode messages sent from this contract"
      },
      "setCrossChainContract(address)": {
        "notice": "Set cross chain contract"
      }
    },
    "version": 1
  }
}