{
  "contractName": "Swap",
  "abi": [
    {
      "inputs": [],
      "stateMutability": "nonpayable",
      "type": "constructor"
    },
    {
      "anonymous": false,
      "inputs": [
        {
          "indexed": true,
          "internalType": "address",
          "name": "previousOwner",
          "type": "address"
        },
        {
          "indexed": true,
          "internalType": "address",
          "name": "newOwner",
          "type": "address"
        }
      ],
      "name": "OwnershipTransferred",
      "type": "event"
    },
    {
      "inputs": [
        {
          "internalType": "string",
          "name": "",
          "type": "string"
        }
      ],
      "name": "contractABIMap",
      "outputs": [
        {
          "internalType": "string",
          "name": "",
          "type": "string"
        }
      ],
      "stateMutability": "view",
      "type": "function"
    },
    {
      "inputs": [],
      "name": "crossChainContract",
      "outputs": [
        {
          "internalType": "contract ICrossChain",
          "name": "",
          "type": "address"
        }
      ],
      "stateMutability": "view",
      "type": "function"
    },
    {
      "inputs": [
        {
          "internalType": "string",
          "name": "",
          "type": "string"
        },
        {
          "internalType": "string",
          "name": "",
          "type": "string"
        }
      ],
      "name": "destnContractMap",
      "outputs": [
        {
          "internalType": "string",
          "name": "contractAddress",
          "type": "string"
        },
        {
          "internalType": "string",
          "name": "funcName",
          "type": "string"
        },
        {
          "internalType": "bool",
          "name": "used",
          "type": "bool"
        }
      ],
      "stateMutability": "view",
      "type": "function"
    },
    {
      "inputs": [],
      "name": "getContext",
      "outputs": [
        {
          "components": [
            {
              "internalType": "uint256",
              "name": "id",
              "type": "uint256"
            },
            {
              "internalType": "string",
              "name": "fromChain",
              "type": "string"
            },
            {
              "internalType": "string",
              "name": "sender",
              "type": "string"
            },
            {
              "internalType": "string",
              "name": "signer",
              "type": "string"
            },
            {
              "components": [
                {
                  "internalType": "uint8",
                  "name": "reveal",
                  "type": "uint8"
                }
              ],
              "internalType": "struct SQOS",
              "name": "sqos",
              "type": "tuple"
            },
            {
              "internalType": "address",
              "name": "contractAddress",
              "type": "address"
            },
            {
              "internalType": "string",
              "name": "action",
              "type": "string"
            }
          ],
          "internalType": "struct SimplifiedMessage",
          "name": "",
          "type": "tuple"
        }
      ],
      "stateMutability": "view",
      "type": "function"
    },
    {
      "inputs": [
        {
          "internalType": "string",
          "name": "_destnChainName",
          "type": "string"
        },
        {
          "internalType": "string",
          "name": "_destnContractName",
          "type": "string"
        },
        {
          "internalType": "string",
          "name": "_funcName",
          "type": "string"
        }
      ],
      "name": "getMessageABI",
      "outputs": [
        {
          "components": [
            {
              "internalType": "string",
              "name": "parametertypes",
              "type": "string"
            },
            {
              "internalType": "string",
              "name": "parameterNames",
              "type": "string"
            }
          ],
          "internalType": "struct ContractBase.MessageABI",
          "name": "",
          "type": "tuple"
        }
      ],
      "stateMutability": "view",
      "type": "function"
    },
    {
      "inputs": [
        {
          "internalType": "uint256",
          "name": "",
          "type": "uint256"
        }
      ],
      "name": "idToFillOrder",
      "outputs": [
        {
          "internalType": "uint256",
          "name": "orderId",
          "type": "uint256"
        },
        {
          "internalType": "address",
          "name": "sender",
          "type": "address"
        },
        {
          "internalType": "address",
          "name": "tokenContract",
          "type": "address"
        },
        {
          "internalType": "uint256",
          "name": "amount",
          "type": "uint256"
        },
        {
          "internalType": "bytes32",
          "name": "hashlock",
          "type": "bytes32"
        },
        {
          "internalType": "uint256",
          "name": "createTime",
          "type": "uint256"
        },
        {
          "internalType": "uint256",
          "name": "timelock",
          "type": "uint256"
        },
        {
          "internalType": "bool",
          "name": "withdrawn",
          "type": "bool"
        },
        {
          "internalType": "bool",
          "name": "refunded",
          "type": "bool"
        }
      ],
      "stateMutability": "view",
      "type": "function"
    },
    {
      "inputs": [
        {
          "internalType": "uint256",
          "name": "",
          "type": "uint256"
        }
      ],
      "name": "idToOrder",
      "outputs": [
        {
          "internalType": "uint256",
          "name": "orderId",
          "type": "uint256"
        },
        {
          "internalType": "address",
          "name": "sender",
          "type": "address"
        },
        {
          "internalType": "address",
          "name": "tokenContract",
          "type": "address"
        },
        {
          "internalType": "uint256",
          "name": "amount",
          "type": "uint256"
        },
        {
          "internalType": "bytes32",
          "name": "hashlock",
          "type": "bytes32"
        },
        {
          "internalType": "uint256",
          "name": "createTime",
          "type": "uint256"
        },
        {
          "internalType": "uint256",
          "name": "timelock",
          "type": "uint256"
        },
        {
          "internalType": "bool",
          "name": "withdrawn",
          "type": "bool"
        },
        {
          "internalType": "bool",
          "name": "refunded",
          "type": "bool"
        },
        {
          "internalType": "string",
          "name": "fromChainId",
          "type": "string"
        },
        {
          "internalType": "string",
          "name": "toChainId",
          "type": "string"
        },
        {
          "internalType": "bool",
          "name": "filled",
          "type": "bool"
        }
      ],
      "stateMutability": "view",
      "type": "function"
    },
    {
      "inputs": [
        {
          "internalType": "bytes",
          "name": "",
          "type": "bytes"
        }
      ],
      "name": "messageABIMap",
      "outputs": [
        {
          "internalType": "string",
          "name": "parametertypes",
          "type": "string"
        },
        {
          "internalType": "string",
          "name": "parameterNames",
          "type": "string"
        }
      ],
      "stateMutability": "view",
      "type": "function"
    },
    {
      "inputs": [],
      "name": "owner",
      "outputs": [
        {
          "internalType": "address",
          "name": "",
          "type": "address"
        }
      ],
      "stateMutability": "view",
      "type": "function"
    },
    {
      "inputs": [
        {
          "internalType": "string",
          "name": "",
          "type": "string"
        },
        {
          "internalType": "string",
          "name": "",
          "type": "string"
        }
      ],
      "name": "permittedContractMap",
      "outputs": [
        {
          "internalType": "string",
          "name": "",
          "type": "string"
        }
      ],
      "stateMutability": "view",
      "type": "function"
    },
    {
      "inputs": [
        {
          "internalType": "string",
          "name": "_funcName",
          "type": "string"
        },
        {
          "internalType": "string",
          "name": "_contractABI",
          "type": "string"
        }
      ],
      "name": "registerContractABI",
      "outputs": [],
      "stateMutability": "nonpayable",
      "type": "function"
    },
    {
      "inputs": [
        {
          "internalType": "string",
          "name": "_destnChainName",
          "type": "string"
        },
        {
          "internalType": "string",
          "name": "_destnContractName",
          "type": "string"
        },
        {
          "internalType": "string",
          "name": "_funcName",
          "type": "string"
        },
        {
          "internalType": "string",
          "name": "_paramType",
          "type": "string"
        },
        {
          "internalType": "string",
          "name": "_paramName",
          "type": "string"
        }
      ],
      "name": "registerMessageABI",
      "outputs": [],
      "stateMutability": "nonpayable",
      "type": "function"
    },
    {
      "inputs": [],
      "name": "renounceOwnership",
      "outputs": [],
      "stateMutability": "nonpayable",
      "type": "function"
    },
    {
      "inputs": [
        {
          "internalType": "address",
          "name": "_address",
          "type": "address"
        }
      ],
      "name": "setCrossChainContract",
      "outputs": [],
      "stateMutability": "nonpayable",
      "type": "function"
    },
    {
      "inputs": [
        {
          "internalType": "address",
          "name": "newOwner",
          "type": "address"
        }
      ],
      "name": "transferOwnership",
      "outputs": [],
      "stateMutability": "nonpayable",
      "type": "function"
    },
    {
      "inputs": [
        {
          "internalType": "string",
          "name": "chain_from",
          "type": "string"
        },
        {
          "internalType": "address",
          "name": "asset_from",
          "type": "address"
        },
        {
          "internalType": "uint256",
          "name": "amount_from",
          "type": "uint256"
        },
        {
          "internalType": "string",
          "name": "chain_to",
          "type": "string"
        },
        {
          "internalType": "address",
          "name": "asset_to",
          "type": "address"
        },
        {
          "internalType": "uint256",
          "name": "amount_to",
          "type": "uint256"
        }
      ],
      "name": "create_order",
      "outputs": [
        {
          "internalType": "bool",
          "name": "",
          "type": "bool"
        }
      ],
      "stateMutability": "nonpayable",
      "type": "function"
    },
    {
      "inputs": [
        {
          "internalType": "uint256",
          "name": "order_id",
          "type": "uint256"
        }
      ],
      "name": "query_order",
      "outputs": [],
      "stateMutability": "nonpayable",
      "type": "function"
    },
    {
      "inputs": [],
      "name": "query_all_orders",
      "outputs": [
        {
          "components": [
            {
              "internalType": "uint256",
              "name": "orderId",
              "type": "uint256"
            },
            {
              "internalType": "address",
              "name": "sender",
              "type": "address"
            },
            {
              "internalType": "address",
              "name": "tokenContract",
              "type": "address"
            },
            {
              "internalType": "uint256",
              "name": "amount",
              "type": "uint256"
            },
            {
              "internalType": "bytes32",
              "name": "hashlock",
              "type": "bytes32"
            },
            {
              "internalType": "uint256",
              "name": "createTime",
              "type": "uint256"
            },
            {
              "internalType": "uint256",
              "name": "timelock",
              "type": "uint256"
            },
            {
              "internalType": "bool",
              "name": "withdrawn",
              "type": "bool"
            },
            {
              "internalType": "bool",
              "name": "refunded",
              "type": "bool"
            },
            {
              "internalType": "string",
              "name": "fromChainId",
              "type": "string"
            },
            {
              "internalType": "string",
              "name": "toChainId",
              "type": "string"
            },
            {
              "internalType": "bool",
              "name": "filled",
              "type": "bool"
            }
          ],
          "internalType": "struct Swap.Order[]",
          "name": "",
          "type": "tuple[]"
        }
      ],
      "stateMutability": "view",
      "type": "function"
    },
    {
      "inputs": [
        {
          "internalType": "string",
          "name": "chain_id",
          "type": "string"
        },
        {
          "internalType": "uint256",
          "name": "order_id",
          "type": "uint256"
        },
        {
          "internalType": "address",
          "name": "asset",
          "type": "address"
        },
        {
          "internalType": "uint256",
          "name": "amount",
          "type": "uint256"
        }
      ],
      "name": "match_order",
      "outputs": [],
      "stateMutability": "nonpayable",
      "type": "function"
    },
    {
      "inputs": [
        {
          "internalType": "uint256",
          "name": "order_id",
          "type": "uint256"
        },
        {
          "internalType": "address",
          "name": "payee_address",
          "type": "address"
        },
        {
          "internalType": "address",
          "name": "from_chain_payee",
          "type": "address"
        },
        {
          "internalType": "address",
          "name": "from_chain_asset",
          "type": "address"
        },
        {
          "internalType": "uint256",
          "name": "amount",
          "type": "uint256"
        },
        {
          "internalType": "bytes32",
          "name": "hash",
          "type": "bytes32"
        }
      ],
      "name": "receive_match_order",
      "outputs": [],
      "stateMutability": "nonpayable",
      "type": "function"
    },
    {
      "inputs": [
        {
          "internalType": "uint256",
          "name": "order_id",
          "type": "uint256"
        },
        {
          "internalType": "string",
          "name": "key",
          "type": "string"
        }
      ],
      "name": "unlock_asset",
      "outputs": [],
      "stateMutability": "nonpayable",
      "type": "function"
    },
    {
      "inputs": [
        {
          "internalType": "string",
          "name": "_funcName",
          "type": "string"
        },
        {
          "internalType": "string",
          "name": "_toChain",
          "type": "string"
        },
        {
          "internalType": "string",
          "name": "_contractAddress",
          "type": "string"
        },
        {
          "internalType": "string",
          "name": "_contractFuncName",
          "type": "string"
        }
      ],
      "name": "registerDestnContract",
      "outputs": [],
      "stateMutability": "nonpayable",
      "type": "function"
    }
  ],
  "bytecode": "0x60806040523480156200001157600080fd5b5062000026620000206200002c565b62000030565b62000080565b3390565b600080546001600160a01b038381166001600160a01b0319831681178455604051919092169283917f8be0079c531659141344cd1fd0a4f28419497f9722a3daafe3b4186f6b6457e09190a35050565b612a1380620000906000396000f3fe608060405234801561001057600080fd5b50600436106101425760003560e01c8063709d2d75116100b8578063ac95d8301161007c578063ac95d830146102e1578063babe5dd614610301578063bb45acd914610314578063d469270314610327578063dbc90de11461033a578063f2fde38b1461034257610142565b8063709d2d7514610264578063715018a61461027757806380899bba1461027f5780638da5cb5b146102a15780638f1ec88f146102b657610142565b80632639c4231161010a5780632639c423146101b55780632fec8099146101d65780633ad16b7a146101e95780633b6c9e26146102095780635fe78c6c1461023157806366e1f8201461025157610142565b80630bec7e7c14610147578063127f0f071461015c57806318d72b541461017a5780631ff05bcd1461018d578063246da888146101a0575b600080fd5b61015a61015536600461210e565b610355565b005b610164610358565b60405161017191906126f1565b60405180910390f35b61015a610188366004611b3f565b6103ef565b61015a61019b366004612126565b610459565b6101a861050e565b604051610171919061239c565b6101c86101c3366004611b93565b610792565b604051610171929190612571565b61015a6101e436600461218a565b6108c9565b6101fc6101f7366004611c40565b6108cd565b60405161017191906126b8565b61021c61021736600461210e565b610a55565b604051610171999897969594939291906127c2565b61024461023f366004611ee1565b610ab1565b604051610171919061255e565b61015a61025f366004611bd8565b610b56565b61015a610272366004611e7d565b610c03565b61015a610f0d565b61029261028d366004611fae565b610f58565b6040516101719392919061259f565b6102a96110b5565b604051610171919061234b565b6102c96102c436600461210e565b6110c4565b6040516101719c9b9a9998979695949392919061280f565b6102f46102ef366004611f13565b61124d565b60405161017191906124bc565b61015a61030f366004611cd5565b6114f2565b610244610322366004611fae565b6115ad565b61015a610335366004611d93565b6115ee565b6102a9611736565b61015a610350366004611b3f565b611745565b50565b610360611807565b600360009054906101000a90046001600160a01b03166001600160a01b0316639af7a48c6040518163ffffffff1660e01b815260040160006040518083038186803b1580156103ae57600080fd5b505afa1580156103c2573d6000803e3d6000fd5b505050506040513d6000823e601f3d908101601f191682016040526103ea919081019061200e565b905090565b6103f76117b3565b6001600160a01b03166104086110b5565b6001600160a01b0316146104375760405162461bcd60e51b815260040161042e9061261d565b60405180910390fd5b600380546001600160a01b0319166001600160a01b0392909216919091179055565b600086815260066020526040808220600a8101805460ff1916600117905560028101546003820154925163a9059cbb60e01b81529193926001600160a01b039091169163a9059cbb916104b1918b9190600401612383565b602060405180830381600087803b1580156104cb57600080fd5b505af11580156104df573d6000803e3d6000fd5b505050506040513d601f19601f820116820180604052508101906105039190611b5b565b505050505050505050565b6007546060906000816001600160401b0381111561053c57634e487b7160e01b600052604160045260246000fd5b60405190808252806020026020018201604052801561057557816020015b61056261184a565b81526020019060019003908161055a5790505b50905060005b8281101561078b576000818152600660208181526040928390208351610180810185528154815260018201546001600160a01b03908116938201939093526002820154909216938201939093526003830154606082015260048301546080820152600583015460a08201529082015460c0820152600782015460ff808216151560e08401526101009182900416151590820152600882018054839161012084019161062590612946565b80601f016020809104026020016040519081016040528092919081815260200182805461065190612946565b801561069e5780601f106106735761010080835404028352916020019161069e565b820191906000526020600020905b81548152906001019060200180831161068157829003601f168201915b505050505081526020016009820180546106b790612946565b80601f01602080910402602001604051908101604052809291908181526020018280546106e390612946565b80156107305780601f1061070557610100808354040283529160200191610730565b820191906000526020600020905b81548152906001019060200180831161071357829003601f168201915b5050509183525050600a919091015460ff161515602090910152835184908490811061076c57634e487b7160e01b600052603260045260246000fd5b602002602001018190525050808061078390612981565b91505061057b565b5091505090565b80516020818301810180516001825292820191909301209152805481906107b890612946565b80601f01602080910402602001604051908101604052809291908181526020018280546107e490612946565b80156108315780601f1061080657610100808354040283529160200191610831565b820191906000526020600020905b81548152906001019060200180831161081457829003601f168201915b50505050509080600101805461084690612946565b80601f016020809104026020016040519081016040528092919081815260200182805461087290612946565b80156108bf5780601f10610894576101008083540402835291602001916108bf565b820191906000526020600020905b8154815290600101906020018083116108a257829003601f168201915b5050505050905082565b5050565b6108d56118ad565b60018787878787876040516020016108f2969594939291906122fa565b60408051601f198184030181529082905261090c916122ce565b908152602001604051809103902060405180604001604052908160008201805461093590612946565b80601f016020809104026020016040519081016040528092919081815260200182805461096190612946565b80156109ae5780601f10610983576101008083540402835291602001916109ae565b820191906000526020600020905b81548152906001019060200180831161099157829003601f168201915b505050505081526020016001820180546109c790612946565b80601f01602080910402602001604051908101604052809291908181526020018280546109f390612946565b8015610a405780601f10610a1557610100808354040283529160200191610a40565b820191906000526020600020905b815481529060010190602001808311610a2357829003601f168201915b50505050508152505090509695505050505050565b6008602052600090815260409020805460018201546002830154600384015460048501546005860154600687015460079097015495966001600160a01b0395861696949095169492939192909160ff8082169161010090041689565b805160208183018101805160028252928201919093012091528054610ad590612946565b80601f0160208091040260200160405190810160405280929190818152602001828054610b0190612946565b8015610b4e5780601f10610b2357610100808354040283529160200191610b4e565b820191906000526020600020905b815481529060010190602001808311610b3157829003601f168201915b505050505081565b610b5e6117b3565b6001600160a01b0316610b6f6110b5565b6001600160a01b031614610b955760405162461bcd60e51b815260040161042e9061261d565b6003546040516321c0551d60e11b81526001600160a01b0390911690634380aa3a90610bcb9087908790879087906004016124c7565b600060405180830381600087803b158015610be557600080fd5b505af1158015610bf9573d6000803e3d6000fd5b5050505050505050565b604051806101200160405280848152602001336001600160a01b03168152602001836001600160a01b0316815260200182815260200160026000604051602001610c4d9190612342565b60408051601f1981840301815290829052610c67916122ce565b602060405180830381855afa158015610c84573d6000803e3d6000fd5b5050506040513d601f19601f82011682018060405250810190610ca79190611b7b565b815260200142815260200142610e10610cc091906128fe565b815260006020808301829052604092830182905260098054835260088252918390208451815590840151600180830180546001600160a01b03199081166001600160a01b039485161790915594860151600284018054909616921691909117909355606084015160038201556080840151600482015560a0840151600582015560c0840151600682015560e0840151600790910180546101009586015160ff199091169215159290921761ff001916911515909402179092559054610d84916128fe565b600955604051600090600490610d9d90889088906122ea565b90815260200160405180910390209050600081604051610dbc90612323565b908152604051908190036020019020600281015490915060ff16610df25760405162461bcd60e51b815260040161042e90612652565b60008533868660026000604051602001610e0c9190612342565b60408051601f1981840301815290829052610e26916122ce565b602060405180830381855afa158015610e43573d6000803e3d6000fd5b5050506040513d601f19601f82011682018060405250810190610e669190611b7b565b604051602001610e7a959493929190612793565b60408051601f198184030181526020830182526001808452600354925163ef565bbf60e01b81529194506001600160a01b039092169163ef565bbf91610ed0918d918d9189919082019088908a906004016124f9565b600060405180830381600087803b158015610eea57600080fd5b505af1158015610efe573d6000803e3d6000fd5b50505050505050505050505050565b610f156117b3565b6001600160a01b0316610f266110b5565b6001600160a01b031614610f4c5760405162461bcd60e51b815260040161042e9061261d565b610f5660006117b7565b565b81516020818401810180516004825292820194820194909420919093528151808301840180519281529084019290930191909120915280548190610f9b90612946565b80601f0160208091040260200160405190810160405280929190818152602001828054610fc790612946565b80156110145780601f10610fe957610100808354040283529160200191611014565b820191906000526020600020905b815481529060010190602001808311610ff757829003601f168201915b50505050509080600101805461102990612946565b80601f016020809104026020016040519081016040528092919081815260200182805461105590612946565b80156110a25780601f10611077576101008083540402835291602001916110a2565b820191906000526020600020905b81548152906001019060200180831161108557829003601f168201915b5050506002909301549192505060ff1683565b6000546001600160a01b031690565b600660208190526000918252604090912080546001820154600283015460038401546004850154600586015496860154600787015460088801805497996001600160a01b039788169997909616979496939594929360ff80841694610100909404169290919061113390612946565b80601f016020809104026020016040519081016040528092919081815260200182805461115f90612946565b80156111ac5780601f10611181576101008083540402835291602001916111ac565b820191906000526020600020905b81548152906001019060200180831161118f57829003601f168201915b5050505050908060090180546111c190612946565b80601f01602080910402602001604051908101604052809291908181526020018280546111ed90612946565b801561123a5780601f1061120f5761010080835404028352916020019161123a565b820191906000526020600020905b81548152906001019060200180831161121d57829003601f168201915b505050600a909301549192505060ff168c565b600080866001600160a01b03166323b872dd3330896040518463ffffffff1660e01b81526004016112809392919061235f565b602060405180830381600087803b15801561129a57600080fd5b505af11580156112ae573d6000803e3d6000fd5b505050506040513d601f19601f820116820180604052508101906112d29190611b5b565b9050806112f15760405162461bcd60e51b815260040161042e90612681565b6040518061018001604052806007548152602001336001600160a01b03168152602001886001600160a01b031681526020018781526020016002600060405160200161133d9190612342565b60408051601f1981840301815290829052611357916122ce565b602060405180830381855afa158015611374573d6000803e3d6000fd5b5050506040513d601f19601f820116820180604052508101906113979190611b7b565b815260200142815260200142610e106113b091906128fe565b815260006020808301829052604080840183905260608085018e905260808086018c905260a095860185905260078054865260068086529584902088518155888601516001820180546001600160a01b03199081166001600160a01b0393841617909155958a0151600283018054909716911617909455918701516003840155860151600483015593850151600582015560c08501519281019290925560e084015192820180546101008087015160ff199092169515159590951761ff0019169015159094029390931790925561012083015180519192611499926008850192909101906118c7565b5061014082015180516114b69160098401916020909101906118c7565b506101609190910151600a909101805460ff19169115159190911790556007546114e19060016128fe565b600755506001979650505050505050565b6114fa6117b3565b6001600160a01b031661150b6110b5565b6001600160a01b0316146115315760405162461bcd60e51b815260040161042e9061261d565b6000600487876040516115459291906122ea565b908152602001604051809103902090506000818a8a6040516115689291906122ea565b908152604051908190036020019020905061158481878761194b565b5061159360018201858561194b565b50600201805460ff19166001179055505050505050505050565b8151602081840181018051600582529282019482019490942091909352815180830184018051928152908401929093019190912091528054610ad590612946565b6115f66117b3565b6001600160a01b03166116076110b5565b6001600160a01b03161461162d5760405162461bcd60e51b815260040161042e9061261d565b6040805160606020601f8701819004028201810183529181018581526000928291908890889081908501838280828437600092019190915250505090825250604080516020601f870181900481028201810190925285815291810191908690869081908401838280828437600092019190915250505091525060405190915081906001906116c9908e908e908e908e908e908e906020016122fa565b60408051601f19818403018152908290526116e3916122ce565b9081526020016040518091039020600082015181600001908051906020019061170d9291906118c7565b50602082810151805161172692600185019201906118c7565b5050505050505050505050505050565b6003546001600160a01b031681565b61174d6117b3565b6001600160a01b031661175e6110b5565b6001600160a01b0316146117845760405162461bcd60e51b815260040161042e9061261d565b6001600160a01b0381166117aa5760405162461bcd60e51b815260040161042e906125d7565b610355816117b7565b3390565b600080546001600160a01b038381166001600160a01b0319831681178455604051919092169283917f8be0079c531659141344cd1fd0a4f28419497f9722a3daafe3b4186f6b6457e09190a35050565b6040518060e00160405280600081526020016060815260200160608152602001606081526020016118366119bf565b815260006020820152606060409091015290565b604080516101808101825260008082526020820181905291810182905260608082018390526080820183905260a0820183905260c0820183905260e082018390526101008201839052610120820181905261014082015261016081019190915290565b604051806040016040528060608152602001606081525090565b8280546118d390612946565b90600052602060002090601f0160209004810192826118f5576000855561193b565b82601f1061190e57805160ff191683800117855561193b565b8280016001018555821561193b579182015b8281111561193b578251825591602001919060010190611920565b506119479291506119d1565b5090565b82805461195790612946565b90600052602060002090601f016020900481019282611979576000855561193b565b82601f106119925782800160ff1982351617855561193b565b8280016001018555821561193b579182015b8281111561193b5782358255916020019190600101906119a4565b60408051602081019091526000815290565b5b8082111561194757600081556001016119d2565b60006119f96119f4846128cb565b6128a2565b9050828152838383011115611a0d57600080fd5b828260208301376000602084830101529392505050565b8051611a2f816129c8565b919050565b60008083601f840112611a45578182fd5b5081356001600160401b03811115611a5b578182fd5b602083019150836020828501011115611a7357600080fd5b9250929050565b600082601f830112611a8a578081fd5b611a99838335602085016119e6565b9392505050565b600082601f830112611ab0578081fd5b8151611abe6119f4826128cb565b818152846020838601011115611ad2578283fd5b611ae3826020830160208701612916565b949350505050565b600060208284031215611afc578081fd5b604051602081018181106001600160401b0382111715611b1e57611b1e6129b2565b8060405250809150825160ff81168114611b3757600080fd5b905292915050565b600060208284031215611b50578081fd5b8135611a99816129c8565b600060208284031215611b6c578081fd5b81518015158114611a99578182fd5b600060208284031215611b8c578081fd5b5051919050565b600060208284031215611ba4578081fd5b81356001600160401b03811115611bb9578182fd5b8201601f81018413611bc9578182fd5b611ae3848235602084016119e6565b60008060008060408587031215611bed578283fd5b84356001600160401b0380821115611c03578485fd5b611c0f88838901611a34565b90965094506020870135915080821115611c27578384fd5b50611c3487828801611a34565b95989497509550505050565b60008060008060008060608789031215611c58578182fd5b86356001600160401b0380821115611c6e578384fd5b611c7a8a838b01611a34565b90985096506020890135915080821115611c92578384fd5b611c9e8a838b01611a34565b90965094506040890135915080821115611cb6578384fd5b50611cc389828a01611a34565b979a9699509497509295939492505050565b6000806000806000806000806080898b031215611cf0578182fd5b88356001600160401b0380821115611d06578384fd5b611d128c838d01611a34565b909a50985060208b0135915080821115611d2a578384fd5b611d368c838d01611a34565b909850965060408b0135915080821115611d4e578384fd5b611d5a8c838d01611a34565b909650945060608b0135915080821115611d72578384fd5b50611d7f8b828c01611a34565b999c989b5096995094979396929594505050565b60008060008060008060008060008060a08b8d031215611db1578384fd5b8a356001600160401b0380821115611dc7578586fd5b611dd38e838f01611a34565b909c509a5060208d0135915080821115611deb578586fd5b611df78e838f01611a34565b909a50985060408d0135915080821115611e0f578586fd5b611e1b8e838f01611a34565b909850965060608d0135915080821115611e33578586fd5b611e3f8e838f01611a34565b909650945060808d0135915080821115611e57578384fd5b50611e648d828e01611a34565b915080935050809150509295989b9194979a5092959850565b600080600080600060808688031215611e94578283fd5b85356001600160401b03811115611ea9578384fd5b611eb588828901611a34565b909650945050602086013592506040860135611ed0816129c8565b949793965091946060013592915050565b600060208284031215611ef2578081fd5b81356001600160401b03811115611f07578182fd5b611ae384828501611a7a565b60008060008060008060c08789031215611f2b578384fd5b86356001600160401b0380821115611f41578586fd5b611f4d8a838b01611a7a565b975060208901359150611f5f826129c8565b9095506040880135945060608801359080821115611f7b578384fd5b50611f8889828a01611a7a565b9350506080870135611f99816129c8565b8092505060a087013590509295509295509295565b60008060408385031215611fc0578182fd5b82356001600160401b0380821115611fd6578384fd5b611fe286838701611a7a565b93506020850135915080821115611ff7578283fd5b5061200485828601611a7a565b9150509250929050565b60006020828403121561201f578081fd5b81516001600160401b0380821115612035578283fd5b9083019060e08286031215612048578283fd5b61205260e06128a2565b82518152602083015182811115612067578485fd5b61207387828601611aa0565b60208301525060408301518281111561208a578485fd5b61209687828601611aa0565b6040830152506060830151828111156120ad578485fd5b6120b987828601611aa0565b6060830152506120cc8660808501611aeb565b60808201526120dd60a08401611a24565b60a082015260c0830151828111156120f3578485fd5b6120ff87828601611aa0565b60c08301525095945050505050565b60006020828403121561211f578081fd5b5035919050565b60008060008060008060c0878903121561213e578384fd5b863595506020870135612150816129c8565b94506040870135612160816129c8565b93506060870135612170816129c8565b9598949750929560808101359460a0909101359350915050565b6000806040838503121561219c578182fd5b8235915060208301356001600160401b038111156121b8578182fd5b61200485828601611a7a565b6001600160a01b03169052565b15159052565b600081518084526121ef816020860160208601612916565b601f01601f19169290920160200192915050565b60008284528282602086013780602084860101526020601f19601f85011685010190509392505050565b80546000906002810460018083168061224757607f831692505b602080841082141561226757634e487b7160e01b86526022600452602486fd5b6122718489612342565b8280156122855760018114612296576122c1565b60ff198716825282820197506122c1565b61229f896128f2565b60005b878110156122bb578154848201529086019084016122a2565b83019850505b5050505050505092915050565b600082516122e0818460208701612916565b9190910192915050565b6000828483379101908152919050565b600086888337868201818152858782378501818152838582379092019182525095945050505050565b723932b1b2b4bb32afb6b0ba31b42fb7b93232b960691b815260130190565b90815260200190565b6001600160a01b0391909116815260200190565b6001600160a01b039384168152919092166020820152604081019190915260600190565b6001600160a01b03929092168252602082015260400190565b60208082528251828201819052600091906040908185019080840286018301878501865b838110156124ae57603f19898403018552815161018081518552888201516123ea8a8701826121c4565b50878201516123fb898701826121c4565b50606082810151908601526080808301519086015260a0808301519086015260c0808301519086015260e080830151612436828801826121d1565b50506101008083015161244b828801826121d1565b5050610120808301518282880152612465838801826121d7565b92505050610140808301518683038288015261248183826121d7565b9250505061016080830151925061249a818701846121d1565b5095880195935050908601906001016123c0565b509098975050505050505050565b901515815260200190565b6000604082526124db604083018688612203565b82810360208401526124ee818587612203565b979650505050505050565b600060a0825261250d60a08301888a612203565b828103602084015261251f818861222d565b90508281036040840152612533818761222d565b905060ff8551166060840152828103608084015261255181856121d7565b9998505050505050505050565b600060208252611a9960208301846121d7565b60006040825261258460408301856121d7565b828103602084015261259681856121d7565b95945050505050565b6000606082526125b260608301866121d7565b82810360208401526125c481866121d7565b9150508215156040830152949350505050565b60208082526026908201527f4f776e61626c653a206e6577206f776e657220697320746865207a65726f206160408201526564647265737360d01b606082015260800190565b6020808252818101527f4f776e61626c653a2063616c6c6572206973206e6f7420746865206f776e6572604082015260600190565b6020808252601590820152741858dd1a5bdb881b9bdd081c9959da5cdd195c9959605a1b604082015260600190565b60208082526017908201527f7472616e7366657220746f2073776170206661696c6564000000000000000000604082015260600190565b6000602082528251604060208401526126d460608401826121d7565b90506020840151601f1984830301604085015261259682826121d7565b60006020825282516020830152602083015160e060408401526127186101008401826121d7565b90506040840151601f198085840301606086015261273683836121d7565b9250606086015191508085840301608086015261275383836121d7565b925060ff6080870151511660a086015260a0860151915061277760c08601836121c4565b60c08601519150808584030160e08601525061259682826121d7565b9485526001600160a01b0393841660208601529190921660408401526060830191909152608082015260a00190565b9889526001600160a01b0397881660208a01529590961660408801526060870193909352608086019190915260a085015260c084015290151560e083015215156101008201526101200190565b60006101808e835260018060a01b03808f166020850152808e166040850152508b60608401528a60808401528960a08401528860c084015287151560e08401528615156101008401528061012084015261286b818401876121d7565b905082810361014084015261288081866121d7565b9150506128916101608301846121d1565b9d9c50505050505050505050505050565b6040518181016001600160401b03811182821017156128c3576128c36129b2565b604052919050565b60006001600160401b038211156128e4576128e46129b2565b50601f01601f191660200190565b60009081526020902090565b600082198211156129115761291161299c565b500190565b60005b83811015612931578181015183820152602001612919565b83811115612940576000848401525b50505050565b60028104600182168061295a57607f821691505b6020821081141561297b57634e487b7160e01b600052602260045260246000fd5b50919050565b60006000198214156129955761299561299c565b5060010190565b634e487b7160e01b600052601160045260246000fd5b634e487b7160e01b600052604160045260246000fd5b6001600160a01b038116811461035557600080fdfea2646970667358221220566b1e503d404186e7aa486b53a9fcf362f4d2744bdfd0e1bf2403fcda84c81f64736f6c63430008000033",
  "immutableReferences": {},
  "source": "// SPDX-License-Identifier: MIT\npragma solidity 0.8.0;\n\nimport \"@openzeppelin/contracts/token/ERC20/IERC20.sol\";\nimport \"./CrossChain/ContractBase.sol\";\n\n contract Swap is ContractBase {\n    // Destination contract info\n    struct DestnContract {\n        string contractAddress; // destination contract address\n        string funcName; // destination contract action name\n        bool used;\n    }\n\n    struct Order {\n        uint256 orderId;\n        address sender;\n        address tokenContract;\n        uint256 amount;\n        bytes32 hashlock;\n        uint256 createTime;\n        uint256 timelock; // locked UNTIL this time.\n        bool withdrawn;\n        bool refunded;\n        string fromChainId;\n        string toChainId; \n        bool filled;\n    }\n\n    struct OrderFill {\n        uint256 orderId;\n        address sender;\n        address tokenContract;\n        uint256 amount;\n        bytes32 hashlock;\n        uint256 createTime;\n        uint256 timelock; // locked UNTIL this time.\n        bool withdrawn;\n        bool refunded;\n    }\n\n    // Cross-chain destination contract map\n    mapping(string => mapping(string => DestnContract)) public destnContractMap;\n\n    // Cross-chain permitted contract map\n    mapping(string => mapping(string => string)) public permittedContractMap;\n\n    mapping(uint256 => Order) public idToOrder;\n    uint256 _orderIds;\n\n    mapping(uint256 => OrderFill) public idToFillOrder;\n    uint256 _fillOrderIds;\n\n    constructor() public{\n        \n    }\n\n    function create_order(string memory chain_from, address asset_from, uint256 amount_from, string memory chain_to, address asset_to, uint256 amount_to) public returns (bool) {\n        bool ret =  IERC20(asset_from).transferFrom(msg.sender, address(this), amount_from);\n        require(ret, \"transfer to swap failed\");\n        idToOrder[_orderIds] = Order(_orderIds, msg.sender, asset_from, amount_from, sha256(abi.encodePacked(uint(0))), block.timestamp, block.timestamp+ 3600, false, false, chain_from, chain_to, false);\n        _orderIds = _orderIds + 1;\n        return true;\n    }\n\n    function query_order(uint256 order_id) public{\n\n    }\n     \n    function query_all_orders() public view returns(Order[] memory){\n        uint256 orderCount = _orderIds;\n        Order[] memory orders = new Order[](orderCount);\n        for (uint256 i = 0;i < orderCount; i++){\n            Order storage order = idToOrder[i];\n            orders[i] = order;\n        }\n        return orders;\n    }\n\n    function match_order(string calldata chain_id, uint256 order_id, address asset, uint256 amount) public{\n        // bool ret = IERC20(asset).transferFrom(msg.sender, address(this), amount);\n        // require(ret, \"transfer to swap failed\");\n        idToFillOrder[_fillOrderIds] = OrderFill(order_id, msg.sender, asset, amount, sha256(abi.encodePacked(uint(0))), block.timestamp, block.timestamp+ 3600, false, false);\n        _fillOrderIds = _fillOrderIds + 1;\n       \n        mapping(string => DestnContract) storage map = destnContractMap[chain_id];\n        DestnContract storage destnContract = map[\"receive_match_order\"];\n        require(destnContract.used, \"action not registered\");\n\n        bytes memory data = abi.encode(order_id,msg.sender,asset,amount,sha256(abi.encodePacked(uint(0))));\n        SQOS memory sqos = SQOS(1);\n        crossChainContract.sendMessage(\n            chain_id,\n            destnContract.contractAddress,\n            destnContract.funcName,\n            sqos,\n            data\n        );\n    }\n\n    function receive_match_order(uint256 order_id, address payee_address, address from_chain_payee, address from_chain_asset, uint256 amount, bytes32 hash) public {\n        Order storage order = idToOrder[order_id];\n        order.filled = true;\n        bool ret = IERC20(order.tokenContract).transfer(payee_address, order.amount);\n        // require(ret, \"transfer payee failed\");\n    }\n\n    function unlock_asset(uint256 order_id, string memory key) public{\n    }\n\n    function registerDestnContract(\n        string calldata _funcName,\n        string calldata _toChain,\n        string calldata _contractAddress,\n        string calldata _contractFuncName\n    ) external onlyOwner {\n        mapping(string => DestnContract) storage map = destnContractMap[_toChain];\n        DestnContract storage destnContract = map[_funcName];\n        destnContract.contractAddress = _contractAddress;\n        destnContract.funcName = _contractFuncName;\n        destnContract.used = true;\n    }\n}",
  "sourcePath": "/Users/fsy412/code/Demo-Swap/contracts/Swap.sol",
  "compiler": {
    "name": "solc",
    "version": "0.8.0+commit.c7dfd78e.Emscripten.clang"
  },
  "schemaVersion": "3.4.6",
  "updatedAt": "2022-04-08T14:21:39.161Z",
  "devdoc": {
    "kind": "dev",
    "methods": {
      "getMessageABI(string,string,string)": {
        "params": {
          "_destnChainName": "- destination chain name",
          "_destnContractName": "- destination contract name",
          "_funcName": "- destination contract function name"
        }
      },
      "owner()": {
        "details": "Returns the address of the current owner."
      },
      "registerContractABI(string,string)": {
        "params": {
          "_contractABI": "- contract action abi",
          "_funcName": "- contract action name"
        }
      },
      "registerMessageABI(string,string,string,string,string)": {
        "params": {
          "_destnChainName": "- destination chain name",
          "_destnContractName": "- destination contract name",
          "_funcName": "- destination contract function name",
          "_paramName": "- action param name",
          "_paramType": "- action param types"
        }
      },
      "renounceOwnership()": {
        "details": "Leaves the contract without owner. It will not be possible to call `onlyOwner` functions anymore. Can only be called by the current owner. NOTE: Renouncing ownership will leave the contract without an owner, thereby removing any functionality that is only available to the owner."
      },
      "setCrossChainContract(address)": {
        "params": {
          "_address": "- cross chain contract address"
        }
      },
      "transferOwnership(address)": {
        "details": "Transfers ownership of the contract to a new account (`newOwner`). Can only be called by the current owner."
      }
    },
    "version": 1
  },
  "userdoc": {
    "kind": "user",
    "methods": {
      "getMessageABI(string,string,string)": {
        "notice": "Get Registered message ABI to encode/decode message"
      },
      "registerContractABI(string,string)": {
        "notice": "contract ABI used to encode/decode messages sent to this contract"
      },
      "registerMessageABI(string,string,string,string,string)": {
        "notice": "message ABI used to encode/decode messages sent from this contract"
      },
      "setCrossChainContract(address)": {
        "notice": "Set cross chain contract"
      }
    },
    "version": 1
  }
}