{
  "contractName": "Swap",
  "abi": [
    {
      "inputs": [],
      "stateMutability": "nonpayable",
      "type": "constructor"
    },
    {
      "anonymous": false,
      "inputs": [
        {
          "indexed": true,
          "internalType": "address",
          "name": "previousOwner",
          "type": "address"
        },
        {
          "indexed": true,
          "internalType": "address",
          "name": "newOwner",
          "type": "address"
        }
      ],
      "name": "OwnershipTransferred",
      "type": "event"
    },
    {
      "inputs": [
        {
          "internalType": "string",
          "name": "",
          "type": "string"
        }
      ],
      "name": "contractABIMap",
      "outputs": [
        {
          "internalType": "string",
          "name": "",
          "type": "string"
        }
      ],
      "stateMutability": "view",
      "type": "function"
    },
    {
      "inputs": [],
      "name": "crossChainContract",
      "outputs": [
        {
          "internalType": "contract ICrossChain",
          "name": "",
          "type": "address"
        }
      ],
      "stateMutability": "view",
      "type": "function"
    },
    {
      "inputs": [
        {
          "internalType": "string",
          "name": "",
          "type": "string"
        },
        {
          "internalType": "string",
          "name": "",
          "type": "string"
        }
      ],
      "name": "destnContractMap",
      "outputs": [
        {
          "internalType": "string",
          "name": "contractAddress",
          "type": "string"
        },
        {
          "internalType": "string",
          "name": "funcName",
          "type": "string"
        },
        {
          "internalType": "bool",
          "name": "used",
          "type": "bool"
        }
      ],
      "stateMutability": "view",
      "type": "function"
    },
    {
      "inputs": [],
      "name": "getContext",
      "outputs": [
        {
          "components": [
            {
              "internalType": "uint256",
              "name": "id",
              "type": "uint256"
            },
            {
              "internalType": "string",
              "name": "fromChain",
              "type": "string"
            },
            {
              "internalType": "string",
              "name": "sender",
              "type": "string"
            },
            {
              "internalType": "string",
              "name": "signer",
              "type": "string"
            },
            {
              "components": [
                {
                  "internalType": "uint8",
                  "name": "reveal",
                  "type": "uint8"
                }
              ],
              "internalType": "struct SQOS",
              "name": "sqos",
              "type": "tuple"
            },
            {
              "internalType": "address",
              "name": "contractAddress",
              "type": "address"
            },
            {
              "internalType": "string",
              "name": "action",
              "type": "string"
            }
          ],
          "internalType": "struct SimplifiedMessage",
          "name": "",
          "type": "tuple"
        }
      ],
      "stateMutability": "view",
      "type": "function"
    },
    {
      "inputs": [
        {
          "internalType": "string",
          "name": "_destnChainName",
          "type": "string"
        },
        {
          "internalType": "string",
          "name": "_destnContractName",
          "type": "string"
        },
        {
          "internalType": "string",
          "name": "_funcName",
          "type": "string"
        }
      ],
      "name": "getMessageABI",
      "outputs": [
        {
          "components": [
            {
              "internalType": "string",
              "name": "parametertypes",
              "type": "string"
            },
            {
              "internalType": "string",
              "name": "parameterNames",
              "type": "string"
            }
          ],
          "internalType": "struct ContractBase.MessageABI",
          "name": "",
          "type": "tuple"
        }
      ],
      "stateMutability": "view",
      "type": "function"
    },
    {
      "inputs": [
        {
          "internalType": "uint256",
          "name": "",
          "type": "uint256"
        }
      ],
      "name": "idToFillOrder",
      "outputs": [
        {
          "internalType": "uint256",
          "name": "orderId",
          "type": "uint256"
        },
        {
          "internalType": "string",
          "name": "fromChainId",
          "type": "string"
        },
        {
          "internalType": "address",
          "name": "sender",
          "type": "address"
        },
        {
          "internalType": "address",
          "name": "tokenContract",
          "type": "address"
        },
        {
          "internalType": "uint256",
          "name": "amount",
          "type": "uint256"
        },
        {
          "internalType": "bytes32",
          "name": "hashlock",
          "type": "bytes32"
        },
        {
          "internalType": "uint256",
          "name": "createTime",
          "type": "uint256"
        },
        {
          "internalType": "uint256",
          "name": "timelock",
          "type": "uint256"
        },
        {
          "internalType": "address",
          "name": "payee",
          "type": "address"
        },
        {
          "internalType": "string",
          "name": "status",
          "type": "string"
        },
        {
          "internalType": "bool",
          "name": "transfer",
          "type": "bool"
        }
      ],
      "stateMutability": "view",
      "type": "function"
    },
    {
      "inputs": [
        {
          "internalType": "uint256",
          "name": "",
          "type": "uint256"
        }
      ],
      "name": "idToOrder",
      "outputs": [
        {
          "internalType": "uint256",
          "name": "orderId",
          "type": "uint256"
        },
        {
          "internalType": "address",
          "name": "sender",
          "type": "address"
        },
        {
          "internalType": "address",
          "name": "tokenContract",
          "type": "address"
        },
        {
          "internalType": "address",
          "name": "toTokenContract",
          "type": "address"
        },
        {
          "internalType": "uint256",
          "name": "amount",
          "type": "uint256"
        },
        {
          "internalType": "uint256",
          "name": "toAmount",
          "type": "uint256"
        },
        {
          "internalType": "uint256",
          "name": "createTime",
          "type": "uint256"
        },
        {
          "internalType": "bool",
          "name": "cancelled",
          "type": "bool"
        },
        {
          "internalType": "string",
          "name": "fromChainId",
          "type": "string"
        },
        {
          "internalType": "string",
          "name": "toChainId",
          "type": "string"
        },
        {
          "internalType": "bool",
          "name": "filled",
          "type": "bool"
        },
        {
          "internalType": "bool",
          "name": "transfer",
          "type": "bool"
        }
      ],
      "stateMutability": "view",
      "type": "function"
    },
    {
      "inputs": [
        {
          "internalType": "bytes",
          "name": "",
          "type": "bytes"
        }
      ],
      "name": "messageABIMap",
      "outputs": [
        {
          "internalType": "string",
          "name": "parametertypes",
          "type": "string"
        },
        {
          "internalType": "string",
          "name": "parameterNames",
          "type": "string"
        }
      ],
      "stateMutability": "view",
      "type": "function"
    },
    {
      "inputs": [],
      "name": "owner",
      "outputs": [
        {
          "internalType": "address",
          "name": "",
          "type": "address"
        }
      ],
      "stateMutability": "view",
      "type": "function"
    },
    {
      "inputs": [
        {
          "internalType": "string",
          "name": "",
          "type": "string"
        },
        {
          "internalType": "string",
          "name": "",
          "type": "string"
        }
      ],
      "name": "permittedContractMap",
      "outputs": [
        {
          "internalType": "string",
          "name": "",
          "type": "string"
        }
      ],
      "stateMutability": "view",
      "type": "function"
    },
    {
      "inputs": [
        {
          "internalType": "string",
          "name": "_funcName",
          "type": "string"
        },
        {
          "internalType": "string",
          "name": "_contractABI",
          "type": "string"
        }
      ],
      "name": "registerContractABI",
      "outputs": [],
      "stateMutability": "nonpayable",
      "type": "function"
    },
    {
      "inputs": [
        {
          "internalType": "string",
          "name": "_destnChainName",
          "type": "string"
        },
        {
          "internalType": "string",
          "name": "_destnContractName",
          "type": "string"
        },
        {
          "internalType": "string",
          "name": "_funcName",
          "type": "string"
        },
        {
          "internalType": "string",
          "name": "_paramType",
          "type": "string"
        },
        {
          "internalType": "string",
          "name": "_paramName",
          "type": "string"
        }
      ],
      "name": "registerMessageABI",
      "outputs": [],
      "stateMutability": "nonpayable",
      "type": "function"
    },
    {
      "inputs": [],
      "name": "renounceOwnership",
      "outputs": [],
      "stateMutability": "nonpayable",
      "type": "function"
    },
    {
      "inputs": [
        {
          "internalType": "address",
          "name": "_address",
          "type": "address"
        }
      ],
      "name": "setCrossChainContract",
      "outputs": [],
      "stateMutability": "nonpayable",
      "type": "function"
    },
    {
      "inputs": [
        {
          "internalType": "address",
          "name": "newOwner",
          "type": "address"
        }
      ],
      "name": "transferOwnership",
      "outputs": [],
      "stateMutability": "nonpayable",
      "type": "function"
    },
    {
      "inputs": [
        {
          "internalType": "string",
          "name": "chain_from",
          "type": "string"
        },
        {
          "internalType": "address",
          "name": "asset_from",
          "type": "address"
        },
        {
          "internalType": "uint256",
          "name": "amount_from",
          "type": "uint256"
        },
        {
          "internalType": "string",
          "name": "chain_to",
          "type": "string"
        },
        {
          "internalType": "address",
          "name": "asset_to",
          "type": "address"
        },
        {
          "internalType": "uint256",
          "name": "amount_to",
          "type": "uint256"
        }
      ],
      "name": "create_order",
      "outputs": [
        {
          "internalType": "bool",
          "name": "",
          "type": "bool"
        }
      ],
      "stateMutability": "nonpayable",
      "type": "function"
    },
    {
      "inputs": [
        {
          "internalType": "uint256",
          "name": "order_id",
          "type": "uint256"
        }
      ],
      "name": "query_order",
      "outputs": [],
      "stateMutability": "nonpayable",
      "type": "function"
    },
    {
      "inputs": [],
      "name": "query_all_orders",
      "outputs": [
        {
          "components": [
            {
              "internalType": "uint256",
              "name": "orderId",
              "type": "uint256"
            },
            {
              "internalType": "address",
              "name": "sender",
              "type": "address"
            },
            {
              "internalType": "address",
              "name": "tokenContract",
              "type": "address"
            },
            {
              "internalType": "address",
              "name": "toTokenContract",
              "type": "address"
            },
            {
              "internalType": "uint256",
              "name": "amount",
              "type": "uint256"
            },
            {
              "internalType": "uint256",
              "name": "toAmount",
              "type": "uint256"
            },
            {
              "internalType": "uint256",
              "name": "createTime",
              "type": "uint256"
            },
            {
              "internalType": "bool",
              "name": "cancelled",
              "type": "bool"
            },
            {
              "internalType": "string",
              "name": "fromChainId",
              "type": "string"
            },
            {
              "internalType": "string",
              "name": "toChainId",
              "type": "string"
            },
            {
              "internalType": "bool",
              "name": "filled",
              "type": "bool"
            },
            {
              "internalType": "bool",
              "name": "transfer",
              "type": "bool"
            }
          ],
          "internalType": "struct Swap.Order[]",
          "name": "",
          "type": "tuple[]"
        }
      ],
      "stateMutability": "view",
      "type": "function"
    },
    {
      "inputs": [
        {
          "internalType": "string",
          "name": "chain_id",
          "type": "string"
        },
        {
          "internalType": "uint256",
          "name": "order_id",
          "type": "uint256"
        },
        {
          "internalType": "address",
          "name": "asset",
          "type": "address"
        },
        {
          "internalType": "uint256",
          "name": "amount",
          "type": "uint256"
        },
        {
          "internalType": "address",
          "name": "payee",
          "type": "address"
        }
      ],
      "name": "match_order",
      "outputs": [],
      "stateMutability": "nonpayable",
      "type": "function"
    },
    {
      "inputs": [
        {
          "internalType": "uint256",
          "name": "order_id",
          "type": "uint256"
        },
        {
          "internalType": "address",
          "name": "payee_address",
          "type": "address"
        },
        {
          "internalType": "address",
          "name": "from_chain_payee",
          "type": "address"
        },
        {
          "internalType": "address",
          "name": "from_chain_asset",
          "type": "address"
        },
        {
          "internalType": "uint256",
          "name": "amount",
          "type": "uint256"
        },
        {
          "internalType": "bytes32",
          "name": "hash",
          "type": "bytes32"
        }
      ],
      "name": "receive_match_order",
      "outputs": [],
      "stateMutability": "nonpayable",
      "type": "function"
    },
    {
      "inputs": [
        {
          "internalType": "uint256",
          "name": "order_id",
          "type": "uint256"
        },
        {
          "internalType": "string",
          "name": "key",
          "type": "string"
        }
      ],
      "name": "unlock_asset",
      "outputs": [],
      "stateMutability": "nonpayable",
      "type": "function"
    },
    {
      "inputs": [
        {
          "internalType": "uint256",
          "name": "order_id",
          "type": "uint256"
        },
        {
          "internalType": "bytes32",
          "name": "hash",
          "type": "bytes32"
        }
      ],
      "name": "receive_transfer_asset",
      "outputs": [],
      "stateMutability": "nonpayable",
      "type": "function"
    },
    {
      "inputs": [
        {
          "internalType": "string",
          "name": "_funcName",
          "type": "string"
        },
        {
          "internalType": "string",
          "name": "_toChain",
          "type": "string"
        },
        {
          "internalType": "string",
          "name": "_contractAddress",
          "type": "string"
        },
        {
          "internalType": "string",
          "name": "_contractFuncName",
          "type": "string"
        }
      ],
      "name": "registerDestnContract",
      "outputs": [],
      "stateMutability": "nonpayable",
      "type": "function"
    },
    {
      "inputs": [
        {
          "internalType": "string",
          "name": "_chainName",
          "type": "string"
        },
        {
          "internalType": "string",
          "name": "_sender",
          "type": "string"
        },
        {
          "internalType": "string",
          "name": "_funcName",
          "type": "string"
        }
      ],
      "name": "registerPermittedContract",
      "outputs": [],
      "stateMutability": "nonpayable",
      "type": "function"
    },
    {
      "inputs": [
        {
          "internalType": "string",
          "name": "_chainName",
          "type": "string"
        },
        {
          "internalType": "string",
          "name": "_funcName",
          "type": "string"
        },
        {
          "internalType": "string",
          "name": "_sender",
          "type": "string"
        }
      ],
      "name": "verify",
      "outputs": [
        {
          "internalType": "bool",
          "name": "",
          "type": "bool"
        }
      ],
      "stateMutability": "view",
      "type": "function"
    }
  ],
  "bytecode": "0x60806040523480156200001157600080fd5b5062000026620000206200002c565b62000030565b62000080565b3390565b600080546001600160a01b038381166001600160a01b0319831681178455604051919092169283917f8be0079c531659141344cd1fd0a4f28419497f9722a3daafe3b4186f6b6457e09190a35050565b6132dc80620000906000396000f3fe608060405234801561001057600080fd5b50600436106101735760003560e01c806366e1f820116100de578063ac95d83011610097578063d469270311610071578063d469270314610380578063dbc90de114610393578063f2fde38b1461039b578063ff96254b146103ae57610173565b8063ac95d8301461033a578063babe5dd61461035a578063bb45acd91461036d57610173565b806366e1f820146102aa578063715018a6146102bd57806379f6793c146102c557806380899bba146102d85780638da5cb5b146102fa5780638f1ec88f1461030f57610173565b80632639c423116101305780632639c423146101f95780632d3ed22f1461021a5780632fec80991461022d5780633ad16b7a146102405780633b6c9e26146102605780635fe78c6c1461028a57610173565b80630bec7e7c14610178578063127f0f071461018d57806318d72b54146101ab5780631ff05bcd146101be578063246da888146101d157806325a435de146101e6575b600080fd5b61018b6101863660046127e4565b6103c1565b005b6101956103c4565b6040516101a29190612f74565b60405180910390f35b61018b6101b9366004612200565b61045b565b61018b6101cc3660046127fc565b6104c5565b6101d96107c4565b6040516101a29190612b06565b61018b6101f4366004612860565b610a4d565b61020c610207366004612254565b610b64565b6040516101a2929190612ce4565b61018b61022836600461253e565b610c9b565b61018b61023b366004612881565b6110ee565b61025361024e366004612301565b6110f2565b6040516101a29190612f3b565b61027361026e3660046127e4565b61127a565b6040516101a29b9a999897969594939291906130f4565b61029d6102983660046125b7565b6113f6565b6040516101a29190612cd1565b61018b6102b8366004612299565b61149b565b61018b611548565b61018b6102d3366004612301565b611593565b6102eb6102e6366004612684565b611623565b6040516101a293929190612d12565b610302611780565b6040516101a29190612ab5565b61032261031d3660046127e4565b61178f565b6040516101a29c9b9a9998979695949392919061304d565b61034d6103483660046125e9565b611918565b6040516101a29190612c2f565b61018b610368366004612396565b611ba7565b61029d61037b366004612684565b611c62565b61018b61038e366004612454565b611ca3565b610302611deb565b61018b6103a9366004612200565b611dfa565b61034d6103bc366004612301565b611e68565b50565b6103cc611ec8565b600360009054906101000a90046001600160a01b03166001600160a01b0316639af7a48c6040518163ffffffff1660e01b815260040160006040518083038186803b15801561041a57600080fd5b505afa15801561042e573d6000803e3d6000fd5b505050506040513d6000823e601f3d908101601f1916820160405261045691908101906126e4565b905090565b610463611e74565b6001600160a01b0316610474611780565b6001600160a01b0316146104a35760405162461bcd60e51b815260040161049a90612df3565b60405180910390fd5b600380546001600160a01b0319166001600160a01b0392909216919091179055565b6003546001600160a01b031633146104ef5760405162461bcd60e51b815260040161049a90612ecf565b60006104f96103c4565b90506000600582602001516040516105119190612a0a565b90815260200160405180910390209050816040015180519060200120818360c001516040516105409190612a0a565b90815260405190819003602001812061055891612a26565b60405180910390201461057d5760405162461bcd60e51b815260040161049a90612e28565b600088815260066020526040808220600a8101805460ff191660011790556002810154600480830154935163a9059cbb60e01b81529294936001600160a01b039092169263a9059cbb926105d3928e9201612aed565b602060405180830381600087803b1580156105ed57600080fd5b505af1158015610601573d6000803e3d6000fd5b505050506040513d601f19601f82011682018060405250810190610625919061221c565b600a8301805461ff00191661010083151502179055604051909150600090600490610654906009860190612a26565b9081526020016040518091039020905060008160405161067390612a8a565b908152604051908190036020019020600281015490915060ff166106a95760405162461bcd60e51b815260040161049a90612e98565b60008c600260006040516020016106c09190612aac565b60408051601f19818403018152908290526106da91612a0a565b602060405180830381855afa1580156106f7573d6000803e3d6000fd5b5050506040513d601f19601f8201168201806040525081019061071a919061223c565b60405160200161072b9291906130e6565b60408051601f1981840301815260208301825260008352600354915163ef565bbf60e01b81529093506001600160a01b039091169063ef565bbf906107829060098a01908790600182019087908990600401612d4a565b600060405180830381600087803b15801561079c57600080fd5b505af11580156107b0573d6000803e3d6000fd5b505050505050505050505050505050505050565b6007546060906000816001600160401b038111156107f257634e487b7160e01b600052604160045260246000fd5b60405190808252806020026020018201604052801561082b57816020015b610818611f0b565b8152602001906001900390816108105790505b50905060005b82811015610a46576000818152600660208181526040928390208351610180810185528154815260018201546001600160a01b039081169382019390935260028201548316948101949094526003810154909116606084015260048101546080840152600581015460a08401529081015460c0830152600781015460ff16151560e083015260088101805491929183916101008401916108d09061320f565b80601f01602080910402602001604051908101604052809291908181526020018280546108fc9061320f565b80156109495780601f1061091e57610100808354040283529160200191610949565b820191906000526020600020905b81548152906001019060200180831161092c57829003601f168201915b505050505081526020016009820180546109629061320f565b80601f016020809104026020016040519081016040528092919081815260200182805461098e9061320f565b80156109db5780601f106109b0576101008083540402835291602001916109db565b820191906000526020600020905b8154815290600101906020018083116109be57829003601f168201915b5050509183525050600a919091015460ff808216151560208401526101009091041615156040909101528351849084908110610a2757634e487b7160e01b600052603260045260246000fd5b6020026020010181905250508080610a3e9061324a565b915050610831565b5091505090565b60095460005b81811015610b5e5760008181526008602052604090208054851415610b4b576003810154600882015460048084015460405163a9059cbb60e01b81526000946001600160a01b039081169463a9059cbb94610ab394929091169201612aed565b602060405180830381600087803b158015610acd57600080fd5b505af1158015610ae1573d6000803e3d6000fd5b505050506040513d601f19601f82011682018060405250810190610b05919061221c565b60408051808201909152600480825263646f6e6560e01b6020909201918252919250610b3691600985019190611f6e565b50600a8201805460ff19169115159190911790555b5080610b568161324a565b915050610a53565b50505050565b8051602081830181018051600182529282019190930120915280548190610b8a9061320f565b80601f0160208091040260200160405190810160405280929190818152602001828054610bb69061320f565b8015610c035780601f10610bd857610100808354040283529160200191610c03565b820191906000526020600020905b815481529060010190602001808311610be657829003601f168201915b505050505090806001018054610c189061320f565b80601f0160208091040260200160405190810160405280929190818152602001828054610c449061320f565b8015610c915780601f10610c6657610100808354040283529160200191610c91565b820191906000526020600020905b815481529060010190602001808311610c7457829003601f168201915b5050505050905082565b6040516323b872dd60e01b81526000906001600160a01b038516906323b872dd90610cce90339030908890600401612ac9565b602060405180830381600087803b158015610ce857600080fd5b505af1158015610cfc573d6000803e3d6000fd5b505050506040513d601f19601f82011682018060405250810190610d20919061221c565b905080610d3f5760405162461bcd60e51b815260040161049a90612f04565b60405180610160016040528086815260200188888080601f01602080910402602001604051908101604052809392919081815260200183838082843760009201829052509385525050336020808501919091526001600160a01b0389166040808601919091526060850189905251608090940193600293610dc293509101612aac565b60408051601f1981840301815290829052610ddc91612a0a565b602060405180830381855afa158015610df9573d6000803e3d6000fd5b5050506040513d601f19601f82011682018060405250810190610e1c919061223c565b815260200142815260200142610e10610e3591906131cb565b81526001600160a01b038416602080830191909152604080518082018252600781526618dc99585d195960ca1b818401528184015260006060909301839052600954835260088252909120825181558282015180519192610e9e92600185019290910190611f6e565b5060408201516002820180546001600160a01b039283166001600160a01b03199182161790915560608401516003840180549184169183169190911790556080840151600484015560a0840151600584015560c0840151600684015560e084015160078401556101008401516008840180549190931691161790556101208201518051610f35916009840191602090910190611f6e565b506101409190910151600a909101805460ff1916911515919091179055600954610f609060016131cb565b600955604051600090600490610f79908a908a90612a32565b90815260200160405180910390209050600081604051610f9890612a6b565b908152604051908190036020019020600281015490915060ff16610fce5760405162461bcd60e51b815260040161049a90612e69565b600087338833600160026000604051602001610fea9190612aac565b60408051601f198184030181529082905261100491612a0a565b602060405180830381855afa158015611021573d6000803e3d6000fd5b5050506040513d601f19601f82011682018060405250810190611044919061223c565b60405160200161105996959493929190613016565b60408051601f1981840301815260208301825260008352600354915163ef565bbf60e01b81529093506001600160a01b039091169063ef565bbf906110af908e908e908890600182019088908a90600401612c6c565b600060405180830381600087803b1580156110c957600080fd5b505af11580156110dd573d6000803e3d6000fd5b505050505050505050505050505050565b5050565b6110fa611ff2565b600187878787878760405160200161111796959493929190612a42565b60408051601f198184030181529082905261113191612a0a565b908152602001604051809103902060405180604001604052908160008201805461115a9061320f565b80601f01602080910402602001604051908101604052809291908181526020018280546111869061320f565b80156111d35780601f106111a8576101008083540402835291602001916111d3565b820191906000526020600020905b8154815290600101906020018083116111b657829003601f168201915b505050505081526020016001820180546111ec9061320f565b80601f01602080910402602001604051908101604052809291908181526020018280546112189061320f565b80156112655780601f1061123a57610100808354040283529160200191611265565b820191906000526020600020905b81548152906001019060200180831161124857829003601f168201915b50505050508152505090509695505050505050565b6008602052600090815260409020805460018201805491929161129c9061320f565b80601f01602080910402602001604051908101604052809291908181526020018280546112c89061320f565b80156113155780601f106112ea57610100808354040283529160200191611315565b820191906000526020600020905b8154815290600101906020018083116112f857829003601f168201915b50505060028401546003850154600486015460058701546006880154600789015460088a015460098b0180549a9b6001600160a01b039889169b9789169a509598509396929591949216929061136a9061320f565b80601f01602080910402602001604051908101604052809291908181526020018280546113969061320f565b80156113e35780601f106113b8576101008083540402835291602001916113e3565b820191906000526020600020905b8154815290600101906020018083116113c657829003601f168201915b505050600a909301549192505060ff168b565b80516020818301810180516002825292820191909301209152805461141a9061320f565b80601f01602080910402602001604051908101604052809291908181526020018280546114469061320f565b80156114935780601f1061146857610100808354040283529160200191611493565b820191906000526020600020905b81548152906001019060200180831161147657829003601f168201915b505050505081565b6114a3611e74565b6001600160a01b03166114b4611780565b6001600160a01b0316146114da5760405162461bcd60e51b815260040161049a90612df3565b6003546040516321c0551d60e11b81526001600160a01b0390911690634380aa3a90611510908790879087908790600401612c3a565b600060405180830381600087803b15801561152a57600080fd5b505af115801561153e573d6000803e3d6000fd5b5050505050505050565b611550611e74565b6001600160a01b0316611561611780565b6001600160a01b0316146115875760405162461bcd60e51b815260040161049a90612df3565b6115916000611e78565b565b61159b611e74565b6001600160a01b03166115ac611780565b6001600160a01b0316146115d25760405162461bcd60e51b815260040161049a90612df3565b6000600587876040516115e6929190612a32565b908152602001604051809103902090508484828585604051611609929190612a32565b90815260405190819003602001902061153e92909161200c565b815160208184018101805160048252928201948201949094209190935281518083018401805192815290840192909301919091209152805481906116669061320f565b80601f01602080910402602001604051908101604052809291908181526020018280546116929061320f565b80156116df5780601f106116b4576101008083540402835291602001916116df565b820191906000526020600020905b8154815290600101906020018083116116c257829003601f168201915b5050505050908060010180546116f49061320f565b80601f01602080910402602001604051908101604052809291908181526020018280546117209061320f565b801561176d5780601f106117425761010080835404028352916020019161176d565b820191906000526020600020905b81548152906001019060200180831161175057829003601f168201915b5050506002909301549192505060ff1683565b6000546001600160a01b031690565b600660208190526000918252604090912080546001820154600283015460038401546004850154600586015496860154600787015460088801805497996001600160a01b03978816999688169897909516969395929360ff90921692916117f59061320f565b80601f01602080910402602001604051908101604052809291908181526020018280546118219061320f565b801561186e5780601f106118435761010080835404028352916020019161186e565b820191906000526020600020905b81548152906001019060200180831161185157829003601f168201915b5050505050908060090180546118839061320f565b80601f01602080910402602001604051908101604052809291908181526020018280546118af9061320f565b80156118fc5780601f106118d1576101008083540402835291602001916118fc565b820191906000526020600020905b8154815290600101906020018083116118df57829003601f168201915b505050600a909301549192505060ff808216916101009004168c565b600080866001600160a01b03166323b872dd3330896040518463ffffffff1660e01b815260040161194b93929190612ac9565b602060405180830381600087803b15801561196557600080fd5b505af1158015611979573d6000803e3d6000fd5b505050506040513d601f19601f8201168201806040525081019061199d919061221c565b9050806119bc5760405162461bcd60e51b815260040161049a90612f04565b6040518061018001604052806007548152602001336001600160a01b03168152602001886001600160a01b03168152602001856001600160a01b03168152602001878152602001848152602001428152602001600015158152602001898152602001868152602001600015158152602001600015158152506006600060075481526020019081526020016000206000820151816000015560208201518160010160006101000a8154816001600160a01b0302191690836001600160a01b0316021790555060408201518160020160006101000a8154816001600160a01b0302191690836001600160a01b0316021790555060608201518160030160006101000a8154816001600160a01b0302191690836001600160a01b031602179055506080820151816004015560a0820151816005015560c0820151816006015560e08201518160070160006101000a81548160ff021916908315150217905550610100820151816008019080519060200190611b35929190611f6e565b506101208201518051611b52916009840191602090910190611f6e565b50610140820151600a90910180546101609093015115156101000261ff001992151560ff199094169390931791909116919091179055600754611b969060016131cb565b600755506001979650505050505050565b611baf611e74565b6001600160a01b0316611bc0611780565b6001600160a01b031614611be65760405162461bcd60e51b815260040161049a90612df3565b600060048787604051611bfa929190612a32565b908152602001604051809103902090506000818a8a604051611c1d929190612a32565b9081526040519081900360200190209050611c3981878761200c565b50611c4860018201858561200c565b50600201805460ff19166001179055505050505050505050565b815160208184018101805160058252928201948201949094209190935281518083018401805192815290840192909301919091209152805461141a9061320f565b611cab611e74565b6001600160a01b0316611cbc611780565b6001600160a01b031614611ce25760405162461bcd60e51b815260040161049a90612df3565b6040805160606020601f8701819004028201810183529181018581526000928291908890889081908501838280828437600092019190915250505090825250604080516020601f87018190048102820181019092528581529181019190869086908190840183828082843760009201919091525050509152506040519091508190600190611d7e908e908e908e908e908e908e90602001612a42565b60408051601f1981840301815290829052611d9891612a0a565b90815260200160405180910390206000820151816000019080519060200190611dc2929190611f6e565b506020828101518051611ddb9260018501920190611f6e565b5050505050505050505050505050565b6003546001600160a01b031681565b611e02611e74565b6001600160a01b0316611e13611780565b6001600160a01b031614611e395760405162461bcd60e51b815260040161049a90612df3565b6001600160a01b038116611e5f5760405162461bcd60e51b815260040161049a90612dad565b6103c181611e78565b60019695505050505050565b3390565b600080546001600160a01b038381166001600160a01b0319831681178455604051919092169283917f8be0079c531659141344cd1fd0a4f28419497f9722a3daafe3b4186f6b6457e09190a35050565b6040518060e0016040528060008152602001606081526020016060815260200160608152602001611ef7612080565b815260006020820152606060409091015290565b604080516101808101825260008082526020820181905291810182905260608082018390526080820183905260a0820183905260c0820183905260e082018390526101008201819052610120820152610140810182905261016081019190915290565b828054611f7a9061320f565b90600052602060002090601f016020900481019282611f9c5760008555611fe2565b82601f10611fb557805160ff1916838001178555611fe2565b82800160010185558215611fe2579182015b82811115611fe2578251825591602001919060010190611fc7565b50611fee929150612092565b5090565b604051806040016040528060608152602001606081525090565b8280546120189061320f565b90600052602060002090601f01602090048101928261203a5760008555611fe2565b82601f106120535782800160ff19823516178555611fe2565b82800160010185558215611fe2579182015b82811115611fe2578235825591602001919060010190612065565b60408051602081019091526000815290565b5b80821115611fee5760008155600101612093565b60006120ba6120b5846131a4565b61317b565b90508281528383830111156120ce57600080fd5b828260208301376000602084830101529392505050565b80516120f081613291565b919050565b60008083601f840112612106578182fd5b5081356001600160401b0381111561211c578182fd5b60208301915083602082850101111561213457600080fd5b9250929050565b600082601f83011261214b578081fd5b61215a838335602085016120a7565b9392505050565b600082601f830112612171578081fd5b815161217f6120b5826131a4565b818152846020838601011115612193578283fd5b6121a48260208301602087016131e3565b949350505050565b6000602082840312156121bd578081fd5b604051602081018181106001600160401b03821117156121df576121df61327b565b8060405250809150825160ff811681146121f857600080fd5b905292915050565b600060208284031215612211578081fd5b813561215a81613291565b60006020828403121561222d578081fd5b8151801515811461215a578182fd5b60006020828403121561224d578081fd5b5051919050565b600060208284031215612265578081fd5b81356001600160401b0381111561227a578182fd5b8201601f8101841361228a578182fd5b6121a4848235602084016120a7565b600080600080604085870312156122ae578283fd5b84356001600160401b03808211156122c4578485fd5b6122d0888389016120f5565b909650945060208701359150808211156122e8578384fd5b506122f5878288016120f5565b95989497509550505050565b60008060008060008060608789031215612319578182fd5b86356001600160401b038082111561232f578384fd5b61233b8a838b016120f5565b90985096506020890135915080821115612353578384fd5b61235f8a838b016120f5565b90965094506040890135915080821115612377578384fd5b5061238489828a016120f5565b979a9699509497509295939492505050565b6000806000806000806000806080898b0312156123b1578182fd5b88356001600160401b03808211156123c7578384fd5b6123d38c838d016120f5565b909a50985060208b01359150808211156123eb578384fd5b6123f78c838d016120f5565b909850965060408b013591508082111561240f578384fd5b61241b8c838d016120f5565b909650945060608b0135915080821115612433578384fd5b506124408b828c016120f5565b999c989b5096995094979396929594505050565b60008060008060008060008060008060a08b8d031215612472578384fd5b8a356001600160401b0380821115612488578586fd5b6124948e838f016120f5565b909c509a5060208d01359150808211156124ac578586fd5b6124b88e838f016120f5565b909a50985060408d01359150808211156124d0578586fd5b6124dc8e838f016120f5565b909850965060608d01359150808211156124f4578586fd5b6125008e838f016120f5565b909650945060808d0135915080821115612518578384fd5b506125258d828e016120f5565b915080935050809150509295989b9194979a5092959850565b60008060008060008060a08789031215612556578384fd5b86356001600160401b0381111561256b578485fd5b61257789828a016120f5565b90975095505060208701359350604087013561259281613291565b92506060870135915060808701356125a981613291565b809150509295509295509295565b6000602082840312156125c8578081fd5b81356001600160401b038111156125dd578182fd5b6121a48482850161213b565b60008060008060008060c08789031215612601578384fd5b86356001600160401b0380821115612617578586fd5b6126238a838b0161213b565b97506020890135915061263582613291565b9095506040880135945060608801359080821115612651578384fd5b5061265e89828a0161213b565b935050608087013561266f81613291565b8092505060a087013590509295509295509295565b60008060408385031215612696578182fd5b82356001600160401b03808211156126ac578384fd5b6126b88683870161213b565b935060208501359150808211156126cd578283fd5b506126da8582860161213b565b9150509250929050565b6000602082840312156126f5578081fd5b81516001600160401b038082111561270b578283fd5b9083019060e0828603121561271e578283fd5b61272860e061317b565b8251815260208301518281111561273d578485fd5b61274987828601612161565b602083015250604083015182811115612760578485fd5b61276c87828601612161565b604083015250606083015182811115612783578485fd5b61278f87828601612161565b6060830152506127a286608085016121ac565b60808201526127b360a084016120e5565b60a082015260c0830151828111156127c9578485fd5b6127d587828601612161565b60c08301525095945050505050565b6000602082840312156127f5578081fd5b5035919050565b60008060008060008060c08789031215612814578384fd5b86359550602087013561282681613291565b9450604087013561283681613291565b9350606087013561284681613291565b9598949750929560808101359460a0909101359350915050565b60008060408385031215612872578182fd5b50508035926020909101359150565b60008060408385031215612893578182fd5b8235915060208301356001600160401b038111156128af578182fd5b6126da8582860161213b565b6001600160a01b03169052565b15159052565b600081518084526128e68160208601602086016131e3565b601f01601f19169290920160200192915050565b600081546129078161320f565b6001828116801561291f57600181146129305761295f565b60ff1984168752828701945061295f565b8560005260208060002060005b858110156129565781548a82015290840190820161293d565b50505082870194505b5050505092915050565b60008284528282602086013780602084860101526020601f19601f85011685010190509392505050565b600081546129a08161320f565b8085526020600183811680156129bd57600181146129d1576129ff565b60ff198516888401526040880195506129ff565b866000528260002060005b858110156129f75781548a82018601529083019084016129dc565b890184019650505b505050505092915050565b60008251612a1c8184602087016131e3565b9190910192915050565b600061215a82846128fa565b6000828483379101908152919050565b600086888337868201818152858782378501818152838582379092019182525095945050505050565b723932b1b2b4bb32afb6b0ba31b42fb7b93232b960691b815260130190565b751c9958d95a5d9957dd1c985b9cd9995c97d85cdcd95d60521b815260160190565b90815260200190565b6001600160a01b0391909116815260200190565b6001600160a01b039384168152919092166020820152604081019190915260600190565b6001600160a01b03929092168252602082015260400190565b60208082528251828201819052600091906040908185019080840286018301878501865b83811015612c2157603f1989840301855281516101808151855288820151612b548a8701826128bb565b5087820151612b65898701826128bb565b50606080830151612b78828801826128bb565b50506080828101519086015260a0808301519086015260c0808301519086015260e080830151612baa828801826128c8565b5050610100808301518282880152612bc4838801826128ce565b925050506101208083015186830382880152612be083826128ce565b9250505061014080830151612bf7828801826128c8565b50506101609182015191612c0d868201846128c8565b509588019593505090860190600101612b2a565b509098975050505050505050565b901515815260200190565b600060408252612c4e604083018688612969565b8281036020840152612c61818587612969565b979650505050505050565b600060a08252612c8060a08301888a612969565b8281036020840152612c928188612993565b90508281036040840152612ca68187612993565b905060ff85511660608401528281036080840152612cc481856128ce565b9998505050505050505050565b60006020825261215a60208301846128ce565b600060408252612cf760408301856128ce565b8281036020840152612d0981856128ce565b95945050505050565b600060608252612d2560608301866128ce565b8281036020840152612d3781866128ce565b9150508215156040830152949350505050565b600060a08252612d5d60a0830188612993565b8281036020840152612d6f8188612993565b90508281036040840152612d838187612993565b905060ff85511660608401528281036080840152612da181856128ce565b98975050505050505050565b60208082526026908201527f4f776e61626c653a206e6577206f776e657220697320746865207a65726f206160408201526564647265737360d01b606082015260800190565b6020808252818101527f4f776e61626c653a2063616c6c6572206973206e6f7420746865206f776e6572604082015260600190565b60208082526021908201527f6d6573736167652073656e646572206973206e6f7420726567697374657265646040820152602160f81b606082015260800190565b6020808252601590820152741858dd1a5bdb881b9bdd081c9959da5cdd195c9959605a1b604082015260600190565b6020808252601d908201527f7472616e736665725f6173736574206e6f742072656769737465726564000000604082015260600190565b6020808252818101527f4c6f636b65723a2063616c6c6572206973206e6f742043726f7373436861696e604082015260600190565b60208082526017908201527f7472616e7366657220746f2073776170206661696c6564000000000000000000604082015260600190565b600060208252825160406020840152612f5760608401826128ce565b90506020840151601f19848303016040850152612d0982826128ce565b60006020825282516020830152602083015160e06040840152612f9b6101008401826128ce565b90506040840151601f1980858403016060860152612fb983836128ce565b92506060860151915080858403016080860152612fd683836128ce565b925060ff6080870151511660a086015260a08601519150612ffa60c08601836128bb565b60c08601519150808584030160e086015250612d0982826128ce565b9586526001600160a01b03948516602087015292841660408601529216606084015260ff909116608083015260a082015260c00190565b8c81526001600160a01b038c811660208301528b811660408301528a1660608201526080810189905260a0810188905260c0810187905285151560e082015261018061010082018190526000906130a6838201886128ce565b90508281036101208401526130bb81876128ce565b9150508315156101408301526130d56101608301846128c8565b9d9c50505050505050505050505050565b918252602082015260400190565b60006101608d835280602084015261310e8184018e6128ce565b6001600160a01b038d811660408601528c81166060860152608085018c905260a085018b905260c085018a905260e085018990528716610100850152838103610120850152905061315f81866128ce565b9150508215156101408301529c9b505050505050505050505050565b6040518181016001600160401b038111828210171561319c5761319c61327b565b604052919050565b60006001600160401b038211156131bd576131bd61327b565b50601f01601f191660200190565b600082198211156131de576131de613265565b500190565b60005b838110156131fe5781810151838201526020016131e6565b83811115610b5e5750506000910152565b60028104600182168061322357607f821691505b6020821081141561324457634e487b7160e01b600052602260045260246000fd5b50919050565b600060001982141561325e5761325e613265565b5060010190565b634e487b7160e01b600052601160045260246000fd5b634e487b7160e01b600052604160045260246000fd5b6001600160a01b03811681146103c157600080fdfea2646970667358221220d9e0d242be6bf1d2b892d1cb2a1cd0243b4ea97d212862991cecbd3f8700e36264736f6c63430008000033",
  "immutableReferences": {},
  "source": "// SPDX-License-Identifier: MIT\npragma solidity 0.8.0;\n\nimport \"@openzeppelin/contracts/token/ERC20/IERC20.sol\";\nimport \"./CrossChain/ContractBase.sol\";\n\ncontract Swap is ContractBase {\n    // Destination contract info\n    struct DestnContract {\n        string contractAddress; // destination contract address\n        string funcName; // destination contract action name\n        bool used;\n    }\n\n    struct Order {\n        uint256 orderId;\n        address sender;\n        address tokenContract;\n        address toTokenContract;\n        uint256 amount;\n        uint256 toAmount;\n        // bytes32 hashlock;\n        uint256 createTime;\n        // uint256 timelock; // locked UNTIL this time.\n        bool cancelled;\n        string fromChainId;\n        string toChainId;\n        bool filled;\n        bool transfer;\n    }\n\n    struct OrderFill {\n        uint256 orderId;\n        string fromChainId;\n        address sender;\n        address tokenContract;\n        uint256 amount;\n        bytes32 hashlock;\n        uint256 createTime;\n        uint256 timelock; // locked UNTIL this time.\n        address payee;\n        string status;\n        bool transfer;\n    }\n\n    // Cross-chain destination contract map\n    mapping(string => mapping(string => DestnContract)) public destnContractMap;\n\n    // Cross-chain permitted contract map\n    mapping(string => mapping(string => string)) public permittedContractMap;\n\n    mapping(uint256 => Order) public idToOrder;\n    uint256 _orderIds;\n\n    mapping(uint256 => OrderFill) public idToFillOrder;\n    uint256 _fillOrderIds;\n\n    constructor() public {}\n\n    function create_order(\n        string memory chain_from,\n        address asset_from,\n        uint256 amount_from,\n        string memory chain_to,\n        address asset_to,\n        uint256 amount_to\n    ) public returns (bool) {\n        bool ret = IERC20(asset_from).transferFrom(\n            msg.sender,\n            address(this),\n            amount_from\n        );\n        require(ret, \"transfer to swap failed\");\n    \n        idToOrder[_orderIds] = Order(\n            _orderIds,\n            msg.sender,\n            asset_from,\n            asset_to,\n            amount_from,\n            amount_to,\n            // sha256(abi.encodePacked(uint256(0))),\n            block.timestamp,\n            false,\n            chain_from,\n            chain_to,\n            false,\n            false\n        );\n        _orderIds = _orderIds + 1;\n        return true;\n    }\n\n    function query_order(uint256 order_id) public {}\n\n    function query_all_orders() public view returns (Order[] memory) {\n        uint256 orderCount = _orderIds;\n        Order[] memory orders = new Order[](orderCount);\n        for (uint256 i = 0; i < orderCount; i++) {\n            Order storage order = idToOrder[i];\n            orders[i] = order;\n        }\n        return orders;\n    }\n\n    function match_order(\n        string calldata chain_id,\n        uint256 order_id,\n        address asset,\n        uint256 amount, \n        address payee\n    ) public {\n        bool ret = IERC20(asset).transferFrom(msg.sender, address(this), amount);\n        require(ret, \"transfer to swap failed\");\n        idToFillOrder[_fillOrderIds] = OrderFill(\n            order_id,\n            chain_id,\n            msg.sender,\n            asset,\n            amount,\n            sha256(abi.encodePacked(uint256(0))),\n            block.timestamp,\n            block.timestamp + 3600,\n            payee,\n            \"created\",\n            false\n        );\n        _fillOrderIds = _fillOrderIds + 1;\n\n        mapping(string => DestnContract) storage map = destnContractMap[\n            chain_id\n        ];\n        DestnContract storage destnContract = map[\"receive_match_order\"];\n        require(destnContract.used, \"action not registered\");\n\n        bytes memory data = abi.encode(order_id, msg.sender, asset, msg.sender, 1, sha256(abi.encodePacked(uint(0))));\n        SQOS memory sqos = SQOS(0);\n        crossChainContract.sendMessage(\n            chain_id,\n            destnContract.contractAddress,\n            destnContract.funcName,\n            sqos,\n            data\n        );\n    }\n\n    function receive_match_order(\n        uint256 order_id,\n        address payee_address,\n        address from_chain_payee,\n        address from_chain_asset,\n        uint256 amount,\n        bytes32 hash\n    ) public {\n        require(\n            msg.sender == address(crossChainContract),\n            \"Locker: caller is not CrossChain\"\n        );\n\n        // `context` used for verify the operation authority\n        SimplifiedMessage memory context = getContext();\n        // verify sqos\n        // require(context.sqos.reveal == 1, \"SQoS invalid!\");\n\n        // verify the sender from the registered chain\n        mapping(string => string)\n            storage permittedContract = permittedContractMap[context.fromChain];\n\n        require(\n            keccak256(bytes(permittedContract[context.action])) ==\n                keccak256(bytes(context.sender)),\n            \"message sender is not registered!\"\n        );\n\n        Order storage order = idToOrder[order_id];\n        order.filled = true;\n        bool ret = IERC20(order.tokenContract).transfer(\n            payee_address,\n            order.amount\n        );\n        order.transfer = ret;\n        // require(ret, \"transfer payee failed\");\n      \n        // send receive_transfer_asset\n        mapping(string => DestnContract) storage map = destnContractMap[\n            order.toChainId\n        ];\n        DestnContract storage destnContract = map[\"receive_transfer_asset\"];\n        require(destnContract.used, \"transfer_asset not registered\");\n\n        bytes memory data = abi.encode(order_id, sha256(abi.encodePacked(uint(0))));\n        SQOS memory sqos = SQOS(0);\n        crossChainContract.sendMessage(\n            order.toChainId,\n            destnContract.contractAddress,\n            destnContract.funcName,\n            sqos,\n            data\n        );\n    }\n\n    function unlock_asset(uint256 order_id, string memory key) public {}\n\n    function receive_transfer_asset(uint256 order_id, bytes32 hash) public {\n        uint256 orderCount = _fillOrderIds;\n        for (uint256 i = 0; i < orderCount; i++) {\n            OrderFill storage order = idToFillOrder[i];\n            if (order.orderId == order_id){\n                bool ret = IERC20(order.tokenContract).transfer(order.payee, order.amount);\n                order.status = \"done\";\n                order.transfer = ret;\n            }\n        }\n    }\n\n    function registerDestnContract(\n        string calldata _funcName,\n        string calldata _toChain,\n        string calldata _contractAddress,\n        string calldata _contractFuncName\n    ) external onlyOwner {\n        mapping(string => DestnContract) storage map = destnContractMap[\n            _toChain\n        ];\n        DestnContract storage destnContract = map[_funcName];\n        destnContract.contractAddress = _contractAddress;\n        destnContract.funcName = _contractFuncName;\n        destnContract.used = true;\n    }\n\n    function registerPermittedContract(\n        string calldata _chainName,\n        string calldata _sender,\n        string calldata _funcName\n    ) external onlyOwner {\n        mapping(string => string) storage map = permittedContractMap[\n            _chainName\n        ];\n        map[_funcName] = _sender;\n    }\n\n    function verify(\n        string calldata _chainName,\n        string calldata _funcName,\n        string calldata _sender\n    ) public view virtual returns (bool) {\n        return true;\n    }\n}\n",
  "sourcePath": "/Users/fsy412/code/Demo-Swap/contracts/Swap.sol",
  "compiler": {
    "name": "solc",
    "version": "0.8.0+commit.c7dfd78e.Emscripten.clang"
  },
  "schemaVersion": "3.4.6",
  "updatedAt": "2022-04-18T08:40:26.288Z",
  "devdoc": {
    "kind": "dev",
    "methods": {
      "getMessageABI(string,string,string)": {
        "params": {
          "_destnChainName": "- destination chain name",
          "_destnContractName": "- destination contract name",
          "_funcName": "- destination contract function name"
        }
      },
      "owner()": {
        "details": "Returns the address of the current owner."
      },
      "registerContractABI(string,string)": {
        "params": {
          "_contractABI": "- contract action abi",
          "_funcName": "- contract action name"
        }
      },
      "registerMessageABI(string,string,string,string,string)": {
        "params": {
          "_destnChainName": "- destination chain name",
          "_destnContractName": "- destination contract name",
          "_funcName": "- destination contract function name",
          "_paramName": "- action param name",
          "_paramType": "- action param types"
        }
      },
      "renounceOwnership()": {
        "details": "Leaves the contract without owner. It will not be possible to call `onlyOwner` functions anymore. Can only be called by the current owner. NOTE: Renouncing ownership will leave the contract without an owner, thereby removing any functionality that is only available to the owner."
      },
      "setCrossChainContract(address)": {
        "params": {
          "_address": "- cross chain contract address"
        }
      },
      "transferOwnership(address)": {
        "details": "Transfers ownership of the contract to a new account (`newOwner`). Can only be called by the current owner."
      }
    },
    "version": 1
  },
  "userdoc": {
    "kind": "user",
    "methods": {
      "getMessageABI(string,string,string)": {
        "notice": "Get Registered message ABI to encode/decode message"
      },
      "registerContractABI(string,string)": {
        "notice": "contract ABI used to encode/decode messages sent to this contract"
      },
      "registerMessageABI(string,string,string,string,string)": {
        "notice": "message ABI used to encode/decode messages sent from this contract"
      },
      "setCrossChainContract(address)": {
        "notice": "Set cross chain contract"
      }
    },
    "version": 1
  }
}