{
  "contractName": "Swap",
  "abi": [
    {
      "inputs": [],
      "stateMutability": "nonpayable",
      "type": "constructor"
    },
    {
      "anonymous": false,
      "inputs": [
        {
          "indexed": true,
          "internalType": "address",
          "name": "previousOwner",
          "type": "address"
        },
        {
          "indexed": true,
          "internalType": "address",
          "name": "newOwner",
          "type": "address"
        }
      ],
      "name": "OwnershipTransferred",
      "type": "event"
    },
    {
      "inputs": [
        {
          "internalType": "string",
          "name": "",
          "type": "string"
        }
      ],
      "name": "contractABIMap",
      "outputs": [
        {
          "internalType": "string",
          "name": "",
          "type": "string"
        }
      ],
      "stateMutability": "view",
      "type": "function"
    },
    {
      "inputs": [],
      "name": "crossChainContract",
      "outputs": [
        {
          "internalType": "contract ICrossChain",
          "name": "",
          "type": "address"
        }
      ],
      "stateMutability": "view",
      "type": "function"
    },
    {
      "inputs": [
        {
          "internalType": "string",
          "name": "",
          "type": "string"
        },
        {
          "internalType": "string",
          "name": "",
          "type": "string"
        }
      ],
      "name": "destnContractMap",
      "outputs": [
        {
          "internalType": "string",
          "name": "contractAddress",
          "type": "string"
        },
        {
          "internalType": "string",
          "name": "funcName",
          "type": "string"
        },
        {
          "internalType": "bool",
          "name": "used",
          "type": "bool"
        }
      ],
      "stateMutability": "view",
      "type": "function"
    },
    {
      "inputs": [],
      "name": "getContext",
      "outputs": [
        {
          "components": [
            {
              "internalType": "uint256",
              "name": "id",
              "type": "uint256"
            },
            {
              "internalType": "string",
              "name": "fromChain",
              "type": "string"
            },
            {
              "internalType": "string",
              "name": "sender",
              "type": "string"
            },
            {
              "internalType": "string",
              "name": "signer",
              "type": "string"
            },
            {
              "components": [
                {
                  "internalType": "uint8",
                  "name": "reveal",
                  "type": "uint8"
                }
              ],
              "internalType": "struct SQOS",
              "name": "sqos",
              "type": "tuple"
            },
            {
              "internalType": "address",
              "name": "contractAddress",
              "type": "address"
            },
            {
              "internalType": "string",
              "name": "action",
              "type": "string"
            }
          ],
          "internalType": "struct SimplifiedMessage",
          "name": "",
          "type": "tuple"
        }
      ],
      "stateMutability": "view",
      "type": "function"
    },
    {
      "inputs": [
        {
          "internalType": "string",
          "name": "_destnChainName",
          "type": "string"
        },
        {
          "internalType": "string",
          "name": "_destnContractName",
          "type": "string"
        },
        {
          "internalType": "string",
          "name": "_funcName",
          "type": "string"
        }
      ],
      "name": "getMessageABI",
      "outputs": [
        {
          "components": [
            {
              "internalType": "string",
              "name": "parametertypes",
              "type": "string"
            },
            {
              "internalType": "string",
              "name": "parameterNames",
              "type": "string"
            }
          ],
          "internalType": "struct ContractBase.MessageABI",
          "name": "",
          "type": "tuple"
        }
      ],
      "stateMutability": "view",
      "type": "function"
    },
    {
      "inputs": [
        {
          "internalType": "uint256",
          "name": "",
          "type": "uint256"
        }
      ],
      "name": "idToFillOrder",
      "outputs": [
        {
          "internalType": "uint256",
          "name": "orderId",
          "type": "uint256"
        },
        {
          "internalType": "string",
          "name": "fromChainId",
          "type": "string"
        },
        {
          "internalType": "address",
          "name": "sender",
          "type": "address"
        },
        {
          "internalType": "address",
          "name": "tokenContract",
          "type": "address"
        },
        {
          "internalType": "uint256",
          "name": "amount",
          "type": "uint256"
        },
        {
          "internalType": "bytes32",
          "name": "hashlock",
          "type": "bytes32"
        },
        {
          "internalType": "uint256",
          "name": "createTime",
          "type": "uint256"
        },
        {
          "internalType": "uint256",
          "name": "timelock",
          "type": "uint256"
        },
        {
          "internalType": "address",
          "name": "payee",
          "type": "address"
        }
      ],
      "stateMutability": "view",
      "type": "function"
    },
    {
      "inputs": [
        {
          "internalType": "uint256",
          "name": "",
          "type": "uint256"
        }
      ],
      "name": "idToOrder",
      "outputs": [
        {
          "internalType": "uint256",
          "name": "orderId",
          "type": "uint256"
        },
        {
          "internalType": "address",
          "name": "sender",
          "type": "address"
        },
        {
          "internalType": "address",
          "name": "tokenContract",
          "type": "address"
        },
        {
          "internalType": "address",
          "name": "toTokenContract",
          "type": "address"
        },
        {
          "internalType": "uint256",
          "name": "amount",
          "type": "uint256"
        },
        {
          "internalType": "uint256",
          "name": "toAmount",
          "type": "uint256"
        },
        {
          "internalType": "bytes32",
          "name": "hashlock",
          "type": "bytes32"
        },
        {
          "internalType": "uint256",
          "name": "createTime",
          "type": "uint256"
        },
        {
          "internalType": "bool",
          "name": "cancelled",
          "type": "bool"
        },
        {
          "internalType": "string",
          "name": "fromChainId",
          "type": "string"
        },
        {
          "internalType": "string",
          "name": "toChainId",
          "type": "string"
        },
        {
          "internalType": "bool",
          "name": "filled",
          "type": "bool"
        }
      ],
      "stateMutability": "view",
      "type": "function"
    },
    {
      "inputs": [
        {
          "internalType": "bytes",
          "name": "",
          "type": "bytes"
        }
      ],
      "name": "messageABIMap",
      "outputs": [
        {
          "internalType": "string",
          "name": "parametertypes",
          "type": "string"
        },
        {
          "internalType": "string",
          "name": "parameterNames",
          "type": "string"
        }
      ],
      "stateMutability": "view",
      "type": "function"
    },
    {
      "inputs": [],
      "name": "owner",
      "outputs": [
        {
          "internalType": "address",
          "name": "",
          "type": "address"
        }
      ],
      "stateMutability": "view",
      "type": "function"
    },
    {
      "inputs": [
        {
          "internalType": "string",
          "name": "",
          "type": "string"
        },
        {
          "internalType": "string",
          "name": "",
          "type": "string"
        }
      ],
      "name": "permittedContractMap",
      "outputs": [
        {
          "internalType": "string",
          "name": "",
          "type": "string"
        }
      ],
      "stateMutability": "view",
      "type": "function"
    },
    {
      "inputs": [
        {
          "internalType": "string",
          "name": "_funcName",
          "type": "string"
        },
        {
          "internalType": "string",
          "name": "_contractABI",
          "type": "string"
        }
      ],
      "name": "registerContractABI",
      "outputs": [],
      "stateMutability": "nonpayable",
      "type": "function"
    },
    {
      "inputs": [
        {
          "internalType": "string",
          "name": "_destnChainName",
          "type": "string"
        },
        {
          "internalType": "string",
          "name": "_destnContractName",
          "type": "string"
        },
        {
          "internalType": "string",
          "name": "_funcName",
          "type": "string"
        },
        {
          "internalType": "string",
          "name": "_paramType",
          "type": "string"
        },
        {
          "internalType": "string",
          "name": "_paramName",
          "type": "string"
        }
      ],
      "name": "registerMessageABI",
      "outputs": [],
      "stateMutability": "nonpayable",
      "type": "function"
    },
    {
      "inputs": [],
      "name": "renounceOwnership",
      "outputs": [],
      "stateMutability": "nonpayable",
      "type": "function"
    },
    {
      "inputs": [
        {
          "internalType": "address",
          "name": "_address",
          "type": "address"
        }
      ],
      "name": "setCrossChainContract",
      "outputs": [],
      "stateMutability": "nonpayable",
      "type": "function"
    },
    {
      "inputs": [
        {
          "internalType": "address",
          "name": "newOwner",
          "type": "address"
        }
      ],
      "name": "transferOwnership",
      "outputs": [],
      "stateMutability": "nonpayable",
      "type": "function"
    },
    {
      "inputs": [
        {
          "internalType": "string",
          "name": "chain_from",
          "type": "string"
        },
        {
          "internalType": "address",
          "name": "asset_from",
          "type": "address"
        },
        {
          "internalType": "uint256",
          "name": "amount_from",
          "type": "uint256"
        },
        {
          "internalType": "string",
          "name": "chain_to",
          "type": "string"
        },
        {
          "internalType": "address",
          "name": "asset_to",
          "type": "address"
        },
        {
          "internalType": "uint256",
          "name": "amount_to",
          "type": "uint256"
        }
      ],
      "name": "create_order",
      "outputs": [
        {
          "internalType": "bool",
          "name": "",
          "type": "bool"
        }
      ],
      "stateMutability": "nonpayable",
      "type": "function"
    },
    {
      "inputs": [
        {
          "internalType": "uint256",
          "name": "order_id",
          "type": "uint256"
        }
      ],
      "name": "query_order",
      "outputs": [],
      "stateMutability": "nonpayable",
      "type": "function"
    },
    {
      "inputs": [],
      "name": "query_all_orders",
      "outputs": [
        {
          "components": [
            {
              "internalType": "uint256",
              "name": "orderId",
              "type": "uint256"
            },
            {
              "internalType": "address",
              "name": "sender",
              "type": "address"
            },
            {
              "internalType": "address",
              "name": "tokenContract",
              "type": "address"
            },
            {
              "internalType": "address",
              "name": "toTokenContract",
              "type": "address"
            },
            {
              "internalType": "uint256",
              "name": "amount",
              "type": "uint256"
            },
            {
              "internalType": "uint256",
              "name": "toAmount",
              "type": "uint256"
            },
            {
              "internalType": "bytes32",
              "name": "hashlock",
              "type": "bytes32"
            },
            {
              "internalType": "uint256",
              "name": "createTime",
              "type": "uint256"
            },
            {
              "internalType": "bool",
              "name": "cancelled",
              "type": "bool"
            },
            {
              "internalType": "string",
              "name": "fromChainId",
              "type": "string"
            },
            {
              "internalType": "string",
              "name": "toChainId",
              "type": "string"
            },
            {
              "internalType": "bool",
              "name": "filled",
              "type": "bool"
            }
          ],
          "internalType": "struct Swap.Order[]",
          "name": "",
          "type": "tuple[]"
        }
      ],
      "stateMutability": "view",
      "type": "function"
    },
    {
      "inputs": [
        {
          "internalType": "string",
          "name": "chain_id",
          "type": "string"
        },
        {
          "internalType": "uint256",
          "name": "order_id",
          "type": "uint256"
        },
        {
          "internalType": "address",
          "name": "asset",
          "type": "address"
        },
        {
          "internalType": "uint256",
          "name": "amount",
          "type": "uint256"
        }
      ],
      "name": "match_order",
      "outputs": [],
      "stateMutability": "nonpayable",
      "type": "function"
    },
    {
      "inputs": [
        {
          "internalType": "uint256",
          "name": "order_id",
          "type": "uint256"
        },
        {
          "internalType": "address",
          "name": "payee_address",
          "type": "address"
        },
        {
          "internalType": "address",
          "name": "from_chain_payee",
          "type": "address"
        },
        {
          "internalType": "address",
          "name": "from_chain_asset",
          "type": "address"
        },
        {
          "internalType": "uint256",
          "name": "amount",
          "type": "uint256"
        },
        {
          "internalType": "bytes32",
          "name": "hash",
          "type": "bytes32"
        }
      ],
      "name": "receive_match_order",
      "outputs": [],
      "stateMutability": "nonpayable",
      "type": "function"
    },
    {
      "inputs": [
        {
          "internalType": "uint256",
          "name": "order_id",
          "type": "uint256"
        },
        {
          "internalType": "string",
          "name": "key",
          "type": "string"
        }
      ],
      "name": "unlock_asset",
      "outputs": [],
      "stateMutability": "nonpayable",
      "type": "function"
    },
    {
      "inputs": [
        {
          "internalType": "uint256",
          "name": "order_id",
          "type": "uint256"
        },
        {
          "internalType": "bytes32",
          "name": "hash",
          "type": "bytes32"
        }
      ],
      "name": "receive_transfer_asset",
      "outputs": [],
      "stateMutability": "nonpayable",
      "type": "function"
    },
    {
      "inputs": [
        {
          "internalType": "string",
          "name": "_funcName",
          "type": "string"
        },
        {
          "internalType": "string",
          "name": "_toChain",
          "type": "string"
        },
        {
          "internalType": "string",
          "name": "_contractAddress",
          "type": "string"
        },
        {
          "internalType": "string",
          "name": "_contractFuncName",
          "type": "string"
        }
      ],
      "name": "registerDestnContract",
      "outputs": [],
      "stateMutability": "nonpayable",
      "type": "function"
    },
    {
      "inputs": [
        {
          "internalType": "string",
          "name": "_chainName",
          "type": "string"
        },
        {
          "internalType": "string",
          "name": "_sender",
          "type": "string"
        },
        {
          "internalType": "string",
          "name": "_funcName",
          "type": "string"
        }
      ],
      "name": "registerPermittedContract",
      "outputs": [],
      "stateMutability": "nonpayable",
      "type": "function"
    },
    {
      "inputs": [
        {
          "internalType": "string",
          "name": "_chainName",
          "type": "string"
        },
        {
          "internalType": "string",
          "name": "_funcName",
          "type": "string"
        },
        {
          "internalType": "string",
          "name": "_sender",
          "type": "string"
        }
      ],
      "name": "verify",
      "outputs": [
        {
          "internalType": "bool",
          "name": "",
          "type": "bool"
        }
      ],
      "stateMutability": "view",
      "type": "function"
    }
  ],
  "bytecode": "0x60806040523480156200001157600080fd5b5062000026620000206200002c565b62000030565b62000080565b3390565b600080546001600160a01b038381166001600160a01b0319831681178455604051919092169283917f8be0079c531659141344cd1fd0a4f28419497f9722a3daafe3b4186f6b6457e09190a35050565b61314c80620000906000396000f3fe608060405234801561001057600080fd5b50600436106101735760003560e01c8063709d2d75116100de578063ac95d83011610097578063d469270311610071578063d46927031461037e578063dbc90de114610391578063f2fde38b14610399578063ff96254b146103ac57610173565b8063ac95d83014610338578063babe5dd614610358578063bb45acd91461036b57610173565b8063709d2d75146102a8578063715018a6146102bb57806379f6793c146102c357806380899bba146102d65780638da5cb5b146102f85780638f1ec88f1461030d57610173565b80632639c423116101305780632639c423146101f95780632fec80991461021a5780633ad16b7a1461022d5780633b6c9e261461024d5780635fe78c6c1461027557806366e1f8201461029557610173565b80630bec7e7c14610178578063127f0f071461018d57806318d72b54146101ab5780631ff05bcd146101be578063246da888146101d157806325a435de146101e6575b600080fd5b61018b61018636600461266d565b6103bf565b005b6101956103c2565b6040516101a29190612df4565b60405180910390f35b61018b6101b936600461209e565b610459565b61018b6101cc366004612685565b6104c3565b6101d96107aa565b6040516101a2919061298f565b61018b6101f43660046126e9565b610a2e565b61020c6102073660046120f2565b610afc565b6040516101a2929190612b64565b61018b61022836600461270a565b610c33565b61024061023b36600461219f565b610c37565b6040516101a29190612dbb565b61026061025b36600461266d565b610dbf565b6040516101a299989796959493929190612f67565b610288610283366004612440565b610e9f565b6040516101a29190612b51565b61018b6102a3366004612137565b610f44565b61018b6102b63660046123dc565b610ff1565b61018b6113e8565b61018b6102d136600461219f565b611433565b6102e96102e436600461250d565b6114c3565b6040516101a293929190612b92565b610300611620565b6040516101a2919061293e565b61032061031b36600461266d565b61162f565b6040516101a29c9b9a99989796959493929190612ecb565b61034b610346366004612472565b6117b5565b6040516101a29190612aaf565b61018b610366366004612234565b611a55565b61028861037936600461250d565b611b10565b61018b61038c3660046122f2565b611b51565b610300611c89565b61018b6103a736600461209e565b611c98565b61034b6103ba36600461219f565b611d06565b50565b6103ca611d66565b600360009054906101000a90046001600160a01b03166001600160a01b0316639af7a48c6040518163ffffffff1660e01b815260040160006040518083038186803b15801561041857600080fd5b505afa15801561042c573d6000803e3d6000fd5b505050506040513d6000823e601f3d908101601f19168201604052610454919081019061256d565b905090565b610461611d12565b6001600160a01b0316610472611620565b6001600160a01b0316146104a15760405162461bcd60e51b815260040161049890612c73565b60405180910390fd5b600380546001600160a01b0319166001600160a01b0392909216919091179055565b6003546001600160a01b031633146104ed5760405162461bcd60e51b815260040161049890612d4f565b60006104f76103c2565b905060006005826020015160405161050f9190612893565b90815260200160405180910390209050816040015180519060200120818360c0015160405161053e9190612893565b908152604051908190036020018120610556916128af565b60405180910390201461057b5760405162461bcd60e51b815260040161049890612ca8565b600088815260066020526040808220600b8101805460ff191660011790556002810154600480830154935163a9059cbb60e01b81529294936001600160a01b039092169263a9059cbb926105d1928e9201612976565b602060405180830381600087803b1580156105eb57600080fd5b505af11580156105ff573d6000803e3d6000fd5b505050506040513d601f19601f8201168201806040525081019061062391906120ba565b90506000600483600a0160405161063a91906128af565b9081526020016040518091039020905060008160405161065990612913565b908152604051908190036020019020600281015490915060ff1661068f5760405162461bcd60e51b815260040161049890612d18565b60008c600260006040516020016106a69190612935565b60408051601f19818403018152908290526106c091612893565b602060405180830381855afa1580156106dd573d6000803e3d6000fd5b5050506040513d601f19601f8201168201806040525081019061070091906120da565b604051602001610711929190612f59565b60408051601f1981840301815260208301825260008352600354915163ef565bbf60e01b81529093506001600160a01b039091169063ef565bbf9061076890600a8a01908790600182019087908990600401612bca565b600060405180830381600087803b15801561078257600080fd5b505af1158015610796573d6000803e3d6000fd5b505050505050505050505050505050505050565b6007546060906000816001600160401b038111156107d857634e487b7160e01b600052604160045260246000fd5b60405190808252806020026020018201604052801561081157816020015b6107fe611da9565b8152602001906001900390816107f65790505b50905060005b82811015610a27576000818152600660208181526040928390208351610180810185528154815260018201546001600160a01b039081169382019390935260028201548316948101949094526003810154909116606084015260048101546080840152600581015460a08401529081015460c0830152600781015460e0830152600881015460ff16151561010083015260098101805491929183916101208401916108c19061307f565b80601f01602080910402602001604051908101604052809291908181526020018280546108ed9061307f565b801561093a5780601f1061090f5761010080835404028352916020019161093a565b820191906000526020600020905b81548152906001019060200180831161091d57829003601f168201915b50505050508152602001600a820180546109539061307f565b80601f016020809104026020016040519081016040528092919081815260200182805461097f9061307f565b80156109cc5780601f106109a1576101008083540402835291602001916109cc565b820191906000526020600020905b8154815290600101906020018083116109af57829003601f168201915b5050509183525050600b919091015460ff1615156020909101528351849084908110610a0857634e487b7160e01b600052603260045260246000fd5b6020026020010181905250508080610a1f906130ba565b915050610817565b5091505090565b60095460005b81811015610af6576000818152600860208190526040808320600381015492810154600480830154935163a9059cbb60e01b81529295946001600160a01b039081169463a9059cbb94610a8d9490921692909101612976565b602060405180830381600087803b158015610aa757600080fd5b505af1158015610abb573d6000803e3d6000fd5b505050506040513d601f19601f82011682018060405250810190610adf91906120ba565b905050508080610aee906130ba565b915050610a34565b50505050565b8051602081830181018051600182529282019190930120915280548190610b229061307f565b80601f0160208091040260200160405190810160405280929190818152602001828054610b4e9061307f565b8015610b9b5780601f10610b7057610100808354040283529160200191610b9b565b820191906000526020600020905b815481529060010190602001808311610b7e57829003601f168201915b505050505090806001018054610bb09061307f565b80601f0160208091040260200160405190810160405280929190818152602001828054610bdc9061307f565b8015610c295780601f10610bfe57610100808354040283529160200191610c29565b820191906000526020600020905b815481529060010190602001808311610c0c57829003601f168201915b5050505050905082565b5050565b610c3f611e0c565b6001878787878787604051602001610c5c969594939291906128cb565b60408051601f1981840301815290829052610c7691612893565b9081526020016040518091039020604051806040016040529081600082018054610c9f9061307f565b80601f0160208091040260200160405190810160405280929190818152602001828054610ccb9061307f565b8015610d185780601f10610ced57610100808354040283529160200191610d18565b820191906000526020600020905b815481529060010190602001808311610cfb57829003601f168201915b50505050508152602001600182018054610d319061307f565b80601f0160208091040260200160405190810160405280929190818152602001828054610d5d9061307f565b8015610daa5780601f10610d7f57610100808354040283529160200191610daa565b820191906000526020600020905b815481529060010190602001808311610d8d57829003601f168201915b50505050508152505090509695505050505050565b60086020526000908152604090208054600182018054919291610de19061307f565b80601f0160208091040260200160405190810160405280929190818152602001828054610e0d9061307f565b8015610e5a5780601f10610e2f57610100808354040283529160200191610e5a565b820191906000526020600020905b815481529060010190602001808311610e3d57829003601f168201915b50505060028401546003850154600486015460058701546006880154600789015460089099015497986001600160a01b03958616989486169750929550909390921689565b805160208183018101805160028252928201919093012091528054610ec39061307f565b80601f0160208091040260200160405190810160405280929190818152602001828054610eef9061307f565b8015610f3c5780601f10610f1157610100808354040283529160200191610f3c565b820191906000526020600020905b815481529060010190602001808311610f1f57829003601f168201915b505050505081565b610f4c611d12565b6001600160a01b0316610f5d611620565b6001600160a01b031614610f835760405162461bcd60e51b815260040161049890612c73565b6003546040516321c0551d60e11b81526001600160a01b0390911690634380aa3a90610fb9908790879087908790600401612aba565b600060405180830381600087803b158015610fd357600080fd5b505af1158015610fe7573d6000803e3d6000fd5b5050505050505050565b6040516323b872dd60e01b81526000906001600160a01b038416906323b872dd9061102490339030908790600401612952565b602060405180830381600087803b15801561103e57600080fd5b505af1158015611052573d6000803e3d6000fd5b505050506040513d601f19601f8201168201806040525081019061107691906120ba565b9050806110955760405162461bcd60e51b815260040161049890612d84565b60405180610120016040528085815260200187878080601f01602080910402602001604051908101604052809392919081815260200183838082843760009201829052509385525050336020808501919091526001600160a01b038816604080860191909152606085018890525160809094019360029361111893509101612935565b60408051601f198184030181529082905261113291612893565b602060405180830381855afa15801561114f573d6000803e3d6000fd5b5050506040513d601f19601f8201168201806040525081019061117291906120da565b815260200142815260200142610e1061118b919061301b565b815233602091820152600954600090815260088252604090208251815582820151805191926111c292600185019290910190611e26565b5060408201516002820180546001600160a01b03199081166001600160a01b0393841617909155606084015160038401805483169184169190911790556080840151600484015560a0840151600584015560c0840151600684015560e084015160078401556101009093015160089092018054909316911617905560095461124b90600161301b565b60095560405160009060049061126490899089906128bb565b90815260200160405180910390209050600081604051611283906128f4565b908152604051908190036020019020600281015490915060ff166112b95760405162461bcd60e51b815260040161049890612ce9565b6000863387816112d1670de0b6b3a76400008a613033565b600260006040516020016112e59190612935565b60408051601f19818403018152908290526112ff91612893565b602060405180830381855afa15801561131c573d6000803e3d6000fd5b5050506040513d601f19601f8201168201806040525081019061133f91906120da565b60405160200161135496959493929190612e96565b60408051601f1981840301815260208301825260008352600354915163ef565bbf60e01b81529093506001600160a01b039091169063ef565bbf906113aa908d908d908890600182019088908a90600401612aec565b600060405180830381600087803b1580156113c457600080fd5b505af11580156113d8573d6000803e3d6000fd5b5050505050505050505050505050565b6113f0611d12565b6001600160a01b0316611401611620565b6001600160a01b0316146114275760405162461bcd60e51b815260040161049890612c73565b6114316000611d16565b565b61143b611d12565b6001600160a01b031661144c611620565b6001600160a01b0316146114725760405162461bcd60e51b815260040161049890612c73565b6000600587876040516114869291906128bb565b9081526020016040518091039020905084848285856040516114a99291906128bb565b908152604051908190036020019020610fe7929091611eaa565b815160208184018101805160048252928201948201949094209190935281518083018401805192815290840192909301919091209152805481906115069061307f565b80601f01602080910402602001604051908101604052809291908181526020018280546115329061307f565b801561157f5780601f106115545761010080835404028352916020019161157f565b820191906000526020600020905b81548152906001019060200180831161156257829003601f168201915b5050505050908060010180546115949061307f565b80601f01602080910402602001604051908101604052809291908181526020018280546115c09061307f565b801561160d5780601f106115e25761010080835404028352916020019161160d565b820191906000526020600020905b8154815290600101906020018083116115f057829003601f168201915b5050506002909301549192505060ff1683565b6000546001600160a01b031690565b60066020819052600091825260409091208054600182015460028301546003840154600485015460058601549686015460078701546008880154600989018054989a6001600160a01b039889169a97891699989096169794969394929360ff9092169261169b9061307f565b80601f01602080910402602001604051908101604052809291908181526020018280546116c79061307f565b80156117145780601f106116e957610100808354040283529160200191611714565b820191906000526020600020905b8154815290600101906020018083116116f757829003601f168201915b50505050509080600a0180546117299061307f565b80601f01602080910402602001604051908101604052809291908181526020018280546117559061307f565b80156117a25780601f10611777576101008083540402835291602001916117a2565b820191906000526020600020905b81548152906001019060200180831161178557829003601f168201915b505050600b909301549192505060ff168c565b600080866001600160a01b03166323b872dd3330896040518463ffffffff1660e01b81526004016117e893929190612952565b602060405180830381600087803b15801561180257600080fd5b505af1158015611816573d6000803e3d6000fd5b505050506040513d601f19601f8201168201806040525081019061183a91906120ba565b9050806118595760405162461bcd60e51b815260040161049890612d84565b6040518061018001604052806007548152602001336001600160a01b03168152602001886001600160a01b03168152602001856001600160a01b03168152602001878152602001848152602001600260006040516020016118ba9190612935565b60408051601f19818403018152908290526118d491612893565b602060405180830381855afa1580156118f1573d6000803e3d6000fd5b5050506040513d601f19601f8201168201806040525081019061191491906120da565b8152426020808301919091526000604080840182905260608085018e905260808086018c905260a095860184905260078054855260068087529484902088518155888701516001820180546001600160a01b03199081166001600160a01b0393841617909155958a0151600283018054881691831691909117905593890151600382018054909616941693909317909355860151600482015593850151600585015560c08501519184019190915560e08401519083015561010083015160088301805460ff191691151591909117905561012083015180516119fc9260098501920190611e26565b506101408201518051611a1991600a840191602090910190611e26565b506101609190910151600b909101805460ff1916911515919091179055600754611a4490600161301b565b600755506001979650505050505050565b611a5d611d12565b6001600160a01b0316611a6e611620565b6001600160a01b031614611a945760405162461bcd60e51b815260040161049890612c73565b600060048787604051611aa89291906128bb565b908152602001604051809103902090506000818a8a604051611acb9291906128bb565b9081526040519081900360200190209050611ae7818787611eaa565b50611af6600182018585611eaa565b50600201805460ff19166001179055505050505050505050565b8151602081840181018051600582529282019482019490942091909352815180830184018051928152908401929093019190912091528054610ec39061307f565b611b59611d12565b6001600160a01b0316611b6a611620565b6001600160a01b031614611b905760405162461bcd60e51b815260040161049890612c73565b6040805160606020601f8701819004028201810183529181018581526000928291908890889081908501838280828437600092019190915250505090825250604080516020601f87018190048102820181019092528581529181019190869086908190840183828082843760009201919091525050509152506040519091508190600190611c2c908e908e908e908e908e908e906020016128cb565b60408051601f1981840301815290829052611c4691612893565b90815260200160405180910390206000820151816000019080519060200190611c70929190611e26565b5060208281015180516113d89260018501920190611e26565b6003546001600160a01b031681565b611ca0611d12565b6001600160a01b0316611cb1611620565b6001600160a01b031614611cd75760405162461bcd60e51b815260040161049890612c73565b6001600160a01b038116611cfd5760405162461bcd60e51b815260040161049890612c2d565b6103bf81611d16565b60019695505050505050565b3390565b600080546001600160a01b038381166001600160a01b0319831681178455604051919092169283917f8be0079c531659141344cd1fd0a4f28419497f9722a3daafe3b4186f6b6457e09190a35050565b6040518060e0016040528060008152602001606081526020016060815260200160608152602001611d95611f1e565b815260006020820152606060409091015290565b604080516101808101825260008082526020820181905291810182905260608082018390526080820183905260a0820183905260c0820183905260e082018390526101008201839052610120820181905261014082015261016081019190915290565b604051806040016040528060608152602001606081525090565b828054611e329061307f565b90600052602060002090601f016020900481019282611e545760008555611e9a565b82601f10611e6d57805160ff1916838001178555611e9a565b82800160010185558215611e9a579182015b82811115611e9a578251825591602001919060010190611e7f565b50611ea6929150611f30565b5090565b828054611eb69061307f565b90600052602060002090601f016020900481019282611ed85760008555611e9a565b82601f10611ef15782800160ff19823516178555611e9a565b82800160010185558215611e9a579182015b82811115611e9a578235825591602001919060010190611f03565b60408051602081019091526000815290565b5b80821115611ea65760008155600101611f31565b6000611f58611f5384612ff4565b612fcb565b9050828152838383011115611f6c57600080fd5b828260208301376000602084830101529392505050565b8051611f8e81613101565b919050565b60008083601f840112611fa4578182fd5b5081356001600160401b03811115611fba578182fd5b602083019150836020828501011115611fd257600080fd5b9250929050565b600082601f830112611fe9578081fd5b611ff883833560208501611f45565b9392505050565b600082601f83011261200f578081fd5b815161201d611f5382612ff4565b818152846020838601011115612031578283fd5b612042826020830160208701613053565b949350505050565b60006020828403121561205b578081fd5b604051602081018181106001600160401b038211171561207d5761207d6130eb565b8060405250809150825160ff8116811461209657600080fd5b905292915050565b6000602082840312156120af578081fd5b8135611ff881613101565b6000602082840312156120cb578081fd5b81518015158114611ff8578182fd5b6000602082840312156120eb578081fd5b5051919050565b600060208284031215612103578081fd5b81356001600160401b03811115612118578182fd5b8201601f81018413612128578182fd5b61204284823560208401611f45565b6000806000806040858703121561214c578283fd5b84356001600160401b0380821115612162578485fd5b61216e88838901611f93565b90965094506020870135915080821115612186578384fd5b5061219387828801611f93565b95989497509550505050565b600080600080600080606087890312156121b7578182fd5b86356001600160401b03808211156121cd578384fd5b6121d98a838b01611f93565b909850965060208901359150808211156121f1578384fd5b6121fd8a838b01611f93565b90965094506040890135915080821115612215578384fd5b5061222289828a01611f93565b979a9699509497509295939492505050565b6000806000806000806000806080898b03121561224f578182fd5b88356001600160401b0380821115612265578384fd5b6122718c838d01611f93565b909a50985060208b0135915080821115612289578384fd5b6122958c838d01611f93565b909850965060408b01359150808211156122ad578384fd5b6122b98c838d01611f93565b909650945060608b01359150808211156122d1578384fd5b506122de8b828c01611f93565b999c989b5096995094979396929594505050565b60008060008060008060008060008060a08b8d031215612310578384fd5b8a356001600160401b0380821115612326578586fd5b6123328e838f01611f93565b909c509a5060208d013591508082111561234a578586fd5b6123568e838f01611f93565b909a50985060408d013591508082111561236e578586fd5b61237a8e838f01611f93565b909850965060608d0135915080821115612392578586fd5b61239e8e838f01611f93565b909650945060808d01359150808211156123b6578384fd5b506123c38d828e01611f93565b915080935050809150509295989b9194979a5092959850565b6000806000806000608086880312156123f3578283fd5b85356001600160401b03811115612408578384fd5b61241488828901611f93565b90965094505060208601359250604086013561242f81613101565b949793965091946060013592915050565b600060208284031215612451578081fd5b81356001600160401b03811115612466578182fd5b61204284828501611fd9565b60008060008060008060c0878903121561248a578384fd5b86356001600160401b03808211156124a0578586fd5b6124ac8a838b01611fd9565b9750602089013591506124be82613101565b90955060408801359450606088013590808211156124da578384fd5b506124e789828a01611fd9565b93505060808701356124f881613101565b8092505060a087013590509295509295509295565b6000806040838503121561251f578182fd5b82356001600160401b0380821115612535578384fd5b61254186838701611fd9565b93506020850135915080821115612556578283fd5b5061256385828601611fd9565b9150509250929050565b60006020828403121561257e578081fd5b81516001600160401b0380821115612594578283fd5b9083019060e082860312156125a7578283fd5b6125b160e0612fcb565b825181526020830151828111156125c6578485fd5b6125d287828601611fff565b6020830152506040830151828111156125e9578485fd5b6125f587828601611fff565b60408301525060608301518281111561260c578485fd5b61261887828601611fff565b60608301525061262b866080850161204a565b608082015261263c60a08401611f83565b60a082015260c083015182811115612652578485fd5b61265e87828601611fff565b60c08301525095945050505050565b60006020828403121561267e578081fd5b5035919050565b60008060008060008060c0878903121561269d578384fd5b8635955060208701356126af81613101565b945060408701356126bf81613101565b935060608701356126cf81613101565b9598949750929560808101359460a0909101359350915050565b600080604083850312156126fb578182fd5b50508035926020909101359150565b6000806040838503121561271c578182fd5b8235915060208301356001600160401b03811115612738578182fd5b61256385828601611fd9565b6001600160a01b03169052565b15159052565b6000815180845261276f816020860160208601613053565b601f01601f19169290920160200192915050565b600081546127908161307f565b600182811680156127a857600181146127b9576127e8565b60ff198416875282870194506127e8565b8560005260208060002060005b858110156127df5781548a8201529084019082016127c6565b50505082870194505b5050505092915050565b60008284528282602086013780602084860101526020601f19601f85011685010190509392505050565b600081546128298161307f565b808552602060018381168015612846576001811461285a57612888565b60ff19851688840152604088019550612888565b866000528260002060005b858110156128805781548a8201860152908301908401612865565b890184019650505b505050505092915050565b600082516128a5818460208701613053565b9190910192915050565b6000611ff88284612783565b6000828483379101908152919050565b600086888337868201818152858782378501818152838582379092019182525095945050505050565b723932b1b2b4bb32afb6b0ba31b42fb7b93232b960691b815260130190565b751c9958d95a5d9957dd1c985b9cd9995c97d85cdcd95d60521b815260160190565b90815260200190565b6001600160a01b0391909116815260200190565b6001600160a01b039384168152919092166020820152604081019190915260600190565b6001600160a01b03929092168252602082015260400190565b60208082528251828201819052600091906040908185019080840286018301878501865b83811015612aa157603f19898403018552815161018081518552888201516129dd8a870182612744565b50878201516129ee89870182612744565b50606080830151612a0182880182612744565b50506080828101519086015260a0808301519086015260c0808301519086015260e0808301519086015261010080830151612a3e82880182612751565b5050610120808301518282880152612a5883880182612757565b925050506101408083015186830382880152612a748382612757565b92505050610160808301519250612a8d81870184612751565b5095880195935050908601906001016129b3565b509098975050505050505050565b901515815260200190565b600060408252612ace6040830186886127f2565b8281036020840152612ae18185876127f2565b979650505050505050565b600060a08252612b0060a08301888a6127f2565b8281036020840152612b12818861281c565b90508281036040840152612b26818761281c565b905060ff85511660608401528281036080840152612b448185612757565b9998505050505050505050565b600060208252611ff86020830184612757565b600060408252612b776040830185612757565b8281036020840152612b898185612757565b95945050505050565b600060608252612ba56060830186612757565b8281036020840152612bb78186612757565b9150508215156040830152949350505050565b600060a08252612bdd60a083018861281c565b8281036020840152612bef818861281c565b90508281036040840152612c03818761281c565b905060ff85511660608401528281036080840152612c218185612757565b98975050505050505050565b60208082526026908201527f4f776e61626c653a206e6577206f776e657220697320746865207a65726f206160408201526564647265737360d01b606082015260800190565b6020808252818101527f4f776e61626c653a2063616c6c6572206973206e6f7420746865206f776e6572604082015260600190565b60208082526021908201527f6d6573736167652073656e646572206973206e6f7420726567697374657265646040820152602160f81b606082015260800190565b6020808252601590820152741858dd1a5bdb881b9bdd081c9959da5cdd195c9959605a1b604082015260600190565b6020808252601d908201527f7472616e736665725f6173736574206e6f742072656769737465726564000000604082015260600190565b6020808252818101527f4c6f636b65723a2063616c6c6572206973206e6f742043726f7373436861696e604082015260600190565b60208082526017908201527f7472616e7366657220746f2073776170206661696c6564000000000000000000604082015260600190565b600060208252825160406020840152612dd76060840182612757565b90506020840151601f19848303016040850152612b898282612757565b60006020825282516020830152602083015160e06040840152612e1b610100840182612757565b90506040840151601f1980858403016060860152612e398383612757565b92506060860151915080858403016080860152612e568383612757565b925060ff6080870151511660a086015260a08601519150612e7a60c0860183612744565b60c08601519150808584030160e086015250612b898282612757565b9586526001600160a01b039485166020870152928416604086015292166060840152608083019190915260a082015260c00190565b60006101808e835260018060a01b03808f166020850152808e166040850152808d166060850152508a60808401528960a08401528860c08401528760e084015286151561010084015280610120840152612f2781840187612757565b9050828103610140840152612f3c8186612757565b9150508215156101608301529d9c50505050505050505050505050565b918252602082015260400190565b60006101208b8352806020840152612f818184018c612757565b6001600160a01b039a8b166040850152988a1660608401525050608081019590955260a085019390935260c084019190915260e08301529092166101009092019190915292915050565b6040518181016001600160401b0381118282101715612fec57612fec6130eb565b604052919050565b60006001600160401b0382111561300d5761300d6130eb565b50601f01601f191660200190565b6000821982111561302e5761302e6130d5565b500190565b60008261304e57634e487b7160e01b81526012600452602481fd5b500490565b60005b8381101561306e578181015183820152602001613056565b83811115610af65750506000910152565b60028104600182168061309357607f821691505b602082108114156130b457634e487b7160e01b600052602260045260246000fd5b50919050565b60006000198214156130ce576130ce6130d5565b5060010190565b634e487b7160e01b600052601160045260246000fd5b634e487b7160e01b600052604160045260246000fd5b6001600160a01b03811681146103bf57600080fdfea26469706673582212201adb652394b5f69e99299ea868aeb96c1e3e0560efef2f3a3945310c5ea4259664736f6c63430008000033",
  "immutableReferences": {},
  "source": "// SPDX-License-Identifier: MIT\npragma solidity 0.8.0;\n\nimport \"@openzeppelin/contracts/token/ERC20/IERC20.sol\";\nimport \"./CrossChain/ContractBase.sol\";\n\ncontract Swap is ContractBase {\n    // Destination contract info\n    struct DestnContract {\n        string contractAddress; // destination contract address\n        string funcName; // destination contract action name\n        bool used;\n    }\n\n    struct Order {\n        uint256 orderId;\n        address sender;\n        address tokenContract;\n        address toTokenContract;\n        uint256 amount;\n        uint256 toAmount;\n        bytes32 hashlock;\n        uint256 createTime;\n        // uint256 timelock; // locked UNTIL this time.\n        bool cancelled;\n        string fromChainId;\n        string toChainId;\n        bool filled;\n    }\n\n    struct OrderFill {\n        uint256 orderId;\n        string fromChainId;\n        address sender;\n        address tokenContract;\n        uint256 amount;\n        bytes32 hashlock;\n        uint256 createTime;\n        uint256 timelock; // locked UNTIL this time.\n        address payee;\n    }\n\n    // Cross-chain destination contract map\n    mapping(string => mapping(string => DestnContract)) public destnContractMap;\n\n    // Cross-chain permitted contract map\n    mapping(string => mapping(string => string)) public permittedContractMap;\n\n    mapping(uint256 => Order) public idToOrder;\n    uint256 _orderIds;\n\n    mapping(uint256 => OrderFill) public idToFillOrder;\n    uint256 _fillOrderIds;\n\n    constructor() public {}\n\n    function create_order(\n        string memory chain_from,\n        address asset_from,\n        uint256 amount_from,\n        string memory chain_to,\n        address asset_to,\n        uint256 amount_to\n    ) public returns (bool) {\n        bool ret = IERC20(asset_from).transferFrom(\n            msg.sender,\n            address(this),\n            amount_from\n        );\n        require(ret, \"transfer to swap failed\");\n    \n        idToOrder[_orderIds] = Order(\n            _orderIds,\n            msg.sender,\n            asset_from,\n            asset_to,\n            amount_from,\n            amount_to,\n            sha256(abi.encodePacked(uint256(0))),\n            block.timestamp,\n            false,\n            chain_from,\n            chain_to,\n            false\n        );\n        _orderIds = _orderIds + 1;\n        return true;\n    }\n\n    function query_order(uint256 order_id) public {}\n\n    function query_all_orders() public view returns (Order[] memory) {\n        uint256 orderCount = _orderIds;\n        Order[] memory orders = new Order[](orderCount);\n        for (uint256 i = 0; i < orderCount; i++) {\n            Order storage order = idToOrder[i];\n            orders[i] = order;\n        }\n        return orders;\n    }\n\n    function match_order(\n        string calldata chain_id,\n        uint256 order_id,\n        address asset,\n        uint256 amount\n    ) public {\n        bool ret = IERC20(asset).transferFrom(msg.sender, address(this), amount);\n        require(ret, \"transfer to swap failed\");\n        idToFillOrder[_fillOrderIds] = OrderFill(\n            order_id,\n            chain_id,\n            msg.sender,\n            asset,\n            amount,\n            sha256(abi.encodePacked(uint256(0))),\n            block.timestamp,\n            block.timestamp + 3600,\n            msg.sender\n        );\n        _fillOrderIds = _fillOrderIds + 1;\n\n        mapping(string => DestnContract) storage map = destnContractMap[\n            chain_id\n        ];\n        DestnContract storage destnContract = map[\"receive_match_order\"];\n        require(destnContract.used, \"action not registered\");\n\n        bytes memory data = abi.encode(order_id, msg.sender, asset, msg.sender, amount / 10**18, sha256(abi.encodePacked(uint(0))));\n        SQOS memory sqos = SQOS(0);\n        crossChainContract.sendMessage(\n            chain_id,\n            destnContract.contractAddress,\n            destnContract.funcName,\n            sqos,\n            data\n        );\n    }\n\n    function receive_match_order(\n        uint256 order_id,\n        address payee_address,\n        address from_chain_payee,\n        address from_chain_asset,\n        uint256 amount,\n        bytes32 hash\n    ) public {\n        require(\n            msg.sender == address(crossChainContract),\n            \"Locker: caller is not CrossChain\"\n        );\n\n        // `context` used for verify the operation authority\n        SimplifiedMessage memory context = getContext();\n        // verify sqos\n        // require(context.sqos.reveal == 1, \"SQoS invalid!\");\n\n        // verify the sender from the registered chain\n        mapping(string => string)\n            storage permittedContract = permittedContractMap[context.fromChain];\n\n        require(\n            keccak256(bytes(permittedContract[context.action])) ==\n                keccak256(bytes(context.sender)),\n            \"message sender is not registered!\"\n        );\n\n        Order storage order = idToOrder[order_id];\n        order.filled = true;\n        bool ret = IERC20(order.tokenContract).transfer(\n            payee_address,\n            order.amount\n        );\n        // require(ret, \"transfer payee failed\");\n\n        // send receive_transfer_asset\n        mapping(string => DestnContract) storage map = destnContractMap[\n            order.toChainId\n        ];\n        DestnContract storage destnContract = map[\"receive_transfer_asset\"];\n        require(destnContract.used, \"transfer_asset not registered\");\n\n        bytes memory data = abi.encode(order_id, sha256(abi.encodePacked(uint(0))));\n        SQOS memory sqos = SQOS(0);\n        crossChainContract.sendMessage(\n            order.toChainId,\n            destnContract.contractAddress,\n            destnContract.funcName,\n            sqos,\n            data\n        );\n    }\n\n    function unlock_asset(uint256 order_id, string memory key) public {}\n\n    function receive_transfer_asset(uint256 order_id, bytes32 hash) public {\n        uint256 orderCount = _fillOrderIds;\n        for (uint256 i = 0; i < orderCount; i++) {\n            OrderFill storage order = idToFillOrder[i];\n            bool ret = IERC20(order.tokenContract).transfer(order.payee, order.amount);\n        }\n    }\n\n    function registerDestnContract(\n        string calldata _funcName,\n        string calldata _toChain,\n        string calldata _contractAddress,\n        string calldata _contractFuncName\n    ) external onlyOwner {\n        mapping(string => DestnContract) storage map = destnContractMap[\n            _toChain\n        ];\n        DestnContract storage destnContract = map[_funcName];\n        destnContract.contractAddress = _contractAddress;\n        destnContract.funcName = _contractFuncName;\n        destnContract.used = true;\n    }\n\n    function registerPermittedContract(\n        string calldata _chainName,\n        string calldata _sender,\n        string calldata _funcName\n    ) external onlyOwner {\n        mapping(string => string) storage map = permittedContractMap[\n            _chainName\n        ];\n        map[_funcName] = _sender;\n    }\n\n    function verify(\n        string calldata _chainName,\n        string calldata _funcName,\n        string calldata _sender\n    ) public view virtual returns (bool) {\n        return true;\n    }\n}\n",
  "sourcePath": "/Users/fsy412/code/Demo-Swap/contracts/Swap.sol",
  "compiler": {
    "name": "solc",
    "version": "0.8.0+commit.c7dfd78e.Emscripten.clang"
  },
  "schemaVersion": "3.4.6",
  "updatedAt": "2022-04-11T09:51:57.406Z",
  "devdoc": {
    "kind": "dev",
    "methods": {
      "getMessageABI(string,string,string)": {
        "params": {
          "_destnChainName": "- destination chain name",
          "_destnContractName": "- destination contract name",
          "_funcName": "- destination contract function name"
        }
      },
      "owner()": {
        "details": "Returns the address of the current owner."
      },
      "registerContractABI(string,string)": {
        "params": {
          "_contractABI": "- contract action abi",
          "_funcName": "- contract action name"
        }
      },
      "registerMessageABI(string,string,string,string,string)": {
        "params": {
          "_destnChainName": "- destination chain name",
          "_destnContractName": "- destination contract name",
          "_funcName": "- destination contract function name",
          "_paramName": "- action param name",
          "_paramType": "- action param types"
        }
      },
      "renounceOwnership()": {
        "details": "Leaves the contract without owner. It will not be possible to call `onlyOwner` functions anymore. Can only be called by the current owner. NOTE: Renouncing ownership will leave the contract without an owner, thereby removing any functionality that is only available to the owner."
      },
      "setCrossChainContract(address)": {
        "params": {
          "_address": "- cross chain contract address"
        }
      },
      "transferOwnership(address)": {
        "details": "Transfers ownership of the contract to a new account (`newOwner`). Can only be called by the current owner."
      }
    },
    "version": 1
  },
  "userdoc": {
    "kind": "user",
    "methods": {
      "getMessageABI(string,string,string)": {
        "notice": "Get Registered message ABI to encode/decode message"
      },
      "registerContractABI(string,string)": {
        "notice": "contract ABI used to encode/decode messages sent to this contract"
      },
      "registerMessageABI(string,string,string,string,string)": {
        "notice": "message ABI used to encode/decode messages sent from this contract"
      },
      "setCrossChainContract(address)": {
        "notice": "Set cross chain contract"
      }
    },
    "version": 1
  }
}