{
  "contractName": "ContractBase",
  "abi": [
    {
      "anonymous": false,
      "inputs": [
        {
          "indexed": true,
          "internalType": "address",
          "name": "previousOwner",
          "type": "address"
        },
        {
          "indexed": true,
          "internalType": "address",
          "name": "newOwner",
          "type": "address"
        }
      ],
      "name": "OwnershipTransferred",
      "type": "event"
    },
    {
      "inputs": [
        {
          "internalType": "string",
          "name": "",
          "type": "string"
        }
      ],
      "name": "contractABIMap",
      "outputs": [
        {
          "internalType": "string",
          "name": "",
          "type": "string"
        }
      ],
      "stateMutability": "view",
      "type": "function"
    },
    {
      "inputs": [],
      "name": "crossChainContract",
      "outputs": [
        {
          "internalType": "contract ICrossChain",
          "name": "",
          "type": "address"
        }
      ],
      "stateMutability": "view",
      "type": "function"
    },
    {
      "inputs": [
        {
          "internalType": "bytes",
          "name": "",
          "type": "bytes"
        }
      ],
      "name": "messageABIMap",
      "outputs": [
        {
          "internalType": "string",
          "name": "parametertypes",
          "type": "string"
        },
        {
          "internalType": "string",
          "name": "parameterNames",
          "type": "string"
        }
      ],
      "stateMutability": "view",
      "type": "function"
    },
    {
      "inputs": [],
      "name": "owner",
      "outputs": [
        {
          "internalType": "address",
          "name": "",
          "type": "address"
        }
      ],
      "stateMutability": "view",
      "type": "function"
    },
    {
      "inputs": [],
      "name": "renounceOwnership",
      "outputs": [],
      "stateMutability": "nonpayable",
      "type": "function"
    },
    {
      "inputs": [
        {
          "internalType": "address",
          "name": "newOwner",
          "type": "address"
        }
      ],
      "name": "transferOwnership",
      "outputs": [],
      "stateMutability": "nonpayable",
      "type": "function"
    },
    {
      "inputs": [
        {
          "internalType": "address",
          "name": "_address",
          "type": "address"
        }
      ],
      "name": "setCrossChainContract",
      "outputs": [],
      "stateMutability": "nonpayable",
      "type": "function"
    },
    {
      "inputs": [
        {
          "internalType": "string",
          "name": "_destnChainName",
          "type": "string"
        },
        {
          "internalType": "string",
          "name": "_destnContractName",
          "type": "string"
        },
        {
          "internalType": "string",
          "name": "_funcName",
          "type": "string"
        },
        {
          "internalType": "string",
          "name": "_paramType",
          "type": "string"
        },
        {
          "internalType": "string",
          "name": "_paramName",
          "type": "string"
        }
      ],
      "name": "registerMessageABI",
      "outputs": [],
      "stateMutability": "nonpayable",
      "type": "function"
    },
    {
      "inputs": [
        {
          "internalType": "string",
          "name": "_destnChainName",
          "type": "string"
        },
        {
          "internalType": "string",
          "name": "_destnContractName",
          "type": "string"
        },
        {
          "internalType": "string",
          "name": "_funcName",
          "type": "string"
        }
      ],
      "name": "getMessageABI",
      "outputs": [
        {
          "components": [
            {
              "internalType": "string",
              "name": "parametertypes",
              "type": "string"
            },
            {
              "internalType": "string",
              "name": "parameterNames",
              "type": "string"
            }
          ],
          "internalType": "struct ContractBase.MessageABI",
          "name": "",
          "type": "tuple"
        }
      ],
      "stateMutability": "view",
      "type": "function"
    },
    {
      "inputs": [
        {
          "internalType": "string",
          "name": "_funcName",
          "type": "string"
        },
        {
          "internalType": "string",
          "name": "_contractABI",
          "type": "string"
        }
      ],
      "name": "registerContractABI",
      "outputs": [],
      "stateMutability": "nonpayable",
      "type": "function"
    },
    {
      "inputs": [],
      "name": "getContext",
      "outputs": [
        {
          "components": [
            {
              "internalType": "uint256",
              "name": "id",
              "type": "uint256"
            },
            {
              "internalType": "string",
              "name": "fromChain",
              "type": "string"
            },
            {
              "internalType": "string",
              "name": "sender",
              "type": "string"
            },
            {
              "internalType": "string",
              "name": "signer",
              "type": "string"
            },
            {
              "components": [
                {
                  "internalType": "uint8",
                  "name": "reveal",
                  "type": "uint8"
                }
              ],
              "internalType": "struct SQOS",
              "name": "sqos",
              "type": "tuple"
            },
            {
              "internalType": "address",
              "name": "contractAddress",
              "type": "address"
            },
            {
              "internalType": "string",
              "name": "action",
              "type": "string"
            }
          ],
          "internalType": "struct SimplifiedMessage",
          "name": "",
          "type": "tuple"
        }
      ],
      "stateMutability": "view",
      "type": "function"
    }
  ],
  "bytecode": "0x608060405234801561001057600080fd5b5061002161001c610026565b61002a565b61007a565b3390565b600080546001600160a01b038381166001600160a01b0319831681178455604051919092169283917f8be0079c531659141344cd1fd0a4f28419497f9722a3daafe3b4186f6b6457e09190a35050565b61125c806100896000396000f3fe608060405234801561001057600080fd5b50600436106100a95760003560e01c806366e1f8201161007157806366e1f82014610142578063715018a6146101555780638da5cb5b1461015d578063d469270314610172578063dbc90de114610185578063f2fde38b1461018d576100a9565b8063127f0f07146100ae57806318d72b54146100cc5780632639c423146100e15780633ad16b7a146101025780635fe78c6c14610122575b600080fd5b6100b66101a0565b6040516100c3919061109c565b60405180910390f35b6100df6100da366004610b65565b610237565b005b6100f46100ef366004610b88565b6102a1565b6040516100c3929190610fba565b610115610110366004610c37565b6103d8565b6040516100c39190611063565b610135610130366004610b88565b610560565b6040516100c39190610fa7565b6100df610150366004610bce565b610605565b6100df6106b2565b6101656106fd565b6040516100c39190610f61565b6100df610180366004610ccd565b61070c565b610165610854565b6100df61019b366004610b65565b610863565b6101a8610928565b600360009054906101000a90046001600160a01b03166001600160a01b0316639af7a48c6040518163ffffffff1660e01b815260040160006040518083038186803b1580156101f657600080fd5b505afa15801561020a573d6000803e3d6000fd5b505050506040513d6000823e601f3d908101601f191682016040526102329190810190610db8565b905090565b61023f6108d4565b6001600160a01b03166102506106fd565b6001600160a01b03161461027f5760405162461bcd60e51b81526004016102769061102e565b60405180910390fd5b600380546001600160a01b0319166001600160a01b0392909216919091179055565b80516020818301810180516001825292820191909301209152805481906102c7906111c0565b80601f01602080910402602001604051908101604052809291908181526020018280546102f3906111c0565b80156103405780601f1061031557610100808354040283529160200191610340565b820191906000526020600020905b81548152906001019060200180831161032357829003601f168201915b505050505090806001018054610355906111c0565b80601f0160208091040260200160405190810160405280929190818152602001828054610381906111c0565b80156103ce5780601f106103a3576101008083540402835291602001916103ce565b820191906000526020600020905b8154815290600101906020018083116103b157829003601f168201915b5050505050905082565b6103e061096b565b60018787878787876040516020016103fd96959493929190610f38565b60408051601f198184030181529082905261041791610f1c565b9081526020016040518091039020604051806040016040529081600082018054610440906111c0565b80601f016020809104026020016040519081016040528092919081815260200182805461046c906111c0565b80156104b95780601f1061048e576101008083540402835291602001916104b9565b820191906000526020600020905b81548152906001019060200180831161049c57829003601f168201915b505050505081526020016001820180546104d2906111c0565b80601f01602080910402602001604051908101604052809291908181526020018280546104fe906111c0565b801561054b5780601f106105205761010080835404028352916020019161054b565b820191906000526020600020905b81548152906001019060200180831161052e57829003601f168201915b50505050508152505090509695505050505050565b805160208183018101805160028252928201919093012091528054610584906111c0565b80601f01602080910402602001604051908101604052809291908181526020018280546105b0906111c0565b80156105fd5780601f106105d2576101008083540402835291602001916105fd565b820191906000526020600020905b8154815290600101906020018083116105e057829003601f168201915b505050505081565b61060d6108d4565b6001600160a01b031661061e6106fd565b6001600160a01b0316146106445760405162461bcd60e51b81526004016102769061102e565b6003546040516321c0551d60e11b81526001600160a01b0390911690634380aa3a9061067a908790879087908790600401610f75565b600060405180830381600087803b15801561069457600080fd5b505af11580156106a8573d6000803e3d6000fd5b5050505050505050565b6106ba6108d4565b6001600160a01b03166106cb6106fd565b6001600160a01b0316146106f15760405162461bcd60e51b81526004016102769061102e565b6106fb60006108d8565b565b6000546001600160a01b031690565b6107146108d4565b6001600160a01b03166107256106fd565b6001600160a01b03161461074b5760405162461bcd60e51b81526004016102769061102e565b6040805160606020601f8701819004028201810183529181018581526000928291908890889081908501838280828437600092019190915250505090825250604080516020601f870181900481028201810190925285815291810191908690869081908401838280828437600092019190915250505091525060405190915081906001906107e7908e908e908e908e908e908e90602001610f38565b60408051601f198184030181529082905261080191610f1c565b9081526020016040518091039020600082015181600001908051906020019061082b929190610985565b5060208281015180516108449260018501920190610985565b5050505050505050505050505050565b6003546001600160a01b031681565b61086b6108d4565b6001600160a01b031661087c6106fd565b6001600160a01b0316146108a25760405162461bcd60e51b81526004016102769061102e565b6001600160a01b0381166108c85760405162461bcd60e51b815260040161027690610fe8565b6108d1816108d8565b50565b3390565b600080546001600160a01b038381166001600160a01b0319831681178455604051919092169283917f8be0079c531659141344cd1fd0a4f28419497f9722a3daafe3b4186f6b6457e09190a35050565b6040518060e0016040528060008152602001606081526020016060815260200160608152602001610957610a09565b815260006020820152606060409091015290565b604051806040016040528060608152602001606081525090565b828054610991906111c0565b90600052602060002090601f0160209004810192826109b357600085556109f9565b82601f106109cc57805160ff19168380011785556109f9565b828001600101855582156109f9579182015b828111156109f95782518255916020019190600101906109de565b50610a05929150610a1b565b5090565b60408051602081019091526000815290565b5b80821115610a055760008155600101610a1c565b6000610a43610a3e84611168565b61113e565b9050828152838383011115610a5757600080fd5b828260208301376000602084830101529392505050565b8051610a7981611211565b919050565b60008083601f840112610a8f578182fd5b50813567ffffffffffffffff811115610aa6578182fd5b602083019150836020828501011115610abe57600080fd5b9250929050565b600082601f830112610ad5578081fd5b8151610ae3610a3e82611168565b818152846020838601011115610af7578283fd5b610b08826020830160208701611190565b949350505050565b600060208284031215610b21578081fd5b6040516020810181811067ffffffffffffffff82111715610b4457610b446111fb565b8060405250809150825160ff81168114610b5d57600080fd5b905292915050565b600060208284031215610b76578081fd5b8135610b8181611211565b9392505050565b600060208284031215610b99578081fd5b813567ffffffffffffffff811115610baf578182fd5b8201601f81018413610bbf578182fd5b610b0884823560208401610a30565b60008060008060408587031215610be3578283fd5b843567ffffffffffffffff80821115610bfa578485fd5b610c0688838901610a7e565b90965094506020870135915080821115610c1e578384fd5b50610c2b87828801610a7e565b95989497509550505050565b60008060008060008060608789031215610c4f578182fd5b863567ffffffffffffffff80821115610c66578384fd5b610c728a838b01610a7e565b90985096506020890135915080821115610c8a578384fd5b610c968a838b01610a7e565b90965094506040890135915080821115610cae578384fd5b50610cbb89828a01610a7e565b979a9699509497509295939492505050565b60008060008060008060008060008060a08b8d031215610ceb578384fd5b8a3567ffffffffffffffff80821115610d02578586fd5b610d0e8e838f01610a7e565b909c509a5060208d0135915080821115610d26578586fd5b610d328e838f01610a7e565b909a50985060408d0135915080821115610d4a578586fd5b610d568e838f01610a7e565b909850965060608d0135915080821115610d6e578586fd5b610d7a8e838f01610a7e565b909650945060808d0135915080821115610d92578384fd5b50610d9f8d828e01610a7e565b915080935050809150509295989b9194979a5092959850565b600060208284031215610dc9578081fd5b815167ffffffffffffffff80821115610de0578283fd5b9083019060e08286031215610df3578283fd5b610dfd60e061113e565b82518152602083015182811115610e12578485fd5b610e1e87828601610ac5565b602083015250604083015182811115610e35578485fd5b610e4187828601610ac5565b604083015250606083015182811115610e58578485fd5b610e6487828601610ac5565b606083015250610e778660808501610b10565b6080820152610e8860a08401610a6e565b60a082015260c083015182811115610e9e578485fd5b610eaa87828601610ac5565b60c08301525095945050505050565b6001600160a01b03169052565b60008284528282602086013780602084860101526020601f19601f85011685010190509392505050565b60008151808452610f08816020860160208601611190565b601f01601f19169290920160200192915050565b60008251610f2e818460208701611190565b9190910192915050565b600086888337868201818152858782378501818152838582379092019182525095945050505050565b6001600160a01b0391909116815260200190565b600060408252610f89604083018688610ec6565b8281036020840152610f9c818587610ec6565b979650505050505050565b600060208252610b816020830184610ef0565b600060408252610fcd6040830185610ef0565b8281036020840152610fdf8185610ef0565b95945050505050565b60208082526026908201527f4f776e61626c653a206e6577206f776e657220697320746865207a65726f206160408201526564647265737360d01b606082015260800190565b6020808252818101527f4f776e61626c653a2063616c6c6572206973206e6f7420746865206f776e6572604082015260600190565b60006020825282516040602084015261107f6060840182610ef0565b90506020840151601f19848303016040850152610fdf8282610ef0565b60006020825282516020830152602083015160e060408401526110c3610100840182610ef0565b90506040840151601f19808584030160608601526110e18383610ef0565b925060608601519150808584030160808601526110fe8383610ef0565b925060ff6080870151511660a086015260a0860151915061112260c0860183610eb9565b60c08601519150808584030160e086015250610fdf8282610ef0565b60405181810167ffffffffffffffff81118282101715611160576111606111fb565b604052919050565b600067ffffffffffffffff821115611182576111826111fb565b50601f01601f191660200190565b60005b838110156111ab578181015183820152602001611193565b838111156111ba576000848401525b50505050565b6002810460018216806111d457607f821691505b602082108114156111f557634e487b7160e01b600052602260045260246000fd5b50919050565b634e487b7160e01b600052604160045260246000fd5b6001600160a01b03811681146108d157600080fdfea2646970667358221220b7e1387524acdb1c6fe9ec42e7c82dec50bea062d00c6142235cee17fdaa604a64736f6c63430008000033",
  "immutableReferences": {},
  "source": "// SPDX-License-Identifier: MIT\npragma solidity >=0.8.0 <0.9.0;\nimport \"@openzeppelin/contracts/access/Ownable.sol\";\nimport \"./ICrossChain.sol\";\n\ncontract ContractBase is Ownable {\n    // Message ABI used to encode/decode messages sent from this contract\n    struct MessageABI {\n        string parametertypes; // action params' type\n        string parameterNames; // action params' name\n    }\n\n    // desination contract action mapping\n    mapping(bytes => MessageABI) public messageABIMap;\n\n    // source contract action mapping\n    mapping(string => string) public contractABIMap;\n\n    // Dante cross chain contract\n    ICrossChain public crossChainContract;\n\n    /**\n     * Set cross chain contract\n     * @param _address - cross chain contract address\n     */\n    function setCrossChainContract(address _address) public onlyOwner {\n        crossChainContract = ICrossChain(_address);\n    }\n\n    ///////////////////////////////////////////////\n    /////    Send messages to other chains   //////\n    ///////////////////////////////////////////////\n\n    /**\n     * message ABI used to encode/decode messages sent from this contract\n     * @param _destnChainName - destination chain name\n     * @param _destnContractName - destination contract name\n     * @param _funcName - destination contract function name\n     * @param _paramType - action param types\n     * @param _paramName - action param name\n     */\n    function registerMessageABI(\n        string calldata _destnChainName,\n        string calldata _destnContractName,\n        string calldata _funcName,\n        string calldata _paramType,\n        string calldata _paramName\n    ) external onlyOwner {\n        MessageABI memory info = MessageABI(_paramType, _paramName);\n        messageABIMap[\n            abi.encodePacked(_destnChainName, _destnContractName, _funcName)\n        ] = info;\n    }\n\n    /**\n     * Get Registered message ABI to encode/decode message\n     * @param _destnChainName - destination chain name\n     * @param _destnContractName - destination contract name\n     * @param _funcName - destination contract function name\n     */\n    function getMessageABI(\n        string calldata _destnChainName,\n        string calldata _destnContractName,\n        string calldata _funcName\n    ) external view returns (MessageABI memory) {\n        return\n            messageABIMap[\n                abi.encodePacked(_destnChainName, _destnContractName, _funcName)\n            ];\n    }\n\n    ///////////////////////////////////////////////\n    ///    Receive messages from other chains   ///\n    ///////////////////////////////////////////////\n\n    /**\n     * contract ABI used to encode/decode messages sent to this contract\n     * @param _funcName - contract action name\n     * @param _contractABI - contract action abi\n     */\n    function registerContractABI(\n        string calldata _funcName,\n        string calldata _contractABI\n    ) external virtual onlyOwner {\n        crossChainContract.registerInterface(_funcName, _contractABI);\n    }\n\n    // return context info\n    function getContext() public view returns (SimplifiedMessage memory) {\n        return crossChainContract.getCurrentMessage();\n    }\n}",
  "sourcePath": "/Users/fsy412/code/Demo-Swap/contracts/CrossChain/ContractBase.sol",
  "compiler": {
    "name": "solc",
    "version": "0.8.0+commit.c7dfd78e.Emscripten.clang"
  },
  "schemaVersion": "3.4.6",
  "updatedAt": "2022-04-27T07:02:58.977Z",
  "devdoc": {
    "kind": "dev",
    "methods": {
      "getMessageABI(string,string,string)": {
        "params": {
          "_destnChainName": "- destination chain name",
          "_destnContractName": "- destination contract name",
          "_funcName": "- destination contract function name"
        }
      },
      "owner()": {
        "details": "Returns the address of the current owner."
      },
      "registerContractABI(string,string)": {
        "params": {
          "_contractABI": "- contract action abi",
          "_funcName": "- contract action name"
        }
      },
      "registerMessageABI(string,string,string,string,string)": {
        "params": {
          "_destnChainName": "- destination chain name",
          "_destnContractName": "- destination contract name",
          "_funcName": "- destination contract function name",
          "_paramName": "- action param name",
          "_paramType": "- action param types"
        }
      },
      "renounceOwnership()": {
        "details": "Leaves the contract without owner. It will not be possible to call `onlyOwner` functions anymore. Can only be called by the current owner. NOTE: Renouncing ownership will leave the contract without an owner, thereby removing any functionality that is only available to the owner."
      },
      "setCrossChainContract(address)": {
        "params": {
          "_address": "- cross chain contract address"
        }
      },
      "transferOwnership(address)": {
        "details": "Transfers ownership of the contract to a new account (`newOwner`). Can only be called by the current owner."
      }
    },
    "version": 1
  },
  "userdoc": {
    "kind": "user",
    "methods": {
      "getMessageABI(string,string,string)": {
        "notice": "Get Registered message ABI to encode/decode message"
      },
      "registerContractABI(string,string)": {
        "notice": "contract ABI used to encode/decode messages sent to this contract"
      },
      "registerMessageABI(string,string,string,string,string)": {
        "notice": "message ABI used to encode/decode messages sent from this contract"
      },
      "setCrossChainContract(address)": {
        "notice": "Set cross chain contract"
      }
    },
    "version": 1
  }
}