{
  "contractName": "Greetings",
  "abi": [
    {
      "anonymous": false,
      "inputs": [
        {
          "indexed": true,
          "internalType": "address",
          "name": "previousOwner",
          "type": "address"
        },
        {
          "indexed": true,
          "internalType": "address",
          "name": "newOwner",
          "type": "address"
        }
      ],
      "name": "OwnershipTransferred",
      "type": "event"
    },
    {
      "inputs": [
        {
          "internalType": "string",
          "name": "",
          "type": "string"
        }
      ],
      "name": "contractABIMap",
      "outputs": [
        {
          "internalType": "string",
          "name": "",
          "type": "string"
        }
      ],
      "stateMutability": "view",
      "type": "function"
    },
    {
      "inputs": [],
      "name": "crossChainContract",
      "outputs": [
        {
          "internalType": "contract ICrossChain",
          "name": "",
          "type": "address"
        }
      ],
      "stateMutability": "view",
      "type": "function"
    },
    {
      "inputs": [
        {
          "internalType": "string",
          "name": "",
          "type": "string"
        },
        {
          "internalType": "string",
          "name": "",
          "type": "string"
        }
      ],
      "name": "destnContractMap",
      "outputs": [
        {
          "internalType": "string",
          "name": "contractAddress",
          "type": "string"
        },
        {
          "internalType": "string",
          "name": "funcName",
          "type": "string"
        },
        {
          "internalType": "bool",
          "name": "used",
          "type": "bool"
        }
      ],
      "stateMutability": "view",
      "type": "function"
    },
    {
      "inputs": [],
      "name": "getContext",
      "outputs": [
        {
          "components": [
            {
              "internalType": "uint256",
              "name": "id",
              "type": "uint256"
            },
            {
              "internalType": "string",
              "name": "fromChain",
              "type": "string"
            },
            {
              "internalType": "string",
              "name": "sender",
              "type": "string"
            },
            {
              "internalType": "string",
              "name": "signer",
              "type": "string"
            },
            {
              "components": [
                {
                  "internalType": "uint8",
                  "name": "reveal",
                  "type": "uint8"
                }
              ],
              "internalType": "struct SQOS",
              "name": "sqos",
              "type": "tuple"
            },
            {
              "internalType": "address",
              "name": "contractAddress",
              "type": "address"
            },
            {
              "internalType": "string",
              "name": "action",
              "type": "string"
            }
          ],
          "internalType": "struct SimplifiedMessage",
          "name": "",
          "type": "tuple"
        }
      ],
      "stateMutability": "view",
      "type": "function"
    },
    {
      "inputs": [
        {
          "internalType": "string",
          "name": "_destnChainName",
          "type": "string"
        },
        {
          "internalType": "string",
          "name": "_destnContractName",
          "type": "string"
        },
        {
          "internalType": "string",
          "name": "_funcName",
          "type": "string"
        }
      ],
      "name": "getMessageABI",
      "outputs": [
        {
          "components": [
            {
              "internalType": "string",
              "name": "parametertypes",
              "type": "string"
            },
            {
              "internalType": "string",
              "name": "parameterNames",
              "type": "string"
            }
          ],
          "internalType": "struct ContractBase.MessageABI",
          "name": "",
          "type": "tuple"
        }
      ],
      "stateMutability": "view",
      "type": "function"
    },
    {
      "inputs": [
        {
          "internalType": "uint256",
          "name": "",
          "type": "uint256"
        }
      ],
      "name": "greetings",
      "outputs": [
        {
          "internalType": "string",
          "name": "fromChain",
          "type": "string"
        },
        {
          "internalType": "string",
          "name": "title",
          "type": "string"
        },
        {
          "internalType": "string",
          "name": "content",
          "type": "string"
        },
        {
          "internalType": "string",
          "name": "date",
          "type": "string"
        }
      ],
      "stateMutability": "view",
      "type": "function"
    },
    {
      "inputs": [
        {
          "internalType": "bytes",
          "name": "",
          "type": "bytes"
        }
      ],
      "name": "messageABIMap",
      "outputs": [
        {
          "internalType": "string",
          "name": "parametertypes",
          "type": "string"
        },
        {
          "internalType": "string",
          "name": "parameterNames",
          "type": "string"
        }
      ],
      "stateMutability": "view",
      "type": "function"
    },
    {
      "inputs": [],
      "name": "ocResult",
      "outputs": [
        {
          "internalType": "uint256",
          "name": "",
          "type": "uint256"
        }
      ],
      "stateMutability": "view",
      "type": "function"
    },
    {
      "inputs": [],
      "name": "owner",
      "outputs": [
        {
          "internalType": "address",
          "name": "",
          "type": "address"
        }
      ],
      "stateMutability": "view",
      "type": "function"
    },
    {
      "inputs": [
        {
          "internalType": "string",
          "name": "",
          "type": "string"
        },
        {
          "internalType": "string",
          "name": "",
          "type": "string"
        }
      ],
      "name": "permittedContractMap",
      "outputs": [
        {
          "internalType": "string",
          "name": "",
          "type": "string"
        }
      ],
      "stateMutability": "view",
      "type": "function"
    },
    {
      "inputs": [
        {
          "internalType": "string",
          "name": "_funcName",
          "type": "string"
        },
        {
          "internalType": "string",
          "name": "_contractABI",
          "type": "string"
        }
      ],
      "name": "registerContractABI",
      "outputs": [],
      "stateMutability": "nonpayable",
      "type": "function"
    },
    {
      "inputs": [
        {
          "internalType": "string",
          "name": "_destnChainName",
          "type": "string"
        },
        {
          "internalType": "string",
          "name": "_destnContractName",
          "type": "string"
        },
        {
          "internalType": "string",
          "name": "_funcName",
          "type": "string"
        },
        {
          "internalType": "string",
          "name": "_paramType",
          "type": "string"
        },
        {
          "internalType": "string",
          "name": "_paramName",
          "type": "string"
        }
      ],
      "name": "registerMessageABI",
      "outputs": [],
      "stateMutability": "nonpayable",
      "type": "function"
    },
    {
      "inputs": [],
      "name": "renounceOwnership",
      "outputs": [],
      "stateMutability": "nonpayable",
      "type": "function"
    },
    {
      "inputs": [
        {
          "internalType": "address",
          "name": "_address",
          "type": "address"
        }
      ],
      "name": "setCrossChainContract",
      "outputs": [],
      "stateMutability": "nonpayable",
      "type": "function"
    },
    {
      "inputs": [
        {
          "internalType": "address",
          "name": "newOwner",
          "type": "address"
        }
      ],
      "name": "transferOwnership",
      "outputs": [],
      "stateMutability": "nonpayable",
      "type": "function"
    },
    {
      "inputs": [
        {
          "internalType": "string",
          "name": "_fromChain",
          "type": "string"
        },
        {
          "internalType": "string",
          "name": "_title",
          "type": "string"
        },
        {
          "internalType": "string",
          "name": "_content",
          "type": "string"
        },
        {
          "internalType": "string",
          "name": "_date",
          "type": "string"
        }
      ],
      "name": "receiveGreeting",
      "outputs": [],
      "stateMutability": "nonpayable",
      "type": "function"
    },
    {
      "inputs": [
        {
          "internalType": "string",
          "name": "_toChain",
          "type": "string"
        },
        {
          "internalType": "string",
          "name": "_title",
          "type": "string"
        },
        {
          "internalType": "string",
          "name": "_content",
          "type": "string"
        },
        {
          "internalType": "string",
          "name": "_date",
          "type": "string"
        }
      ],
      "name": "sendGreeting",
      "outputs": [],
      "stateMutability": "nonpayable",
      "type": "function"
    },
    {
      "inputs": [
        {
          "internalType": "string",
          "name": "_toChain",
          "type": "string"
        },
        {
          "internalType": "uint256[]",
          "name": "_nums",
          "type": "uint256[]"
        }
      ],
      "name": "sendComputeTask",
      "outputs": [],
      "stateMutability": "nonpayable",
      "type": "function"
    },
    {
      "inputs": [
        {
          "internalType": "uint256[]",
          "name": "_nums",
          "type": "uint256[]"
        }
      ],
      "name": "receiveComputeTask",
      "outputs": [],
      "stateMutability": "nonpayable",
      "type": "function"
    },
    {
      "inputs": [
        {
          "internalType": "uint256",
          "name": "_result",
          "type": "uint256"
        }
      ],
      "name": "receiveComputeResult",
      "outputs": [],
      "stateMutability": "nonpayable",
      "type": "function"
    },
    {
      "inputs": [
        {
          "internalType": "string",
          "name": "_funcName",
          "type": "string"
        },
        {
          "internalType": "string",
          "name": "_toChain",
          "type": "string"
        },
        {
          "internalType": "string",
          "name": "_contractAddress",
          "type": "string"
        },
        {
          "internalType": "string",
          "name": "_contractFuncName",
          "type": "string"
        }
      ],
      "name": "registerDestnContract",
      "outputs": [],
      "stateMutability": "nonpayable",
      "type": "function"
    },
    {
      "inputs": [
        {
          "internalType": "string",
          "name": "_chainName",
          "type": "string"
        },
        {
          "internalType": "string",
          "name": "_sender",
          "type": "string"
        },
        {
          "internalType": "string",
          "name": "_funcName",
          "type": "string"
        }
      ],
      "name": "registerPermittedContract",
      "outputs": [],
      "stateMutability": "nonpayable",
      "type": "function"
    },
    {
      "inputs": [
        {
          "internalType": "string",
          "name": "_chainName",
          "type": "string"
        },
        {
          "internalType": "string",
          "name": "_funcName",
          "type": "string"
        },
        {
          "internalType": "string",
          "name": "_sender",
          "type": "string"
        }
      ],
      "name": "verify",
      "outputs": [
        {
          "internalType": "bool",
          "name": "",
          "type": "bool"
        }
      ],
      "stateMutability": "view",
      "type": "function"
    }
  ],
  "bytecode": "0x60806040523480156200001157600080fd5b5062000026620000206200002c565b62000030565b62000080565b3390565b600080546001600160a01b038381166001600160a01b0319831681178455604051919092169283917f8be0079c531659141344cd1fd0a4f28419497f9722a3daafe3b4186f6b6457e09190a35050565b61268480620000906000396000f3fe608060405234801561001057600080fd5b506004361061014d5760003560e01c806380899bba116100c3578063bb45acd91161007c578063bb45acd9146102d2578063d4692703146102e5578063dbc90de1146102f8578063f2fde38b14610300578063f87c9ea914610313578063ff96254b146103365761014d565b806380899bba1461024d5780638da5cb5b1461026f578063a24cbdf314610284578063a6b2b83014610297578063b02fe88f146102aa578063babe5dd6146102bf5761014d565b80634c236819116101155780634c236819146101d95780635fe78c6c146101ec57806366e1f8201461020c578063715018a61461021f578063791fd40d1461022757806379f6793c1461023a5761014d565b8063127f0f071461015257806318d72b54146101705780631dea9205146101855780632639c423146101985780633ad16b7a146101b9575b600080fd5b61015a610356565b6040516101679190612474565b60405180910390f35b61018361017e36600461190e565b6103ed565b005b610183610193366004611b07565b610457565b6101ab6101a6366004611969565b6105b5565b604051610167929190612153565b6101cc6101c7366004611a72565b6106ec565b604051610167919061243b565b6101836101e736600461192a565b610874565b6101ff6101fa366004611caf565b6109ff565b6040516101679190612140565b61018361021a366004611a16565b610aa4565b610183610b51565b610183610235366004611b07565b610b9c565b610183610248366004611a72565b610cdb565b61026061025b366004611ce1565b610d6b565b60405161016793929190612181565b610277610ec8565b6040516101679190612050565b610183610292366004611e41565b610ed7565b6101836102a53660046119ae565b610f06565b6102b2610fda565b6040516101679190612516565b6101836102cd366004611b07565b610fe0565b6101ff6102e0366004611ce1565b61109b565b6101836102f3366004611bc5565b6110dc565b610277611224565b61018361030e36600461190e565b611233565b610326610321366004611e41565b6112a4565b60405161016794939291906121b9565b610349610344366004611a72565b611504565b604051610167919061209e565b61035e6115f8565b600360009054906101000a90046001600160a01b03166001600160a01b0316639af7a48c6040518163ffffffff1660e01b815260040160006040518083038186803b1580156103ac57600080fd5b505afa1580156103c0573d6000803e3d6000fd5b505050506040513d6000823e601f3d908101601f191682016040526103e89190810190611d41565b905090565b6103f56115a4565b6001600160a01b0316610406610ec8565b6001600160a01b0316146104355760405162461bcd60e51b815260040161042c90612332565b60405180910390fd5b600380546001600160a01b0319166001600160a01b0392909216919091179055565b6003546001600160a01b031633146104815760405162461bcd60e51b815260040161042c90612406565b600061048b610356565b905080608001516000015160ff166001146104b85760405162461bcd60e51b815260040161042c90612269565b6000600582602001516040516104ce9190611f43565b90815260200160405180910390209050816040015180519060200120818360c001516040516104fd9190611f43565b90815260405190819003602001812061051591611f5f565b60405180910390201461053a5760405162461bcd60e51b815260040161042c90612367565b600680546001810182556000919091526004027ff652222313e28459528d920b65115c16c04f3efc82aaedc97be59f3f377c0d3f0161057a818c8c61163b565b50610589600182018a8a61163b565b5061059860028201888861163b565b506105a760038201868661163b565b505050505050505050505050565b80516020818301810180516001825292820191909301209152805481906105db906125b7565b80601f0160208091040260200160405190810160405280929190818152602001828054610607906125b7565b80156106545780601f1061062957610100808354040283529160200191610654565b820191906000526020600020905b81548152906001019060200180831161063757829003601f168201915b505050505090806001018054610669906125b7565b80601f0160208091040260200160405190810160405280929190818152602001828054610695906125b7565b80156106e25780601f106106b7576101008083540402835291602001916106e2565b820191906000526020600020905b8154815290600101906020018083116106c557829003601f168201915b5050505050905082565b6106f46116bf565b600187878787878760405160200161071196959493929190611fce565b60408051601f198184030181529082905261072b91611f43565b9081526020016040518091039020604051806040016040529081600082018054610754906125b7565b80601f0160208091040260200160405190810160405280929190818152602001828054610780906125b7565b80156107cd5780601f106107a2576101008083540402835291602001916107cd565b820191906000526020600020905b8154815290600101906020018083116107b057829003601f168201915b505050505081526020016001820180546107e6906125b7565b80601f0160208091040260200160405190810160405280929190818152602001828054610812906125b7565b801561085f5780601f106108345761010080835404028352916020019161085f565b820191906000526020600020905b81548152906001019060200180831161084257829003601f168201915b50505050508152505090509695505050505050565b6003546001600160a01b0316331461089e5760405162461bcd60e51b815260040161042c90612406565b6000805b828110156108f0578383828181106108ca57634e487b7160e01b600052603260045260246000fd5b90506020020135826108dc919061256f565b9150806108e8816125f2565b9150506108a2565b5060006108fb610356565b90506000600482602001516040516109139190611f43565b9081526020016040518091039020905060008160405161093290611ff7565b908152604051908190036020019020600281015490915060ff166109685760405162461bcd60e51b815260040161042c906123d7565b60008460405160200161097b9190612516565b60408051601f19818403018152602083810183526000845260035490880151925163ef565bbf60e01b81529194506001600160a01b03169163ef565bbf916109d191908790600182019087908990600401612206565b600060405180830381600087803b1580156109eb57600080fd5b505af11580156105a7573d6000803e3d6000fd5b805160208183018101805160028252928201919093012091528054610a23906125b7565b80601f0160208091040260200160405190810160405280929190818152602001828054610a4f906125b7565b8015610a9c5780601f10610a7157610100808354040283529160200191610a9c565b820191906000526020600020905b815481529060010190602001808311610a7f57829003601f168201915b505050505081565b610aac6115a4565b6001600160a01b0316610abd610ec8565b6001600160a01b031614610ae35760405162461bcd60e51b815260040161042c90612332565b6003546040516321c0551d60e11b81526001600160a01b0390911690634380aa3a90610b199087908790879087906004016120a9565b600060405180830381600087803b158015610b3357600080fd5b505af1158015610b47573d6000803e3d6000fd5b5050505050505050565b610b596115a4565b6001600160a01b0316610b6a610ec8565b6001600160a01b031614610b905760405162461bcd60e51b815260040161042c90612332565b610b9a60006115a8565b565b600060048989604051610bb0929190611f33565b90815260200160405180910390209050600081604051610bcf90612035565b908152604051908190036020019020600281015490915060ff16610c055760405162461bcd60e51b815260040161042c906123d7565b6000888888888888604051602001610c22969594939291906122d6565b604051602081830303815290604052905060006040518060200160405280600160ff168152509050600360009054906101000a90046001600160a01b03166001600160a01b031663ef565bbf8d8d866000018760010186886040518763ffffffff1660e01b8152600401610c9b969594939291906120db565b600060405180830381600087803b158015610cb557600080fd5b505af1158015610cc9573d6000803e3d6000fd5b50505050505050505050505050505050565b610ce36115a4565b6001600160a01b0316610cf4610ec8565b6001600160a01b031614610d1a5760405162461bcd60e51b815260040161042c90612332565b600060058787604051610d2e929190611f33565b908152602001604051809103902090508484828585604051610d51929190611f33565b908152604051908190036020019020610b4792909161163b565b81516020818401810180516004825292820194820194909420919093528151808301840180519281529084019290930191909120915280548190610dae906125b7565b80601f0160208091040260200160405190810160405280929190818152602001828054610dda906125b7565b8015610e275780601f10610dfc57610100808354040283529160200191610e27565b820191906000526020600020905b815481529060010190602001808311610e0a57829003601f168201915b505050505090806001018054610e3c906125b7565b80601f0160208091040260200160405190810160405280929190818152602001828054610e68906125b7565b8015610eb55780601f10610e8a57610100808354040283529160200191610eb5565b820191906000526020600020905b815481529060010190602001808311610e9857829003601f168201915b5050506002909301549192505060ff1683565b6000546001600160a01b031690565b6003546001600160a01b03163314610f015760405162461bcd60e51b815260040161042c90612406565b600755565b600060048585604051610f1a929190611f33565b90815260200160405180910390209050600081604051610f3990612017565b908152604051908190036020019020600281015490915060ff16610f6f5760405162461bcd60e51b815260040161042c906123d7565b60008484604051602001610f84929190612064565b60408051601f1981840301815260208301825260008352600354915163ef565bbf60e01b81529093506001600160a01b039091169063ef565bbf906109d1908b908b908890600182019088908a906004016120db565b60075481565b610fe86115a4565b6001600160a01b0316610ff9610ec8565b6001600160a01b03161461101f5760405162461bcd60e51b815260040161042c90612332565b600060048787604051611033929190611f33565b908152602001604051809103902090506000818a8a604051611056929190611f33565b908152604051908190036020019020905061107281878761163b565b5061108160018201858561163b565b50600201805460ff19166001179055505050505050505050565b8151602081840181018051600582529282019482019490942091909352815180830184018051928152908401929093019190912091528054610a23906125b7565b6110e46115a4565b6001600160a01b03166110f5610ec8565b6001600160a01b03161461111b5760405162461bcd60e51b815260040161042c90612332565b6040805160606020601f8701819004028201810183529181018581526000928291908890889081908501838280828437600092019190915250505090825250604080516020601f870181900481028201810190925285815291810191908690869081908401838280828437600092019190915250505091525060405190915081906001906111b7908e908e908e908e908e908e90602001611fce565b60408051601f19818403018152908290526111d191611f43565b908152602001604051809103902060008201518160000190805190602001906111fb9291906116d9565b50602082810151805161121492600185019201906116d9565b5050505050505050505050505050565b6003546001600160a01b031681565b61123b6115a4565b6001600160a01b031661124c610ec8565b6001600160a01b0316146112725760405162461bcd60e51b815260040161042c90612332565b6001600160a01b0381166112985760405162461bcd60e51b815260040161042c90612290565b6112a1816115a8565b50565b600681815481106112b457600080fd5b90600052602060002090600402016000915090508060000180546112d7906125b7565b80601f0160208091040260200160405190810160405280929190818152602001828054611303906125b7565b80156113505780601f1061132557610100808354040283529160200191611350565b820191906000526020600020905b81548152906001019060200180831161133357829003601f168201915b505050505090806001018054611365906125b7565b80601f0160208091040260200160405190810160405280929190818152602001828054611391906125b7565b80156113de5780601f106113b3576101008083540402835291602001916113de565b820191906000526020600020905b8154815290600101906020018083116113c157829003601f168201915b5050505050908060020180546113f3906125b7565b80601f016020809104026020016040519081016040528092919081815260200182805461141f906125b7565b801561146c5780601f106114415761010080835404028352916020019161146c565b820191906000526020600020905b81548152906001019060200180831161144f57829003601f168201915b505050505090806003018054611481906125b7565b80601f01602080910402602001604051908101604052809291908181526020018280546114ad906125b7565b80156114fa5780601f106114cf576101008083540402835291602001916114fa565b820191906000526020600020905b8154815290600101906020018083116114dd57829003601f168201915b5050505050905084565b60008060058888604051611519929190611f33565b90815260200160405180910390209050600081878760405161153c929190611f33565b908152604051908190036020018120915061155a9086908690611f33565b6040518091039020816040516115709190611f5f565b6040518091039020146115955760405162461bcd60e51b815260040161042c906123a8565b50600198975050505050505050565b3390565b600080546001600160a01b038381166001600160a01b0319831681178455604051919092169283917f8be0079c531659141344cd1fd0a4f28419497f9722a3daafe3b4186f6b6457e09190a35050565b6040518060e001604052806000815260200160608152602001606081526020016060815260200161162761174d565b815260006020820152606060409091015290565b828054611647906125b7565b90600052602060002090601f01602090048101928261166957600085556116af565b82601f106116825782800160ff198235161785556116af565b828001600101855582156116af579182015b828111156116af578235825591602001919060010190611694565b506116bb92915061175f565b5090565b604051806040016040528060608152602001606081525090565b8280546116e5906125b7565b90600052602060002090601f01602090048101928261170757600085556116af565b82601f1061172057805160ff19168380011785556116af565b828001600101855582156116af579182015b828111156116af578251825591602001919060010190611732565b60408051602081019091526000815290565b5b808211156116bb5760008155600101611760565b600061178761178284612548565b61251f565b905082815283838301111561179b57600080fd5b828260208301376000602084830101529392505050565b80516117bd81612639565b919050565b60008083601f8401126117d3578182fd5b5081356001600160401b038111156117e9578182fd5b602083019150836020808302850101111561180357600080fd5b9250929050565b60008083601f84011261181b578182fd5b5081356001600160401b03811115611831578182fd5b60208301915083602082850101111561180357600080fd5b600082601f830112611859578081fd5b61186883833560208501611774565b9392505050565b600082601f83011261187f578081fd5b815161188d61178282612548565b8181528460208386010111156118a1578283fd5b6118b2826020830160208701612587565b949350505050565b6000602082840312156118cb578081fd5b604051602081018181106001600160401b03821117156118ed576118ed612623565b8060405250809150825160ff8116811461190657600080fd5b905292915050565b60006020828403121561191f578081fd5b813561186881612639565b6000806020838503121561193c578081fd5b82356001600160401b03811115611951578182fd5b61195d858286016117c2565b90969095509350505050565b60006020828403121561197a578081fd5b81356001600160401b0381111561198f578182fd5b8201601f8101841361199f578182fd5b6118b284823560208401611774565b600080600080604085870312156119c3578182fd5b84356001600160401b03808211156119d9578384fd5b6119e58883890161180a565b909650945060208701359150808211156119fd578384fd5b50611a0a878288016117c2565b95989497509550505050565b60008060008060408587031215611a2b578384fd5b84356001600160401b0380821115611a41578586fd5b611a4d8883890161180a565b90965094506020870135915080821115611a65578384fd5b50611a0a8782880161180a565b60008060008060008060608789031215611a8a578182fd5b86356001600160401b0380821115611aa0578384fd5b611aac8a838b0161180a565b90985096506020890135915080821115611ac4578384fd5b611ad08a838b0161180a565b90965094506040890135915080821115611ae8578384fd5b50611af589828a0161180a565b979a9699509497509295939492505050565b6000806000806000806000806080898b031215611b22578182fd5b88356001600160401b0380821115611b38578384fd5b611b448c838d0161180a565b909a50985060208b0135915080821115611b5c578384fd5b611b688c838d0161180a565b909850965060408b0135915080821115611b80578384fd5b611b8c8c838d0161180a565b909650945060608b0135915080821115611ba4578384fd5b50611bb18b828c0161180a565b999c989b5096995094979396929594505050565b60008060008060008060008060008060a08b8d031215611be3578384fd5b8a356001600160401b0380821115611bf9578586fd5b611c058e838f0161180a565b909c509a5060208d0135915080821115611c1d578586fd5b611c298e838f0161180a565b909a50985060408d0135915080821115611c41578586fd5b611c4d8e838f0161180a565b909850965060608d0135915080821115611c65578586fd5b611c718e838f0161180a565b909650945060808d0135915080821115611c89578384fd5b50611c968d828e0161180a565b915080935050809150509295989b9194979a5092959850565b600060208284031215611cc0578081fd5b81356001600160401b03811115611cd5578182fd5b6118b284828501611849565b60008060408385031215611cf3578182fd5b82356001600160401b0380821115611d09578384fd5b611d1586838701611849565b93506020850135915080821115611d2a578283fd5b50611d3785828601611849565b9150509250929050565b600060208284031215611d52578081fd5b81516001600160401b0380821115611d68578283fd5b9083019060e08286031215611d7b578283fd5b611d8560e061251f565b82518152602083015182811115611d9a578485fd5b611da68782860161186f565b602083015250604083015182811115611dbd578485fd5b611dc98782860161186f565b604083015250606083015182811115611de0578485fd5b611dec8782860161186f565b606083015250611dff86608085016118ba565b6080820152611e1060a084016117b2565b60a082015260c083015182811115611e26578485fd5b611e328782860161186f565b60c08301525095945050505050565b600060208284031215611e52578081fd5b5035919050565b6001600160a01b03169052565b60008151808452611e7e816020860160208601612587565b601f01601f19169290920160200192915050565b60008284528282602086013780602084860101526020601f19601f85011685010190509392505050565b60008154611ec9816125b7565b808552602060018381168015611ee65760018114611efa57611f28565b60ff19851688840152604088019550611f28565b866000528260002060005b85811015611f205781548a8201860152908301908401611f05565b890184019650505b505050505092915050565b6000828483379101908152919050565b60008251611f55818460208701612587565b9190910192915050565b6000808354611f6d816125b7565b60018281168015611f855760018114611f9657611fc2565b60ff19841687528287019450611fc2565b8786526020808720875b85811015611fb95781548a820152908401908201611fa0565b50505082870194505b50929695505050505050565b600086888337868201818152858782378501818152838582379092019182525095945050505050565b731c9958d95a5d9950dbdb5c1d5d1954995cdd5b1d60621b815260140190565b7172656365697665436f6d707574655461736b60701b815260120190565b6e726563656976654772656574696e6760881b8152600f0190565b6001600160a01b0391909116815260200190565b6020808252810182905260006001600160fb1b03831115612083578081fd5b60208302808560408501379190910160400190815292915050565b901515815260200190565b6000604082526120bd604083018688611e92565b82810360208401526120d0818587611e92565b979650505050505050565b600060a082526120ef60a08301888a611e92565b82810360208401526121018188611ebc565b905082810360408401526121158187611ebc565b905060ff855116606084015282810360808401526121338185611e66565b9998505050505050505050565b6000602082526118686020830184611e66565b6000604082526121666040830185611e66565b82810360208401526121788185611e66565b95945050505050565b6000606082526121946060830186611e66565b82810360208401526121a68186611e66565b9150508215156040830152949350505050565b6000608082526121cc6080830187611e66565b82810360208401526121de8187611e66565b905082810360408401526121f28186611e66565b905082810360608401526120d08185611e66565b600060a0825261221960a0830188611e66565b828103602084015261222b8188611ebc565b9050828103604084015261223f8187611ebc565b905060ff8551166060840152828103608084015261225d8185611e66565b98975050505050505050565b6020808252600d908201526c53516f5320696e76616c69642160981b604082015260600190565b60208082526026908201527f4f776e61626c653a206e6577206f776e657220697320746865207a65726f206160408201526564647265737360d01b606082015260800190565b60006080825260096080830152684176616c616e63686560b81b60a083015260c0602083015261230a60c08301888a611e92565b828103604084015261231d818789611e92565b90508281036060840152612133818587611e92565b6020808252818101527f4f776e61626c653a2063616c6c6572206973206e6f7420746865206f776e6572604082015260600190565b60208082526021908201527f6d6573736167652073656e646572206973206e6f7420726567697374657265646040820152602160f81b606082015260800190565b6020808252601590820152740a6cadcc8cae440c8decae640dcdee840dac2e8c6d605b1b604082015260600190565b6020808252601590820152741858dd1a5bdb881b9bdd081c9959da5cdd195c9959605a1b604082015260600190565b6020808252818101527f4c6f636b65723a2063616c6c6572206973206e6f742043726f7373436861696e604082015260600190565b6000602082528251604060208401526124576060840182611e66565b90506020840151601f198483030160408501526121788282611e66565b60006020825282516020830152602083015160e0604084015261249b610100840182611e66565b90506040840151601f19808584030160608601526124b98383611e66565b925060608601519150808584030160808601526124d68383611e66565b925060ff6080870151511660a086015260a086015191506124fa60c0860183611e59565b60c08601519150808584030160e0860152506121788282611e66565b90815260200190565b6040518181016001600160401b038111828210171561254057612540612623565b604052919050565b60006001600160401b0382111561256157612561612623565b50601f01601f191660200190565b600082198211156125825761258261260d565b500190565b60005b838110156125a257818101518382015260200161258a565b838111156125b1576000848401525b50505050565b6002810460018216806125cb57607f821691505b602082108114156125ec57634e487b7160e01b600052602260045260246000fd5b50919050565b60006000198214156126065761260661260d565b5060010190565b634e487b7160e01b600052601160045260246000fd5b634e487b7160e01b600052604160045260246000fd5b6001600160a01b03811681146112a157600080fdfea2646970667358221220ed3995b1729c9b7792e51b12131166037cdc7fa0ff304ca294e687150069bde664736f6c63430008000033",
  "immutableReferences": {},
  "source": "// SPDX-License-Identifier: MIT\npragma solidity >=0.8.0 <0.9.0;\n\nimport \"@openzeppelin/contracts/access/Ownable.sol\";\nimport \"./CrossChain/ContractBase.sol\";\n\n// `Greetings` is an example of multi-chain services with necessary implementations in `ContractBase`, without which the user defined contract cannot work.\n// And besides, `registerDestnContract` and `registerPermittedContract` are templete implementations make the management of some user defined informations easier.\ncontract Greetings is ContractBase {\n    // Destination contract info\n    struct DestnContract {\n        string contractAddress; // destination contract address\n        string funcName; // destination contract action name\n        bool used;\n    }\n\n    // greeting\n    struct Greeting {\n        string fromChain;\n        string title;\n        string content;\n        string date;\n    }\n\n    // Cross-chain destination contract map\n    mapping(string => mapping(string => DestnContract)) public destnContractMap;\n\n    // Cross-chain permitted contract map\n    mapping(string => mapping(string => string)) public permittedContractMap;\n\n    // Store greetings\n    Greeting[] public greetings;\n\n    // Outsourcing computing result\n    uint256 public ocResult;\n\n    // Store context of cross chain contract\n    // SimplifiedMessage public context;\n\n    /**\n     * Receive greeting info from other chains\n     * @param _fromChain - from chain name\n     * @param _title - greeting title\n     * @param _content - greeting content\n     * @param _date - date\n     */\n    function receiveGreeting(\n        string calldata _fromChain,\n        string calldata _title,\n        string calldata _content,\n        string calldata _date\n    ) public {\n        require(\n            msg.sender == address(crossChainContract),\n            \"Locker: caller is not CrossChain\"\n        );\n\n        // `context` used for verify the operation authority\n        SimplifiedMessage memory context = getContext();\n        // verify sqos\n        require(context.sqos.reveal == 1, \"SQoS invalid!\");\n\n        // verify the sender from the registered chain\n        mapping(string => string)\n            storage permittedContract = permittedContractMap[context.fromChain];\n\n        require(\n            keccak256(bytes(permittedContract[context.action])) ==\n                keccak256(bytes(context.sender)),\n            \"message sender is not registered!\"\n        );\n\n        Greeting storage g = greetings.push();\n        g.fromChain = _fromChain;\n        g.title = _title;\n        g.content = _content;\n        g.date = _date;\n    }\n\n    /**\n     * Send greeting info to other chains\n     * @param _toChain - to chain name\n     * @param _title - greeting title\n     * @param _content - greeting content\n     * @param _date - date\n     */\n    function sendGreeting(\n        string calldata _toChain,\n        string calldata _title,\n        string calldata _content,\n        string calldata _date\n    ) external {\n        mapping(string => DestnContract) storage map = destnContractMap[_toChain];\n        DestnContract storage destnContract = map[\"receiveGreeting\"];\n        require(destnContract.used, \"action not registered\");\n\n        bytes memory data = abi.encode(\"Avalanche\", _title, _content, _date);\n        SQOS memory sqos = SQOS(1);\n        crossChainContract.sendMessage(\n            _toChain,\n            destnContract.contractAddress,\n            destnContract.funcName,\n            sqos,\n            data\n        );\n    }\n\n    /**\n     * Send outsourcing computing task to other chain\n     * @param _toChain - to chain name\n     * @param _nums - nums to be accumulated\n     */\n    function sendComputeTask(string calldata _toChain, uint[] calldata _nums) external {\n        mapping(string => DestnContract) storage map = destnContractMap[_toChain];\n        DestnContract storage destnContract = map[\"receiveComputeTask\"];\n        require(destnContract.used, \"action not registered\");\n\n        bytes memory data = abi.encode(_nums);\n        SQOS memory sqos = SQOS(0);\n        crossChainContract.sendMessage(\n            _toChain,\n            destnContract.contractAddress,\n            destnContract.funcName,\n            sqos,\n            data\n        );\n    }\n\n    /**\n     * Receives outsourcing computing task from other chain\n     * @param _nums - nums to be accumulated\n     */\n    function receiveComputeTask(uint[] calldata _nums) external {\n        require(\n            msg.sender == address(crossChainContract),\n            \"Locker: caller is not CrossChain\"\n        );\n        \n        // compute\n        uint ret = 0;\n        for (uint i = 0; i < _nums.length; i++) {\n            ret += _nums[i];\n        }\n\n        SimplifiedMessage memory context = getContext();\n\n        // send result back\n        mapping(string => DestnContract) storage map = destnContractMap[context.fromChain];\n        DestnContract storage destnContract = map[\"receiveComputeResult\"];\n        require(destnContract.used, \"action not registered\");\n\n        bytes memory data = abi.encode(ret);\n        SQOS memory sqos = SQOS(0);\n        crossChainContract.sendMessage(context.fromChain, destnContract.contractAddress, destnContract.funcName, sqos, data);\n    }\n\n    /**\n     * Receives outsourcing computing result\n     * @param _result - accumulating result\n     */\n    function receiveComputeResult(uint _result) external {\n        require(\n            msg.sender == address(crossChainContract),\n            \"Locker: caller is not CrossChain\"\n        );\n        ocResult = _result;\n    }\n\n    ///////////////////////////////////////////////\n    /////    Send messages to other chains   //////\n    ///////////////////////////////////////////////\n\n    /**\n     * Register destination contract info\n     * @param _funcName - function name to be called\n     * @param _toChain - destination chain name\n     * @param _contractAddress - destination contract address\n     * @param _contractFuncName - contract function name\n     */\n    function registerDestnContract(\n        string calldata _funcName,\n        string calldata _toChain,\n        string calldata _contractAddress,\n        string calldata _contractFuncName\n    ) external onlyOwner {\n        mapping(string => DestnContract) storage map = destnContractMap[_toChain];\n        DestnContract storage destnContract = map[_funcName];\n        destnContract.contractAddress = _contractAddress;\n        destnContract.funcName = _contractFuncName;\n        destnContract.used = true;\n    }\n\n    ///////////////////////////////////////////////\n    ///    Receive messages from other chains   ///\n    ///////////////////////////////////////////////\n\n    /**\n     * Authorize contracts of other chains to call the functions of this contract\n     * @param _chainName - from chain name\n     * @param _sender - sender of cross chain message\n     * @param _funcName - action name which allowed to be invoked\n     */\n    function registerPermittedContract(\n        string calldata _chainName,\n        string calldata _sender,\n        string calldata _funcName\n    ) external onlyOwner {\n        mapping(string => string) storage map = permittedContractMap[\n            _chainName\n        ];\n        map[_funcName] = _sender;\n    }\n\n    /**\n     * This verify method will be invoked by the CrossChain contract automatically, ensure that only registered contract(registerSourceContract) calls are allowed\n     * @param _chainName - chain name of cross chain message\n     * @param _funcName - contract action name of cross chain message\n     * @param _sender - cross chain message sender\n     */\n    //  Will be deprecated soon\n    function verify(\n        string calldata _chainName,\n        string calldata _funcName,\n        string calldata _sender\n    ) public view virtual returns (bool) {\n        mapping(string => string) storage map = permittedContractMap[\n            _chainName\n        ];\n        string storage sender = map[_funcName];\n        require(\n            keccak256(bytes(sender)) == keccak256(bytes(_sender)),\n            \"Sender does not match\"\n        );\n        return true;\n    }\n}\n",
  "sourcePath": "/Users/fsy412/code/Demo-Swap/contracts/Greetings.sol",
  "compiler": {
    "name": "solc",
    "version": "0.8.0+commit.c7dfd78e.Emscripten.clang"
  },
  "schemaVersion": "3.4.6",
  "updatedAt": "2022-04-27T07:02:59.015Z",
  "devdoc": {
    "kind": "dev",
    "methods": {
      "getMessageABI(string,string,string)": {
        "params": {
          "_destnChainName": "- destination chain name",
          "_destnContractName": "- destination contract name",
          "_funcName": "- destination contract function name"
        }
      },
      "owner()": {
        "details": "Returns the address of the current owner."
      },
      "receiveComputeResult(uint256)": {
        "params": {
          "_result": "- accumulating result"
        }
      },
      "receiveComputeTask(uint256[])": {
        "params": {
          "_nums": "- nums to be accumulated"
        }
      },
      "receiveGreeting(string,string,string,string)": {
        "params": {
          "_content": "- greeting content",
          "_date": "- date",
          "_fromChain": "- from chain name",
          "_title": "- greeting title"
        }
      },
      "registerContractABI(string,string)": {
        "params": {
          "_contractABI": "- contract action abi",
          "_funcName": "- contract action name"
        }
      },
      "registerDestnContract(string,string,string,string)": {
        "params": {
          "_contractAddress": "- destination contract address",
          "_contractFuncName": "- contract function name",
          "_funcName": "- function name to be called",
          "_toChain": "- destination chain name"
        }
      },
      "registerMessageABI(string,string,string,string,string)": {
        "params": {
          "_destnChainName": "- destination chain name",
          "_destnContractName": "- destination contract name",
          "_funcName": "- destination contract function name",
          "_paramName": "- action param name",
          "_paramType": "- action param types"
        }
      },
      "registerPermittedContract(string,string,string)": {
        "params": {
          "_chainName": "- from chain name",
          "_funcName": "- action name which allowed to be invoked",
          "_sender": "- sender of cross chain message"
        }
      },
      "renounceOwnership()": {
        "details": "Leaves the contract without owner. It will not be possible to call `onlyOwner` functions anymore. Can only be called by the current owner. NOTE: Renouncing ownership will leave the contract without an owner, thereby removing any functionality that is only available to the owner."
      },
      "sendComputeTask(string,uint256[])": {
        "params": {
          "_nums": "- nums to be accumulated",
          "_toChain": "- to chain name"
        }
      },
      "sendGreeting(string,string,string,string)": {
        "params": {
          "_content": "- greeting content",
          "_date": "- date",
          "_title": "- greeting title",
          "_toChain": "- to chain name"
        }
      },
      "setCrossChainContract(address)": {
        "params": {
          "_address": "- cross chain contract address"
        }
      },
      "transferOwnership(address)": {
        "details": "Transfers ownership of the contract to a new account (`newOwner`). Can only be called by the current owner."
      },
      "verify(string,string,string)": {
        "params": {
          "_chainName": "- chain name of cross chain message",
          "_funcName": "- contract action name of cross chain message",
          "_sender": "- cross chain message sender"
        }
      }
    },
    "version": 1
  },
  "userdoc": {
    "kind": "user",
    "methods": {
      "getMessageABI(string,string,string)": {
        "notice": "Get Registered message ABI to encode/decode message"
      },
      "receiveComputeResult(uint256)": {
        "notice": "Receives outsourcing computing result"
      },
      "receiveComputeTask(uint256[])": {
        "notice": "Receives outsourcing computing task from other chain"
      },
      "receiveGreeting(string,string,string,string)": {
        "notice": "Receive greeting info from other chains"
      },
      "registerContractABI(string,string)": {
        "notice": "contract ABI used to encode/decode messages sent to this contract"
      },
      "registerDestnContract(string,string,string,string)": {
        "notice": "Register destination contract info"
      },
      "registerMessageABI(string,string,string,string,string)": {
        "notice": "message ABI used to encode/decode messages sent from this contract"
      },
      "registerPermittedContract(string,string,string)": {
        "notice": "Authorize contracts of other chains to call the functions of this contract"
      },
      "sendComputeTask(string,uint256[])": {
        "notice": "Send outsourcing computing task to other chain"
      },
      "sendGreeting(string,string,string,string)": {
        "notice": "Send greeting info to other chains"
      },
      "setCrossChainContract(address)": {
        "notice": "Set cross chain contract"
      },
      "verify(string,string,string)": {
        "notice": "This verify method will be invoked by the CrossChain contract automatically, ensure that only registered contract(registerSourceContract) calls are allowed"
      }
    },
    "version": 1
  }
}